:020000040000FA
:10000000800720205D01000061010000B9060000AA
:1000100000000000000000000000000000000000E0
:10002000000000000000000000000000650100006A
:1000300000000000000000006701000069010000EE
:100040006B010000550600006B0100006B01000011
:100050006B0100006B0100006B0100006B010000F0
:10006000000000006B0100006B01000000000000B8
:1000700000000000790F00006B0100006B01000020
:10008000550F00006B0100006B0100006B010000C8
:100090006B0100006B010000000000000000000088
:1000A0006B0100006B010000000000000000000078
:1000B0006B010000000000006B0100006B010000FC
:1000C00000F002F800F03AF80CA030C80838241804
:1000D0002D18671EA246AB4654465D46AC4201D180
:1000E00000F02CF87E460F3EB6460FCC0126334278
:1000F00000D0FB1A3343A246AB4618472410000039
:100100003410000000000000002300240025002619
:10011000103A01D378C1FBD8520700D330C100D5C3
:100120000B60704710B5732902D100F0C7F810BDFD
:10013000002010BD1FB51FBD10B510BD00F0F2F8B6
:100140001146FFF7F7FF00F097FF00F00AF903B43C
:10015000FFF7F2FF03BC00F033FF00000648004742
:10016000FEE7FEE7FEE7FEE7FEE7FEE70348044999
:10017000024A044B70470000C100000080062020A6
:1001800080072020800620200FB4054910B503AA5F
:10019000029800F097F810BC08BC04B018470000A3
:1001A000B4052020F8B50E46044600202062204603
:1001B000E1688847002829D0252802D06268A16814
:1001C00020E0E16820460027884705001ED0284629
:1001D0004138192802D80127FF022035324620462F
:1001E00027602946FFF79EFF002808D0012804D089
:1001F000F61DF608F6000836D9E7361DD7E762681F
:100200002846A1689047206A401CCFE7206AF8BDC5
:1002100070B50C460546012A05D02878800600D521
:10022000EA69002302E0012305E05B1C934202D24D
:10023000E05C0028F9D1A869E618C01AA861286A0C
:10024000C01828622846C046C04604E06A68207884
:10025000A968641C9047B442F8D32846C046C046FB
:1002600070BD000010B5044603E000F0FBFE401C2A
:1002700008D020780549641C0028F6D10A2000F037
:10028000F1FE10BD0020C04310BD0000B4052020C9
:1002900070477047704710B54369002B02D0C046C5
:1002A000C04601E0FFF7B4FF012010BD12780146FF
:1002B00024310A7000224A700122ECE71168002202
:1002C000D243E8E7084B70B50D467B4400F013F8C5
:1002D0000446284600F022F8002802D00020C0433F
:1002E00070BD204670BD0000970D000001694A1CDA
:1002F00002610878704700B58FB002910021059126
:100300000549019379440391114604906846FFF72B
:1003100049FF0FB000BD0000E5FFFFFFC06880216E
:1003200008407047754600F025F8AE46050069465E
:100330005346C008C000854618B020B5FFF716FF29
:1003400060BCB64600260027C0C5C0C5C0C5C0C534
:10035000C0C5C0C5C0C5C0C5403D490849008D469F
:10036000704710B50446C046C0462046FFF7EFFE72
:1003700010BD0000004870470000202000280CD06D
:100380000178002909D0054A1368DB07FCD1916187
:10039000431C417800291846F6D1704708111040D7
:1003A00080B501204003044908600449086004A0A6
:1003B000FFF758FF80BDC04680E200E000E100E0AA
:1003C000426C7565746F6F74685F496E69742073F1
:1003D000756363656564210D00000000811E091FBF
:1003E00000BFFCD270470000F0B5684A8218294B64
:1003F000C318087920280DD000281DD10C68641E70
:100400005460D56E244C25408835D5661646703626
:1004100088251DE00C68641E5460D46E1E4D2C406F
:100420001E4EA419D466146F2C40A419146701241D
:1004300065071B4C16460BE00C6864085460D66ECA
:10044000154C26400525ED017619D6661646703600
:10045000376827402F433760D46A4E4D2C40D46212
:10046000146B2C4014630024D46414658F24E4437B
:10047000D56F2540D5671D6825401D60497901432A
:10048000BD2008401168074B0B40C018801C10604D
:10049000F0BDC0468418000024F93FF001040000BC
:1004A000FFFFFFCF4000FFCFB0B54A68364BC250C8
:1004B000364A80180A78222A58D8930001A4E358B3
:1004C0009F46C046630500006D05000063050000FF
:1004D0006D0500006D0500006D0500006D05000054
:1004E0006D0500006D0500006D0500006D05000044
:1004F0006D0500006D0500006D0500006D05000034
:100500006D050000510500006D050000510500005B
:100510006D0500006D0500006D0500006D05000013
:100520006D0500006D0500006D0500006D05000003
:100530006D0500006D0500006D0500006D050000F3
:100540006D050000510500006D050000510500001B
:1005500003231B0704689C4301235B07E318036024
:1005600004E003231B0704689C4304600B69C36019
:10057000CB68074C1C40C36A064D1D402B19C36253
:10058000097A11430160B0BD08180000041800008A
:10059000777702008888FDFF10B507239B04194078
:1005A00092008018024A84589C436118815010BD03
:1005B0003018000010B5029CA40000191143194323
:1005C000014A815010BDC0465018000092008018AA
:1005D000014A81507047C0461018000010B5012232
:1005E000120383180C789C604B7883508978014AF9
:1005F000815010BD0C110000B0B5112212028358B9
:100600000124A34383500B888C781C438B8823439D
:10061000094C1C408358094D1D40631983508B7948
:10062000CC791C43097A21437E2319408018426803
:100630009A4351184160B0BD18670000E798FDFF6C
:1006400010B50122120383180C789C604978815000
:1006500010BD000070B50020C14313480246103A97
:1006600013685A06114A02D45B0710D470BD14688F
:10067000240601D50C4600E001240D4D2E683419E6
:100680002C6004684025254305605B07EED51268A1
:10069000120700D40121074A136859181160016834
:1006A00004220A43026070BD48300A4080330A4089
:1006B000B00520202C01202080B502A0FFF7D2FD3C
:1006C00080BDC046656E747279204572726F72216A
:1006D0002121210D0000000080B5AC4980220020BE
:1006E0000870521E0831002AF9D1A8494A1C8023FB
:1006F000107008325B1EFBD18A1C802310700832F8
:100700005B1EFBD1CA1C8023107008325B1EFBD11C
:100710000A1D8023107008325B1EFBD14A1D802306
:10072000107008325B1EFBD18A1D802310700832C6
:100730005B1EFBD1C91D802208700831521EFBD1FF
:1007400000F0ACF880BDC046F0B581B0AE2000240A
:10075000214600F01DF92046214600F019F910202D
:10076000214600F015F940263046214600F010F9E8
:100770008120214600F00CF9CF20214600F008F935
:10078000A120214600F004F9C820214600F000F91C
:10079000A6252846214600F0FBF8A820214600F0B7
:1007A000F7F83F20214600F0F3F8D320214600F06F
:1007B000EFF82046214600F0EBF8D520214600F066
:1007C000E7F880273846214600F0E2F8D920214694
:1007D00000F0DEF8F120214600F0DAF8DA202146B8
:1007E00000F0D6F81220214600F0D2F8DB20214696
:1007F00000F0CEF83046214600F0CAF8202021460D
:1008000000F0C6F80220214600F0C2F88D202146F3
:1008100000F0BEF81420214600F0BAF8A4202146CA
:1008200000F0B6F82846214600F0B2F857480470A8
:1008300008307F1EFBD15548411C80220C700831C6
:10084000521EFBD1811C80220C700831521EFBD13C
:10085000C11C80220C700831521EFBD1011D802268
:100860000C700831521EFBD1411D80220C700831E2
:10087000521EFBD1811D80220C700831521EFBD10B
:10088000C01D802104700830491EFBD100F006F81D
:10089000AF20002100F07CF801B0F0BDF0B585B0CC
:1008A00000203A4F02905038C0B20024214600F098
:1008B0006FF82046214600F06BF81020214600F02A
:1008C00067F8022559480560012606600A2420467B
:1008D00000F0B0FB55480561204600F0ABFB5348E3
:1008E0000661204600F0A6FB782000F0A9FA4F48E8
:1008F0000560204600F09EFB4C480660204600F054
:1009000099FB4A480661204600F094FB402000F025
:1009100097FA049545480560204600F08BFB434854
:1009200006600546204600F085FB03962E612046B2
:1009300000F080FB80260197387800F081FA3B496F
:10094000049808600A24204600F074FB039D374891
:100950000560204600F06EFB34480561204600F03B
:1009600069FB761E0837002EE6D1304C049D2561C8
:10097000039820600A2000F05DFB2560019F7F1C2A
:100980000298401C08288DD105B0F0BD3001202010
:10099000F0B583B001910290244F02263E600125FC
:1009A0003D600A24204600F045FB3E61204600F0F1
:1009B00041FB3D61204600F03DFB782000F040FA0D
:1009C0003E60204600F036FB3D60204600F032FBE2
:1009D0003D61204600F02EFB0199481E81418801AF
:1009E00000F02EFA3E60204600F024FB3D602046D9
:1009F00000F020FB3D61204600F01CFB029800F057
:100A00001FFA3E60204600F015FB3D60204600F0D6
:100A100011FB3D61204600F00DFB3E613D6020462C
:100A200000F008FB3E6003B0F0BDC04690120A40E3
:100A300010B5064C2078012807D105A00749FFF71B
:100A4000A3FB074800210170217010BD2801202060
:100A500064617461203D2025730D0A006000202030
:100A60002901202070B5284A8520106001239903B0
:100A7000264801608421D164590601608621916273
:100A8000590501608821D16299050160204C8225B9
:100A9000256520494E1C6665A564E6641E4D1566F5
:100AA0001E4D15616163812525606560A163E16369
:100AB000A165E16551621162116311640246303A29
:100AC000DB0613600246403A03241460DA1C02601D
:100AD0001348026810231343036081391148026AE6
:100AE0000A43026202680A4302600F4801680F4A23
:100AF0000A4302600E48016A442211430162016800
:100B00001143016070BDC04690804240D0120A403F
:100B10000480424081000400810001008100050042
:100B2000A0130A4028100A4090330A401010000019
:100B300028300A40F0B581B0194C1A492046FFF719
:100B40004DFD19492046FFF74FFC00250095204632
:100B500029462A462B46FFF72DFD204629462A46E0
:100B6000FFF71AFD304E204631462A46FFF72EFD8C
:100B700001270097204629462A462B46FFF71AFDF3
:100B8000204629463A46FFF707FD204631463A46B9
:100B9000FFF71CFD054887600321016001B0F0BD2F
:100BA00000808640D8100000DC10000000918640D4
:100BB000F0B581B0194C1A492046FFF70FFD1949CD
:100BC0002046FFF711FC00250095204629462A46BD
:100BD0002B46FFF7EFFC204629462A46FFF7DCFCB0
:100BE000114E204631462A46FFF7F0FC01270097B8
:100BF000204629462A462B46FFF7DCFC204629469C
:100C00003A46FFF7C9FC204631463A46FFF7DEFC7C
:100C1000064887600321016001B0F0BD00008740F5
:100C2000E4100000E8100000AF040000001187404D
:100C30000C48002101600320C1430B480246083ADA
:100C400013680B4013600168012291430160110297
:100C500003688B4303601103001F02680A430260AC
:100C60007047C04608030B4008010B4005480421AB
:100C700001601F21416000218160016805220A4353
:100C80000260704710E000E010B5084C08492046AB
:100C9000FFF7A4FC07492046FFF706FC0648016859
:100CA0000122114301600548026010BD0040084068
:100CB000F0100000F41000002850084008510840CF
:100CC000B0B5184C18492046FFF7BAFC1749204622
:100CD000FFF792FC0322D103154803688B4303609E
:100CE000036930490B401A330361436913433C22C3
:100CF0009343436143680122134044689443E318DB
:100D0000436093020B4C25681D432560FF310A4B5D
:100D10001C680C409103611819600168114301605F
:100D2000B0BDC04600001040081100000A110000CC
:100D300000111040281010400CE400E010B5154CD4
:100D400015492046FFF77CFC14492046FFF754FC68
:100D50000320C103124802688A4302600169114AF4
:100D60000A4011320261416917220A4328218A434D
:100D70004261416801221140436893435918416020
:100D80009102094B1C680C431C600168114301600F
:100D900010BDC04600801040141100001611000064
:100DA000009110400000FFFF2890104080B500F037
:100DB00017F8FFF757FEFFF73BFFFFF7F9FEFFF7C6
:100DC000B9FEFFF761FFFFF7B9FFFFF779FFFFF704
:100DD0004DFF7420014900220A5480BD08062020DE
:100DE000F0B581B00D480E4941600E4A51600E4B7E
:100DF00059600E4C61600E4D69600E4E71600E4F71
:100E000079600E49016011601960216029603160CC
:100E100039601020FFF7E2FA01B0F0BD00080A4087
:100E2000030000B100280A4000088740008886407F
:100E300000480840008810400008104001000026CB
:100E4000F0B581B0044640B2414E002802D40220E1
:100E5000306101E0022030600A25284600F0EAF8FF
:100E600001273760284600F0E5F83761600602D4B4
:100E70000220306101E0022030600A25284600F09F
:100E8000D9F83760284600F0D5F83761A00602D4BB
:100E90000220306101E0022030600A25284600F07F
:100EA000C9F83760284600F0C5F83761E00602D47B
:100EB0000220306101E0022030600A25284600F05F
:100EC000B9F83760284600F0B5F83761200702D43A
:100ED0000220306101E0022030600A25284600F03F
:100EE000A9F83760284600F0A5F83761600702D4FA
:100EF0000220306101E0022030600A25284600F01F
:100F000099F83760284600F095F83761A00702D4B9
:100F10000220306101E0022030600A25284600F0FE
:100F200089F83760284600F085F83761E00702D17C
:100F30000220306101E0022030600A24204600F0E7
:100F400079F83760204600F075F8376101B0F0BDE0
:100F500090120A4005480068C0B2012804D1044834
:100F600000210160034801607047C04620500840DE
:100F70002C012020B00520200C48011F0268D2B2AD
:100F80000A600B490968C9B20B290ED102680949E8
:100F90000878C62803D8084B1A54401C0870064924
:100FA00000220A54054801210170704724111040A5
:100FB000201010402901202060002020280120203E
:100FC0007047000080B50120C0030449086004494F
:100FD000086004A0FFF746F980BDC04680E200E04B
:100FE00000E100E0426F61726420496E6974205B29
:100FF0005B202A2A204C434B4642202A2A205D5D52
:101000000D000000B0B57D2109024143144803687A
:10101000262206E0E41A051F2D686419A2188A42E8
:1010200006D21C4603689C42FCD0F3D9E41AF5E7CB
:10103000B0BDC046B0B50A490A684001262306E0A3
:10104000A41A0D1F2D686419E318834206D21446B2
:101050000A689442FCD0F3D9A41AF5E7B0BDC046A3
:1010600018E000E003490A68D207FCD1C2B28A61E5
:101070007047C04608911040FFF798FEFFF7A2FFA7
:10108000FFF78EF9FFF760FBFFF726FB0120000456
:1010900009490860094908600220086008A0FFF7B4
:1010A000E1F809A4FFF7C4FC2046FFF767F97D20AB
:1010B000C000FFF7A7FFF5E780E200E000E100E0F5
:1010C00073746172740D00004C432D4D53504D30BC
:1010D00047333530370A000008070000A00F000032
:1010E0000001000008070000A00F00000001000040
:1010F0000807FF00020000001A06000001000000BF
:1011000000000000000000000400000018000000C3
:10111000003000000800000018000000003000004F
:1011200030110000000020208007000008010000AE
:04000005000000C136
:00000001FF
