:020000040000FA
:10000000F8042020910100009501000097010000F4
:1000100000000000000000000000000000000000E0
:100020000000000000000000000000009901000036
:1000300000000000000000009B0100009D01000086
:100040009F0100005D1900009F0100009F0100005A
:100050009F0100009F0100009F0100009F01000020
:10006000000000009F0100009F0100000000000050
:1000700000000000F92800009F0100009F0100001F
:100080009F0100009F0100009F0100009F010000F0
:10009000712800009F010000000000000000000027
:1000A0009F0100009F010000000000000000000010
:1000B0009F010000000000009F0100009F01000060
:1000C00000F002F800F054F80CA030C808382418EA
:1000D0002D18671EA246AB4654465D46AC4201D180
:1000E00000F046F87E460F3EB6460FCC012633425E
:1000F00000D0FB1A3343A246AB461847A459000070
:10010000C459000000000000103A02D378C878C13A
:10011000FAD8520701D330C830C101D504680C6049
:100120007047000000000000002300240025002686
:10013000103A01D378C1FBD8520700D330C100D5A3
:100140000B60704710B5642902D100F097F810BD1C
:10015000782902D100F0C8F810BD732902D101F04E
:10016000C0F810BD002010BD1FB51FBD10B510BDDB
:1001700001F03AFA1146FFF7F7FF02F0ABFF01F08A
:1001800052FA03B4FFF7F2FF03BC02F0D9FB000000
:1001900006480047FEE7FEE7FEE7FEE7FEE7FEE76C
:1001A00003480449044A054B70470000C1000000A1
:1001B000F8022020F8042020F8032020F803202053
:1001C0000FB4054910B503AA029801F08FF810BCCE
:1001D00008BC04B0184700009C01202070B50446FC
:1001E00085690068C10601D5302600E02026C007D9
:1001F00007D070BD62683046A1689047206A401CF5
:1002000020626D1EF6D570BD70B504468569007814
:10021000C00707D170BD6268A16820209047206A9E
:10022000401C20626D1EF6D570BD70B50C460546AB
:10023000012A05D02878800600D5EA69002302E06B
:10024000012305E05B1C934202D2E05C0028F9D157
:10025000A869E618C01AA861286AC018286228464A
:10026000FFF7BCFF04E06A682078A968641C904727
:10027000B442F8D32846FFF7C7FF70BDF7B5002595
:1002800075291068009914A611D0C046C0460028F0
:1002900002DA404211A608E0009909688A0701D5F0
:1002A0000FA602E0490704D50EA6012501E0C046CD
:1002B000C046009F0024243704E001F02BF83031C1
:1002C0003955641C0028F8D12B4632462146009847
:1002D00000F09CFFFEBD0000000000002D000000AB
:1002E0002B0000002000000070B504460D4621469A
:1002F0001068C046C0462188090502D50F4A7A44D5
:1003000002E00E4A7A440E3223460021243305E0EF
:1003100006070009360F965D5E54491C0028F7D188
:1003200020780023000705D5702D03D0002901D0C7
:1003300002231132204600F069FF70BD9A48000088
:10034000F3B50446002081B020622046E16888476A
:1003500000287DD0252802D06268A16883E0454F3F
:1003600000257F442046E16888472028064608DBB0
:10037000312E06D2B81920380078002801D0054364
:10038000F0E7A80701D5042085430020E061074677
:10039000A0612A2E0AD0304603F05DFF002827D046
:1003A000B8000019303E0090866119E00298BA004A
:1003B000121902C8916102902046E1688847012F16
:1003C000064617D1E06900281FDA202085431CE08B
:1003D00000980A2180694843009980193038886163
:1003E0002046E1688847064603F035FF0028EFD134
:1003F000012F0AD02E2E08D12046E16888470646F4
:10040000202005437F1C022FC3DBA069002803DAEC
:100410004042A06101200543E80701D01020854338
:10042000002E24D030464138192803D80120C002BC
:1004300005432036204625603146029A1546FFF7CF
:1004400081FE00280CD0012807D0ED1DE80800E04F
:100450000DE0C0000830029077E72D1D029574E78B
:1004600062683046A1689047206A401C6CE7206AA9
:10047000FEBD00005E48000010B5044603E002F037
:100480001FFE401C08D020780549641C0028F6D1C6
:100490000A2002F015FE10BD0020C04310BD000070
:1004A0009C012020034610B50B439B070FD1042A63
:1004B0000DD308C810C9121FA342F8D018BA21BA28
:1004C000884201D9012010BD0020C04310BD002A80
:1004D00003D0D30703D0521C07E0002010BD0378DF
:1004E0000C78401C491C1B1B07D103780C78401C5E
:1004F000491C1B1B01D1921EF1D1184610BD70473B
:10050000704770470246C80FC00781434B0030B5A3
:100510004B405B009B0D20D01923DB06C91801233B
:100520001B05994220DB0324A40704251346AB4096
:100530000BD3002B04D1EB0613409B00E34204D401
:1005400001246407002312195941FF231B05994216
:100550000BD2C9000143500F09E0CB0204D501437F
:100560000803024305D0054830BDFF21C9050843F3
:1005700030BD084607210905884330BD0000C07F13
:10058000F0B50C46871A9C410D46861A9D4103D250
:10059000C01BA141D21963410D0D1F0DC94EEC1BAB
:1005A000AE435CD07F057F0D0026002F51D02D0576
:1005B000AC46A943DD020123ED0A1B051D432023A0
:1005C0001B1B24D41746E740381871412F46E740DB
:1005D000CC199D402818314661410C0D27D161444A
:1005E0009A4013D50023401C594152000ED14008B7
:1005F000400001224B005205D34207D3052040079B
:10060000C14201D5B04900E0B0493046F0BD6B00B1
:10061000002A00D001229A181F23203C1B1B01D561
:10062000002302E0E540281871410C0DD7D00124C9
:1006300024050919C407CD0740084908E40F2843D9
:100640006144002CD5D00024401C61419A40D0D197
:10065000CDE76A05520DD9D1C90FC907D5E79C4D21
:100660004E00002801D0012400E0002434195F006E
:10067000002A01D0012600E00026BE19954FAC42A9
:100680000CD8AE420AD8B44206D001256D05EC4222
:10069000BCD010461946F0BD9942FCD00020394626
:1006A000F0BDF0B51FB40C460F46811A9F41254698
:1006B000861A9D4106D20125ED076F40401ABC41C4
:1006C00052187B41210D1E0D8D1BAC467D4D8D4377
:1006D0007ED075056D0D7CD00D05AE46AC431B0379
:1006E0001B0B794D52429D41202366469B1B14D320
:1006F0001746F740381800260090744160462F4690
:100700000741E41900989D402818664116D47146A7
:1007100071189A4025D5012320E093182A466A4192
:100720005200002B00D0521C1E23203E9B1B002B8E
:1007300061DD3541EE1728186641E8D5001876418D
:100740005B1C9A4000D3401C4B05F3181524E34072
:1007500010D3002B52D071467118D30FC01802D39A
:10076000491C05B0F0BD0123DB079A42F9D14008CE
:100770004000F6E701225205B21801D1002853D0FB
:100780000123CC0ADB029943891E002A08D1020CFE
:1007900003D0020C0004103902E002460020203988
:1007A0000023550B05D112020823550B01D152012C
:1007B0000D23550C01D112011B1DD50C01D1920046
:1007C0009B1C150D01D152005B1C2025EE1A01E087
:1007D0002CE022E00546F54015439840CA1AE1078F
:1007E00069181305C918002ABBDA03204007081846
:1007F000C10FC9070FE071466118B2E7F107400861
:100800000843711071444A000CD001235B059A42E1
:10081000A7D2C90FC9070020A3E74905490D26D172
:10082000002001E00028F4D100219AE7284D66005D
:10083000002801D0012100E0002171185F00002A8A
:1008400001D0012600E00026BE19224FA94210D88F
:10085000AE420ED8B14208D001256D05E94206D05E
:100860001946A802414010467BE79C4201D0214630
:1008700077E70020394674E710B50C465C4005D593
:100880000124E4076340FFF70CFF10BDFFF778FE7B
:1008900010BD30B40C465C4004D50124E40763402D
:1008A00030BC6DE630BCFCE670B50124E407614065
:1008B0000D465D4002D4FFF763FE70BD6340FFF755
:1008C000F0FE70BDFF0700000000F0FF0000F07FA9
:1008D0000000E0FF0000F87FF0B5F94D0C091E099B
:1008E0002C402E402F468BB0A7437DD0B543FCD083
:1008F000002E7AD0002CFCD00D465D40ED0F254334
:10090000AC1BFF25AD0464190894C502440DC9024F
:100910002143500DDC0204430120C007014304437E
:10092000D2020191200C110C00958C460104234643
:100930008B430A9161460904E24D8A430991010AF9
:100940007D4449198039097805464D4301266D18C3
:10095000F605751B6943C90C640B891C4C4364186C
:10096000B5012C1B250C2E04B4434C434D43210CE4
:10097000691889090591009DE90701D00121C9077E
:1009800004912C4601996708CD072F434C08059D1B
:10099000E10B4D432D0C29466646754302950D46E5
:1009A00045432E46029D7D1BB44100950D465D4397
:1009B00001942C0C2F040D465543AE462D0C3D439F
:1009C000029503947546049C2D04641B049406D27E
:1009D000029C039D641C002675410395029401ACA2
:1009E00070CC009F7D1B01E03EE162E1B44109044F
:1009F0000095079101940599A4086143090C0C46E0
:100A00004443650BE7040C4666467443A646640BF4
:100A10003C43039502947446049DE4042C1B049407
:100A200006D2029C039D641C002675410395029426
:100A300001AC70CC009F7D1BB44101940C465C431B
:100A40000095650FE7000C465443A646640F3C43EF
:100A5000039502947446049DE4002C1B049406D272
:100A6000029C039D641C002675410395029401AC11
:100A700070CC009F7D1BB441AE09AF06049DC90038
:100A8000AD092F43049DA406AD060495079D34438C
:100A900069180791059DE10B4D432D0C29466646CB
:100AA000754302950D4645432E46029D7D1BB4417C
:100AB00000950D465D4301942C0C2F040D465543C3
:100AC000AE462D0C3D43029503947546049C2D04BF
:100AD000641B049406D2029C039D641C002675418D
:100AE0000395029401AC70CC009F7D1BB44101942E
:100AF0008C050694079C890A611800950791019C52
:100B00000599A4086143090C0D464543680BEF04A1
:100B10000D46644665436C0B3C43049FED047D1B0E
:100B2000AC4602D20025641C6841009E019D371B23
:100B300085410846584301950C46460FC50054436D
:100B4000600F28436546E4002C1B02D20025401CA0
:100B50006E41019D3F1AB5412846BD0980062843D4
:100B60008446A009BF064E020699A40676180743DC
:100B7000079D002068410A99079019430020099BAE
:100B800000906046FF1913434041E20F64003A436E
:100B9000A4460446D71A8C41A04203D901200090F4
:100BA00020463A46C70F941840416246D20F22436E
:100BB000644664000494009CBE466400D71AA446B0
:100BC000044602978C417746002F01D1A04204D9F8
:100BD0006046401C8446029A2046C40FA6469418DC
:100BE0004041049A0546D20F224364466400D31A5A
:100BF0008D417146002901D1A84202D928461A46E2
:100C0000641C10430122002800D01643610200201A
:100C1000079B891904465C410223002C02DB49181A
:100C200013466441089DCE0A2D145D194B056705D6
:100C3000E10A2C050D1908993E43C9076940002BAC
:100C400008D0934006D30022761C5141002B01D1DD
:100C5000760876001C4A002D43DB154241D0AA439A
:100C60003FD030460BB0F0BD06180D464D41174C35
:100C70007642AC411AD395181C465C41134A6D422A
:100C8000A24113D3012252054C00D4420AD15C0088
:100C9000D4420BD04B4002D592021143E2E7490007
:100CA0004908DFE75940C90FC90718E00020084983
:100CB000D8E7054801420DD10342F7D0F2E7000022
:100CC0000000FF07914200000000F07F0000E0FFFD
:100CD0000000F87F114859400143C01241400020F4
:100CE000C0E70123089A9B069A4205DC03225207BB
:100CF0008918C90FC907B5E7052252078918074A9D
:100D00001143D2125140ADE770B515461C4602465C
:100D10000B4628462146FFF7DFFD70BDFFFFFF7F32
:100D2000F0B58B4C0F09254689B0BD437BD01D091A
:100D30002646AE43FAD00E465E402740F60F3E43AD
:100D4000254071D024012142FBD0FF24AD19A40419
:100D50002D1B039501252D05DB02DB0AC9022B4360
:100D6000C90A29431E010901040F130F050121437C
:100D70001701880B820391432D098C46A90B1E4352
:100D80008A039543B30B9A0396433F09BA0B940326
:100D9000A74302962E467E430497B6464E19D719AE
:100DA0000C460196544305977E43371B7646BF1B7E
:100DB0003601B646BE0B361900967646BC04371986
:100DC000009C01D3641C00946400002F01D0012614
:100DD0003443029E049F754366467E430496760024
:100DE00034196E0034190094029C019E1C1966434C
:100DF000751BAE46069465464519059C05956C43E2
:100E0000594375460891691A0191049E0146514360
:100E1000A41B0491611A009C0791E10605D06109A9
:100E20000122114302E072E06EE06109089D002793
:100E30002C0A2D066918049D7C412A0A2D06691882
:100E4000019D6241AC0DAD026D185441079A910DA0
:100E5000920255196141029A644658435443069BD5
:100E6000059A5A43121A131B9A0E9B015B187A417A
:100E7000010B0005C3185141220A200644195A41AA
:100E80009A4200D2491C01204002814203D315231B
:100E90000226F64302E014230326F6432020C51A57
:100EA000A9401746AF40DA400A4320460399D8408C
:100EB0000914731819055118039A3843D207514081
:100EC000AC4009D00122944006D30022401C51417D
:100ED000002C01D1400840001E4A934212D3012247
:100EE00003989206904207DB0520400709181A482C
:100EF0000143C012414004E0032040070818C10F1D
:100F0000C907002009B0F0BD0020F107FAE7051875
:100F10000C464C4111486D42A04115D394181A4615
:100F20005A410E48644290410ED301204A004005C8
:100F3000824209D35A00824206D35940C90F084A57
:100F4000C90700201143DDE700200649DAE7000069
:100F50000000FF07FE070000FFFFFF7F0000E0FF2B
:100F60000000F07F0000F87F0121C905012341182E
:100F700042001B06D3185B0E0AD0C1100722D2060E
:100F8000891840075242D14201D552008918704752
:100F9000090208D50146002A03D0C10FC907002065
:100FA000704710467047420202D000200249704745
:100FB000072109050143F4E70000F87FF0B5FF259C
:100FC0002D04C609C209FF2704462E400137CB096C
:100FD0003E4348402A402B400746002A6BD0002B56
:100FE00069D0AA4267D0AB4265D0002800DA324609
:100FF0000125ED0529432C4309022002090AD21AD2
:101000004B0C7F24E31A434C000A7C44E35C7D24B0
:101010002404121914145B00A218884201D3521C34
:1010200000E0400049420C465C4324115C43DB0174
:101030006415E318040A5C43C502200D0C464443C2
:101040006419250A5D432303EC0C0D466543000338
:101050000019EB184C42A34201D35B18401CD40585
:101060002018002B07D05B00C91804D3401C0029AE
:1010700001D1400840003F2189048A4209D3002A57
:1010800008DC1106090F04D0032149074018C00FDE
:10109000C007F0BD01224100120689187F225206C6
:1010A0009142F6D205214907C84201D59010F0BD02
:1010B000FF20C005F0BD002F00DA32461648AA42D4
:1010C00007D2AB4205D21902090E17D0F80FC0079C
:1010D000F0BDFF2563002D06AB42F9D84900A942B7
:1010E000F6D8AB4201D1A942F2D0A94201D10021E8
:1010F00001E061004908D0050843F0BD1102090E66
:10110000FBD0FF200243D005F0BD0A460146104641
:1011100054E70000473C00000000C07F10B50146C6
:101120009E240002CA15A307002A02D01843002AF1
:1011300004DBA21A002A0CDDD04010BD1206120EEC
:1011400001D140004008A21A03D4D04040420028F8
:10115000F3DDFF2248001206904201D9002010BDA5
:10116000C817C043584010BD0102C21504D0012366
:10117000DB071943002A0ADB9E239A1A02D4084689
:10118000D0407047FF2241001206914201D9002051
:101190007047C017C04370471F22030C02D10F22B3
:1011A00000041CD0030E01D10002083A030F01D144
:1011B0000001121F830F01D18000921E002801DB65
:1011C0004000521ED20551180212511819229040A7
:1011D00004D3491C002801D149084900084670473A
:1011E000C10FC90700D04042012292071143D3E743
:1011F00001218907D0E710B500F0D0F8006810BDD4
:1012000010B5044600F0CAF8046010BDFFB50446EE
:101210000D4681B0243000902168880604D5102244
:10122000E0699143216000E00120A84201DD471BF5
:1012300000E000270498A1697A191018081AA06123
:101240002078C00602D42046FEF7C8FF002608E03A
:1012500003986268A168805D9047206A401C761CF4
:10126000206204988642F3DB2078C0060AD5204627
:10127000FEF7B4FF06E06268A16830209047206A5C
:10128000401C206238467F1E0028F4DC07E00098EE
:101290006268A168405D9047206A401C2062284631
:1012A0006D1E0028F3DC2046FEF7AEFF2078000616
:1012B00002D5022005B0F0BD0120FBE710B543695F
:1012C000002B02D0C046C04601E0FEF7AEFF012071
:1012D00010BD1278014624310A7000224A700122A2
:1012E000ECE711680022D243E8E70000084B70B534
:1012F0000D467B4400F05BF80446284600F06AF88F
:10130000002802D00020C04370BD204670BD000000
:10131000CB1D000001468008081A02091018020AB5
:101320001018020C1018C008820012185200891AF6
:1013300001E0401C0A390A29FBD2704770B5054606
:101340004800440D124B0020002C0AD0634008D006
:101350009A4206DA6642B24203DD12054019514153
:1013600070BD002C08D0002B09D0C90FC907002A76
:10137000F6DB084A114370BDC90FC90770BD284686
:101380000A03104302D00020034970BD284670BDF7
:10139000FF0700000000F07F0000F87F0048704762
:1013A0003000202001694A1C02610878704700B5AE
:1013B0008FB0029100210591054901937944039171
:1013C000114604906846FEF7BBFF0FB000BD000059
:1013D000E5FFFFFFC068802108407047F8B5264C44
:1013E0004E00069DA6420AD8A64201D1002806D189
:1013F0005E00A64203D8A6420AD1002A08D00D24D6
:101400002404254233D02946002000F014F9F8BD09
:101410000C461C4311D4994207D0C81A02D3EFF3EB
:101420000080F8BDEFF30080F8BD801A02D3EFF31F
:101430000080F8BDEFF30080F8BD09242407E50023
:101440008B4207D0581A02D3EFF3008006E0EFF387
:10145000008007E0101A03D3EFF30080A04303E0FD
:10146000EFF30080A043284380F30088F8BD009587
:1014700000F0F8F8F8BD00000000E0FFF0B53D4BCB
:1014800002460C461C400020002C63D03A4D8B4392
:1014900066D000296BDB0B0D1D05A94301252D0529
:1014A00029430124FD33E34001D392184941FF331E
:1014B00081339C468B02940D0121234389074C42C2
:1014C000920200271B198C105D1A04D42D1B02D424
:1014D0002B466500491992185B416408F4D15C1AE7
:1014E00008D40125ED07EE175519744102D42A4698
:1014F0002346491C94185B41012292071D46E61BB6
:101500008D4106D4B61A854103D42B465500344686
:101510007F1924195B415208802AEFD1234300D060
:10152000022338460A22D04001D3012213438A0500
:1015300010436246890A12058918002B09D001223E
:10154000D34002D30022401C5141002B01D140085E
:101550004000F0BD0B03134307D0C90FC907F0BD0E
:101560000803104303D1002901DB1046F0BD002021
:101570002946F0BD0000F07F0000F87F10B5FF2382
:101580001B0644009C421DD84C009C421AD80346BE
:10159000124A0B4307D4401A02D3EFF3008010BD68
:1015A000EFF3008010BD081A03D3EFF300809043DF
:1015B00005E0EFF3008001219043C907084380F361
:1015C000008810BD0D231B041A4204D011460020D0
:1015D00000F031F810BD00F04FF810BD0000009091
:1015E00000487047300020207546FFF7F9FFAE46EF
:1015F000050069465346C008C000854618B020B5AE
:10160000FEF7CEFD60BCB64600260027C0C5C0C5AB
:10161000C0C5C0C5C0C5C0C5C0C5C0C5403D4908DE
:1016200049008D46704710B50446C046C046204666
:10163000FEF7A7FD10BDC80212D54803400F0028D1
:1016400004D0C803C043012188407047EFF30080F5
:101650000001000903210907084380F3008870474F
:101660000020704710B500200249029A00F00CF8E3
:1016700010BD00000000F87F10B5024800F004F82B
:1016800010BD00000000C07F10B50C461107090F07
:10169000092904D00A290AD008290CD104E01146EE
:1016A0000820FFF7C8FF06E0510606D501E0510605
:1016B00001D50120C007214610BDD10607D5010183
:1016C0000909CC084907000E0006044309E0410F50
:1016D00020024907000A0143200E00061D22D141C5
:1016E00001430846E7E7811E091F00BFFCD270478F
:1016F000F0B5684A8218294BC318087920280DD004
:1017000000281DD10C68641E5460D56E244C254001
:101710008835D5661646703688251DE00C68641E2F
:101720005460D46E1E4D2C401E4EA419D466146F06
:101730002C40A4191467012465071B4C16460BE0C6
:101740000C6864085460D66E154C26400525ED01E2
:101750007619D66616467036376827402F433760AD
:10176000D46A4E4D2C40D462146B2C401463002478
:10177000D46414658F24E443D56F2540D5671D6874
:1017800025401D6049790143BD2008401168074B81
:101790000B40C018801C1060F0BDC04684180000CB
:1017A00024F93FF001040000FFFFFFCF4000FFCF0E
:1017B000B0B54A68364BC250364A80180A78222A99
:1017C00058D8930001A4E3589F46C0466B18000008
:1017D000751800006B1800007518000075180000DF
:1017E00075180000751800007518000075180000C5
:1017F00075180000751800007518000075180000B5
:1018000075180000751800007518000059180000C0
:1018100075180000591800007518000075180000B0
:101820007518000075180000751800007518000084
:101830007518000075180000751800007518000074
:101840007518000075180000751800005918000080
:10185000751800005918000003231B0704689C43F7
:1018600001235B07E318036004E003231B070468FC
:101870009C4304600B69C360CB68074C1C40C36A7F
:10188000064D1D402B19C362097A11430160B0BD9A
:101890000818000004180000777702008888FDFF10
:1018A00010B507239B04194092008018024A8458FF
:1018B0009C436118815010BD3018000010B5029C87
:1018C000A400001911431943014A815010BDC046BC
:1018D0005018000092008018014A81507047C0469D
:1018E0001018000010B50122120383180C789C60B8
:1018F0004B7883508978014A815010BD0C1100004B
:10190000B0B51122120283580124A34383500B88DF
:101910008C781C438B882343094C1C408358094D09
:101920001D40631983508B79CC791C43097A21437C
:101930007E231940801842689A4351184160B0BD17
:1019400018670000E798FDFF10B501221203831805
:101950000C789C604978815010BD000070B5002063
:10196000C14313480246103A13681A06114A02D4BA
:101970005B0710D470BD1468640601D50C4600E006
:1019800001240D4D2E6834192C60046880252543F0
:1019900005605B07EED51268120700D40121074AE3
:1019A000136859181160016804220A43026070BD6F
:1019B00048300A4080330A40880120207C012020E2
:1019C00070B5142000F0DEFF1C4800F09BFB0446BD
:1019D0000120C00760401A4EF0603169306103F0A9
:1019E00075F80146B06803F019F8054631682046DD
:1019F00003F014F80146284603F068F870611149B5
:101A000003F00CF8FFF78AFB0F490978012914D17C
:101A1000002806D001280BDBFFF7E2FB00F0E6FA16
:101A200070BD0A480088FFF7E3FB00F049FB70BD7A
:101A30004042FFF7D5FB00F00DFB70BD8001202078
:101A4000900020200000C842F20120200000202049
:101A5000F0B589B0DC4881210160DC4802210160D9
:101A600001640A2000F08EFF68266B270124802382
:101A7000039330463946224600F0AEF9642000F068
:101A800081FF00253046394622462B4600F0A4F956
:101A90001B2118233046224600F09EF91C213046B7
:101AA00022462B4600F098F906AB132002901870DE
:101AB00019213046224600F08FF907AB042001902F
:101AC00018701A213046224600F086F93821304637
:101AD00022462B4600F080F96A21304622462B46EA
:101AE00000F07AF92321304622462B4600F074F9A3
:101AF000372130462246039B00F06EF908AF3D8047
:101B00007521304622463B4600F036F8014617481C
:101B1000FEF756FB3878682822D1164868252946F2
:101B2000FEF74EFB6B2128462246234600F054F96F
:101B30006C2100232846224600F04EF904AB02989F
:101B4000187019212846224600F046F905AB019885
:101B500018701A212846224600F03EF9254602E078
:101B60000348FEF72DFB284609B0F0BDF3590000ED
:101B70000E5A0000FC590000F0B589B0059302929E
:101B80000491089090498120079008608F4E0227A9
:101B90003760376401243460376137600525284693
:101BA00000F008FF3761284600F004FF3461089810
:101BB00040000890C0B200F0B9FD8349346137603D
:101BC0008348086003943460824D286880070DD5EF
:101BD0000A24052000F0EEFE2968641E200601D0CC
:101BE0003940F6D10028FE4900D1A1E0012434613A
:101BF0000798086037603764049800F097FDF8494B
:101C000034613760F74808603460286880070694BC
:101C100010D534460A26052000F0CCFE2968761E31
:101C2000300601D03940F6D100282646EC49069C02
:101C300000D191E00197346107980860022737606E
:101C40003764086037603764346037613760052077
:101C5000049000F0AFFE3761049800F0ABFE3461F1
:101C600008982043C0B200F061FDDD49346137605F
:101C7000DC4808603460286880070FD534460A269F
:101C8000052000F097FE2968761E300601D0394005
:101C9000F6D100282646D249069C70D034610798B8
:101CA00008603760376400250298022800953446A2
:101CB00021D3401E049000252E4600F0A5FA059978
:101CC00048550798C6490860276027643D46069F27
:101CD000276125610520089000F06CFE25612760D2
:101CE000089800F067FE27612F462560761CF5B244
:101CF0000498A842E1DC00F087FA05994855B848F5
:101D00000799016027602764069E266127610525E3
:101D1000284600F04FFE27602660284600F04AFE65
:101D2000266127602646019FAD4C0798009D39E04B
:101D3000079D0D603760376403983061376130600C
:101D40000524204600F036FE37602046A44C00F003
:101D500031FE2846039D25E0079D0D6037603764FE
:101D60003461376134600524204600F023FE37607B
:101D700020469B4C00F01EFE28463D4612E0079D83
:101D80000D60376037643461376134600524204664
:101D900000F010FE37602046914C00F00BFE284604
:101DA0000325019F206037603764039830613761F5
:101DB00030600524204600F0FDFD3760204600F02D
:101DC000F9FD284609B0F0BD0880424090120A4053
:101DD0008100040080130A40F0B585B0019302929F
:101DE000009104907E49812003900860EC4C02250C
:101DF000256025640127276025612560052630467A
:101E000000F0D8FD25613046264600F0D3FD27615D
:101E100004984006000E00F089FC71492761256096
:101E2000704808602760704C206880070FD50497C1
:101E30000A26052000F0BEFD2168761E300601D07E
:101E40002940F6D10028D64E6549049F65D0012768
:101E500037610398086035603564009800F066FCCF
:101E60003A465F49376135605E48086037602068F0
:101E70008007039F04920ED50A27052000F09AFDE3
:101E800021687F1E380601D02940F6D10028544928
:101E9000039F049A61D032610F600225356035647A
:101EA0000298002828D000270DE00028BC4E4C499D
:101EB000049A71D0326103980860356035647F1CE4
:101EC0000298874218D00198C05D00F02FFC049A58
:101ED00043493261356043480860326020688007BA
:101EE000E8D50A26052000F065FD2168761E30063B
:101EF000DBD02940F6D1D8E7039808603560356417
:101F00003261356132600524204600F053FD3560B2
:101F1000204600F04FFD00275EE003980860356022
:101F2000356437613561376034460526304600F048
:101F300041FD2560304600F03DFD039828490860CA
:101F400025602564276125612760304600F032FD59
:101F50002560304600F02EFD3EE00F6035603564B0
:101F60003261356132600524204600F023FD356082
:101F7000204600F01FFDF248076035603564049884
:101F8000306135613060204600F014FD3560204638
:101F900000F010FD2F461FE003980860356035649F
:101FA0003261356132600524204600F003FD356062
:101FB000204600F0FFFC0398E14908603560356475
:101FC0000498306135613060204600F0F3FC3560E4
:101FD000204600F0EFFCFF1CF8B205B0F0BDC04693
:101FE000088042408100040080130A40F0B581B0AF
:101FF00005463248068800242046214600F0E2F8D3
:102000003046FFF7F5F8294602F060FDFFF786F845
:1020100006B23046FFF7E4F8394F7A4DBE42294602
:1020200000DC014601260846314600F0CBF8204688
:10203000214600F0D7F82148008804B22046FFF777
:10204000CFF8BC4200DC05462846314600F0CAF80D
:1020500001B0F0BDF0B581B00090184C2788002584
:102060002846294600F0AEF8208806B23046FFF731
:10207000B7F82349634C8E42214600DC0146012615
:102080000846314600F09EF82846294600F0AAF896
:102090003846FFF7ADF8009902F018FDFFF73EF85B
:1020A00005B22846FFF79CF815498D4200DC04462E
:1020B0002046314600F096F801B0F0BD0000202027
:1020C00070B5054600242046214600F07BF82846DE
:1020D000FFF724F80646FFF783F8054608488642CE
:1020E00000DD484D01262846314600F06BF82046B9
:1020F000214600F077F82846314600F073F870BDAD
:102100009F0F000070B584B0044600200390029039
:10211000019003A802A901AA01F068F8002815D1CE
:102120001B48007800282ED02168019802F0CEFCD0
:10213000184902F073FC05466068174902F06EFC0E
:102140000146284602F0FAFB6060019013480088BF
:102150004B21C90080B2884211D10D4E3078019DCB
:1021600000280DD10021284602F06AF8002807D186
:102170000120307025600A480421016000E0019DC3
:10218000284604B070BD05490888401C0880DFE778
:10219000F20120209A99993E3333333FF0012020F9
:1021A00090120A4004480549054A00230CC001600A
:1021B000436083607047C0469000202000002041AB
:1021C000CDCC4C3F10B50C4601290AD801460D482C
:1021D00002F07CFCFEF7C8FF0146AA482246FFF742
:1021E00079FB10BD10B50C4601290AD801460548F7
:1021F00002F06CFCFEF7B8FF0146C1482246FFF72B
:1022000069FB10BD00007A45F0B587B04C487A49AB
:1022100001604C4F01263E600524204600F0CAFBB9
:102220003D46103D2E60204600F0C4FB4648006845
:102230000690204600F0BEFB3E60204600F0BAFB50
:102240002E60204600F0B6FB3F480068059020460F
:1022500000F0B0FB3E60204600F0ACFB2E60204654
:1022600000F0A8FB384F38680490204600F0A2FB2D
:1022700034480660204600F09DFB2E60204600F0AA
:1022800099FB38680390204600F094FB2D480660C7
:10229000204600F08FFB2E60204600F08BFB386854
:1022A0000290204600F086FB26480660204600F09B
:1022B00081FB2E60204600F07DFB386801902046AF
:1022C00000F078FB1F480660204600F073FB2E608C
:1022D000204600F06FFB1C480768204600F06AFBB0
:1022E00018480660204600F065FB2E60204600F08E
:1022F00061FB15480568204600F05CFB114806604C
:102300000220049B0340069A024005998907C90FE1
:1023100089188900C918039A9207D20F51188900A9
:10232000029A02408918019A9207D20F5118890027
:102330000740C819A907C90F0818C0B207B0F0BDF7
:1023400008804240A0120A4080130A4070B5274B13
:102350008420D8640122940625490C601865D406AF
:102360000C6086249C6154050C608824DC61920515
:102370000A60204C822525651F4A561C6665A564A7
:10238000E6641E4D1D6062631D4EA66181262660B7
:102390006660A563E563E565A5655A611A611A6221
:1023A0001A630B46303B04241C600B46403B03245D
:1023B0001C6007230B6013490B6810241C430C603E
:1023C000813A11490B6A13430B620B6813430B608C
:1023D0000E490A680E4B13430B600E490A6A02430A
:1023E0000A620A6802430A6070BDC046A08042408B
:1023F000D0120A40048042408100040081000500A0
:1024000081000100A0130A4028100A4090330A40BE
:102410001040000028300A40F0B581B0194C1A492C
:102420002046FFF75FFA19492046FFF761F90025BA
:102430000095204629462A462B46FFF73FFA2046BC
:1024400029462A46FFF72CFA304E204631462A46C6
:10245000FFF740FA01270097204629462A462B46D7
:10246000FFF72CFA204629463A46FFF719FA20468C
:1024700031463A46FFF72EFA05488760032101608E
:1024800001B0F0BD008086408459000088590000EA
:1024900000918640F0B581B0194C1A492046FFF7EB
:1024A00021FA19492046FFF723F900250095204617
:1024B00029462A462B46FFF701FA204629462A4696
:1024C000FFF7EEF9114E204631462A46FFF702FA91
:1024D00001270097204629462A462B46FFF7EEF9AA
:1024E000204629463A46FFF7DBF9204631463A4670
:1024F000FFF7F0F9064887600321016001B0F0BDE5
:10250000000009409059000094590000AF040000F9
:10251000001109400C48002101600320C1430B4811
:102520000246083A13680B40136001680122914388
:102530000160110203688B4303601103001F0268EE
:102540000A4302607047C04608030B4008010B4075
:102550000548042101601F2141600021816001685C
:1025600005220A430260704710E000E010B5084CF5
:1025700008492046FFF7B6F907492046FFF718F942
:10258000064801680122114301600548026010BD40
:1025900000A086409C590000A059000028B0864049
:1025A00008B18640B0B5184C18492046FFF7CCF961
:1025B00017492046FFF7A4F90322D1031548036801
:1025C0008B430360036930490B401A33036143694D
:1025D00013433C2293434361436801221340446800
:1025E0009443E318436093020B4C25681D43256018
:1025F000FF310A4B1C680C40910361181960016897
:1026000011430160B0BDC04600001040B459000045
:10261000B659000000111040281010400CE400E0F2
:1026200010B5154C15492046FFF78EF91449204680
:10263000FFF766F90320C103124802688A4302606B
:102640000169114A0A4011320261416917220A43A5
:1026500028218A4342614168012211404368934323
:10266000591841609102094B1C680C431C600168B9
:102670001143016010BDC04600801040C0590000E9
:10268000C2590000009110400000FFFF2890104048
:1026900080B500F01BF8FFF759FEFFF73BFFFFF78F
:1026A000F9FEFFF7B9FEFFF761FFFFF7B9FFFFF78C
:1026B00079FFFFF74DFF7420024900220A540249B6
:1026C0000A5480BD8002202008022020F0B581B08D
:1026D0000D480E4941600E4A51600E4B59600E4C38
:1026E00061600E4D69600E4E71600E4F79600E494B
:1026F000016011601960216029603160396010202B
:10270000FEF7F1FF01B0F0BD00080A40030000B180
:1027100000280A40000809400088864000A886403A
:10272000008810400008104001000026F0B581B07C
:102730004D4A812111604D4F02253D603D640124C9
:102740003C61009040B2002801D43D6100E03D6052
:10275000204600F02FF93C600526304600F02AF9AB
:102760003C61304600F026F90098400601D43D61F6
:1027700000E03D60204600F01DF93C600526304633
:1027800000F018F93C61304600F014F9009880061A
:1027900001D43D6100E03D60204600F00BF93C6053
:1027A0000526304600F006F93C61304600F002F99B
:1027B0000098C00601D43D6100E03D60204600F075
:1027C000F9F83C600526304600F0F4F83C613046EC
:1027D00000F0F0F80098000701D43D6100E03D6092
:1027E000204600F0E7F83C600526304600F0E2F8AD
:1027F0003C61304600F0DEF80098400701D43D61AE
:1028000000E03D60204600F0D5F83C6005263046EB
:1028100000F0D0F83C61304600F0CCF8009880071A
:1028200001D43D6100E03D60204600F0C3F83C600B
:102830000526304600F0BEF83C61304600F0BAF89C
:102840000098C00701D13D6100E03D60204600F0E6
:10285000B1F83C600525284600F0ACF83C612846FC
:1028600000F0A8F801B0F0BD0880424090120A4084
:102870001B4802681B480168D2B2012A0DD1491CCD
:102880000160194A13685B1C1360184A13685B1CCB
:102890001360174A13685B1C1360022904D10021DE
:1028A00001601448012101700F480168062904D114
:1028B000002101600F48012141700C480168142972
:1028C00004D1002101600B48012181700848016892
:1028D000322904D10021016006480121C1707047EE
:1028E00020B0864090012020980120208C012020DB
:1028F00094012020760120200C48011F0268D2B2EA
:102900000A600B490968C9B20B290ED1026809494E
:102910000878C62803D8084B1A54401C087006498A
:1029200000220A540548012101707047241110400B
:102930002010104075012020AC00202074012020C0
:102940007047000080B50120C003044908600449B5
:10295000086004A0FDF790FD80BDC04680E200E065
:1029600000E100E0426F61726420496E6974205B8F
:102970005B202A2A204C434B4642202A2A205D5DB8
:102980000D000000B0B57D210902414314480368E1
:10299000262206E0E41A051F2D686419A2188A424F
:1029A00006D21C4603689C42FCD0F3D9E41AF5E732
:1029B000B0BDC046B0B50A490A684001262306E00A
:1029C000A41A0D1F2D686419E318834206D2144619
:1029D0000A689442FCD0F3D9A41AF5E7B0BDC0460A
:1029E00018E000E0F0B58DB0054607AF0920F8709B
:1029F000E320B870CA2078700220019038706820F7
:102A000004213A4601F066FAA32179723972F9710C
:102A1000402306952B405C20C043002B024601D08A
:102A20003D22D243FA70002B024601D03722D24316
:102A3000BA703F240493002B024600D0E243009476
:102A40007A703970012635022C46803506990D4082
:102A5000014601D03921C943B971002D014601D089
:102A60003321C9437971002D01D03B20C043387117
:102A700073480F300A213A4601F02CFA032027222E
:102A8000069908400390029201D0202000E0D04334
:102A900038706B481E3031463A4601F01BFA069FEB
:102AA000B8060AD40AAAC720107268480B90684872
:102AB0000A909720C000092109E05D200C90614830
:102AC0000B9061480A909720C00009210AAA01F0E2
:102AD00001FA002D16D02E46274204D19020B421B1
:102AE0008023B02503E09B20B6218B23B22507AAC3
:102AF000D07091705370157051480A30042101F064
:102B0000E9F93546F807059506D107AAD8201070CF
:102B10008B20000101214DE007AAF82010708B20C6
:102B200000010126314601F0D5F90720FA2100F015
:102B300025FA0AAA009810702920C70038463146A5
:102B400001F0C8F90AAA00251570F81D314601F0F8
:102B5000C1F90AAE14207070357038469630019C69
:102B60002146324601F0B6F964207070357038465F
:102B700092302146324601F0ADF90AAA9020D07079
:102B8000F92090708E205070157038461430042152
:102B900001F0A0F9082070703570384612302146D7
:102BA000324601F097F97470357010373846069F39
:102BB0002146324601F08EF9049D0299B80702D5EC
:102BC0002620C04300E0C84307AA10702148012115
:102BD00001F080F9780701D4204800E01E480A90EF
:102BE00004210AAA164801F075F900F00FFFF80653
:102BF00001D41C4800E01A480A901148801D0421A5
:102C00000AAA01F067F900F001FF0820384386495D
:102C10000880002D00D006250598002800D0AD1DA5
:102C20001420074201D0102005430398002800D04B
:102C30002D1D00F0EBFE7B48057000200DB0F0BDAF
:102C4000980A0000B4980D35B8AAB38DB088C3C5F2
:102C5000B8AAAAAA3D070000C0C2C4C68B8B8B8B42
:102C600020283038A3A3A3A380B501208202034803
:102C70000349C82300F0E8FC80BDC046F60B000005
:102C80008E4D0000F0B58DB00393154604910446B7
:102C9000129F00263E806348007805A9139A00F031
:102CA00063FEF143002800D0B8E0019402975E482B
:102CB000078814200742049B4DD000910598000618
:102CC00005AA517809040C18907800022018D378CE
:102CD000C01828600698000653791B041B189079C9
:102CE00000021818D6798019686007980006567A8D
:102CF00036043618907A00023018D17A4018A8604D
:102D000008980006517B09040818917B09024118B4
:102D1000D27B8918E960191449432214524351188F
:102D2000321452438918001440430818F12109064F
:102D300040183E49884206D300F068FE0020029900
:102D4000088000996AE001200002029A118801437C
:102D500011801026049B780603D43146039E029C02
:102D600021E00120304305A9085C8A5D1202101899
:102D7000188003203043085C022232438A5C12022E
:102D80001018588005203043085C04223243895CC7
:102D9000090208189880029C20880821014321809C
:102DA00006213143039E019D01200002803007422D
:102DB00015D005A842185378405C0002C01828803E
:102DC000D07893781B021818688050791279120213
:102DD0001018A8802088702202432280891DB8071D
:102DE00018D005A84518EC786878C1070AD01049B2
:102DF0000A68002A06D007202040411CA006400F88
:102E000090476878000705D50A480168002901D075
:102E1000A0098847304600F09DF9002108460DB012
:102E2000F0BDC04606022020000220200100000262
:102E3000F4012020F801202070B586B00446134824
:102E4000059013480490134803900026F543C82CBE
:102E500018D8E1B2C82001F06FF8401E01AA5070E6
:102E6000000A10700C48022101F034F8002809D142
:102E70000A480C2103AA01F02DF8002802D10848C5
:102E800004803546284606B070BDC046BBAFDFDFC4
:102E9000AAF1DFDFFEF2ABC416020000C10A000097
:102EA00004022020F0B583B00446032108402D4BD6
:102EB0001D5C02AA15702C4D285C01AE30702006F6
:102EC000800F1F5C9770E706BF0FDB5D5370285CB7
:102ED000B070E85D7070254E304600F0FBFF0027B3
:102EE000FD43002829D1301D032101AA00F0F2FF83
:102EF000002822D11E4801901E48029060071FD46E
:102F0000A00625D4E00505D501A86721817002A897
:102F10007721817030461A30032102AA00F0DAFFCF
:102F200000280AD10B36032101AA304600F0D2FF57
:102F3000002802D1104804803D46284603B0F0BD69
:102F400001A82721017002A837210170A006D9D558
:102F500001A84721417002A857214170E005D3D450
:102F6000D8E7C0468B4D0000884D000026040000C5
:102F70002646660036567600FC012020F0B585B066
:102F80000E4605460021CC4319208001864200D917
:102F900088E00720284000D184E0019103AF384643
:102FA00000F046FA3046FEF723F94049FEF706F8EE
:102FB00039788A1E0121CA41072A73D88D21CE058E
:102FC0003B49C0467A441279520097440E036B077E
:102FD0006B6B6B0B23214E06384906E08B21CE0527
:102FE000354902E045210E0632490294074601F0B8
:102FF00015FDFEF793F8044631462E4604ADE87001
:10300000384601F00BFDFEF789F86870210AA970B7
:10301000000A2870AF1CF00706D1B00711D4700762
:10302000029C24D4019C3DE03C4649208700384660
:10303000B030022104AA00F04DFF00280DD0029C00
:1030400030E0492084002046B430022104AA00F078
:1030500041FF00281ED0029C24E00221384627466A
:10306000224600F037FF0028D7D0029C1AE0492002
:1030700085002846B830022104AA00F02BFF002862
:1030800010D10835022128463A4600F023FF0028D7
:1030900008D1C7E7201D02213A4600F01BFF002897
:1030A000BDD0029C204605B0F0BDC046000048439C
:1030B000000040460000C044000040450000C045FC
:1030C00003490A68D207FCD1C2B28A617047C04680
:1030D00008911040FFF7DCFAFFF734FC1048016854
:1030E00001220A430260FEF7B3FCFFF75BF80D48CC
:1030F0000221016000F05CF900280AD00AA42046F1
:10310000FDF7BAF93220FFF73DFC00F051F9002835
:10311000F5D108A0FDF7B0F9FEF752FCFCE7C04678
:1031200004B8864000E100E0646D70206572726F43
:10313000720D0000496E697469616C697A61746925
:103140006F6E20446174612053756363656564200C
:103150000D00000070470000F0B585B00546242042
:10316000BD4E305C002803D00024204605B0F0BDE1
:10317000B07A0024E74300281DD0FE210D402840EE
:10318000317C02913074A84200D0E443307D284362
:1031900013D0707C00281ED103AB01221A7003CE1D
:1031A000C07B019008780199083EFEF715FE0028C3
:1031B00011D103980EE03C46D7E704AB002018700D
:1031C00005CEC17B10780122083EFEF705FE0028DF
:1031D00001D104987074002DC7D000F017FC0028AE
:1031E000C3D0029830743C46BFE7C046F0B597B0F4
:1031F00014460E46054610A8019011A8009014A888
:1032000012A90CAA16ABFFF73DFD002802D0012041
:1032100017B0F0BD11A80088C00502D4022017B075
:10322000F0BD0C98FDF7DCFF61210696CE05314616
:1032300001F0F4FB0B900D98FDF7D2FF314601F041
:10324000EDFB074609900E98FDF7CAFF314601F0E5
:10325000E5FB079404460F98FDF7C2FF314601F0E5
:10326000DDFB06460A9003208107384601F0D6FBB5
:103270000590314601F0D2FB07460B98014601F05C
:103280005DFB0646214601F0C9FB394601F056FBBD
:10329000FDF76AFE00F0E6FF434A444BFDF740FDB0
:1032A000FDF730F9286008942046214601F046FBDE
:1032B00007460A9901F0B2FB05463046099E3146A1
:1032C00001F0ACFB294601F039FBFDF74DFE0490FF
:1032D00003913046059901F0A1FB0546089C204664
:1032E000394601F09BFB0146284601F0EFFB7F21A8
:1032F000C90501F023FBFDF737FE02460B46049893
:10330000039901F0F7F9284A284BFDF709FDFDF76D
:10331000F9F8069908603046214601F07FFB054622
:103320000B9C20460A9E314601F078FB0146284658
:1033300001F004FB014601F001FBFDF715FE054617
:1033400006912046214601F069FB0746099801468F
:1033500001F064FB0146384601F0F0FA0746089890
:10336000014601F05BFB0146384601F0AFFB044625
:103370003046314601F052FB0146204601F0A6FBE3
:10338000FDF7F2FD02460B462846069901F0B2F918
:10339000054A064BFDF7C4FCFDF7B4F80799086031
:1033A000002017B0F0BDC0466666666666A64C4053
:1033B00080B500F057F8000601D0002080BD7820CD
:1033C00000F018FD000601D0012080BD7820FFF735
:1033D000C3FE000601D0022080BD642000F098FCEE
:1033E000000601D0032080BDFFF73EFC000601D09F
:1033F000042080BD8820FFF755FD000601D0052080
:1034000080BDFF207430FFF7EDFA000601D00620E2
:1034100080BD6420FFF710FD000601D0072080BDAD
:10342000012000F007FC0006C7D0092080BD000085
:1034300010B501460020CD4B5A7A032A0AD8D20093
:10344000064CD4400C70DB7C002B02D0044BD340E4
:103450000B7010BDC04310BD0400202002040810F2
:1034600004081020F0B587B002AB80201870614FBF
:1034700005CF817C10780122083FFEF7ADFC0026C5
:10348000F443002818D16420FFF77CFA02AB1E70C9
:1034900005CF817C107801252A46083FFEF79CFC69
:1034A000002809D105CF817D1078062202AB083FA4
:1034B000FEF762FB002802D0204607B0F0BD02A84C
:1034C000417829404279D207520FC078C007800F57
:1034D000801841186BD001292A4602D002297FD1D9
:1034E000324624203E5425203E5426203E54272098
:1034F0003E54FF20B87438745248F881FA743D7312
:10350000BC6028047E61BE61FE61386204AB182095
:10351000187005CF817910782A46083FFEF75CFCC9
:103520000028C9D104A80078C0083872B87A0028E9
:10353000C2D005A800210170787A002810D005CFEC
:10354000C1791078012205AB083FFEF745FC002841
:10355000B2D105A80078C0087872B87A0028ABD03C
:1035600006A803210170F87A03280BD005CF8178D3
:103570001078012206AB083FFEF72EFC00289BD1F5
:103580000698F872322000F0C3FB002894D1002086
:10359000FFF7E2FD00288FD10025284600F0DCFA75
:1035A000002889D1284600F025FC2C4684E705CF69
:1035B000C1781078012202AB0192083FFEF7DCFAD5
:1035C000002800D078E702A801780F2008400428DE
:1035D0000AD00028324684D11948FCF74DFF6BE72A
:1035E00005A0FCF7EDFD67E70DA0FCF745FF019A8C
:1035F00077E7C04604002020556E737570706F72B7
:1036000074656420736F6674776172652070726F81
:1036100064756374207265762025642E0A000000AC
:1036200048616C662073656E736974697669747934
:10363000207061727420666F756E642E0000000049
:103640002A5A0000FFFF0000F0B58FB006460024A4
:10365000E0430891002977D02525EB49495D0029F1
:1036600072D10292009501930390002E5CD0254602
:103670000496331B102BE44A00DB1023907A0028B9
:1036800064D00EA845702E0A0670E8B299B2079170
:103690000F18506841898F4258D800781168097E08
:1036A000022209930EABFEF797FB099BD64900282F
:1036B0004CD1224634460898861805C9417D1078B9
:1036C000DAB2069205963346FEF786FB00283DD116
:1036D000CD4A907A002839D0E0B20EA94D7008701A
:1036E000506841898F4231D800781168097E0222E2
:1036F0000EABFEF771FBC449002827D105C9417DF7
:1037000010780AAB069AFEF737FA00281ED10AA9EC
:103710000598079AFCF7C6FE002822D109982D18B3
:10372000ACB2049EB442A4D30EAB02985870000A07
:103730001870B54C05CC817E10780222083CFEF74B
:103740004BFB0028039804D00FB0F0BD03980FB0D6
:10375000F0BD0120009960540198E08400200FB072
:10376000F0BD0398401E0FB0F0BDC04604002020FD
:10377000F0B589B00025EF43282800D9F1E00646CE
:1037800000280BD001972324F24A105D01283BD07A
:10379000907C1346002818D0322117E02324ED4DE9
:1037A000285D002800D1CDE0A87C411E02468A4158
:1037B000510003AA11702221695C002900D1B5E0F3
:1037C000002800D1AEE07D20ADE03021009504AAB4
:1037D000117022211D46595C002907D0002801D014
:1037E0004D2000E04F20C04304A9087005CD017DA5
:1037F0001078012704AB3A46083DFEF7EDFA2A4659
:103800000028009D00D1175502A820210170012E2B
:1038100019D102A800214170907A00282FD005A864
:1038200006210170D07A062829D010681446526803
:1038300081781078012205ABFEF7CEFA22460028E7
:103840001DD105981AE0052E33D802A80121417038
:10385000907A002813D006A806210170D07A062895
:103860000DD010681446526881781078012206AB9A
:10387000FEF7B2FA2246002801D10698D072019FC5
:1038800002AB58788001C01D587010681446526809
:10389000817C10780222FEF79FFA002861D1012076
:1038A000207525730820A0722846FFF755FC2F4687
:1038B00057E0142E1AD802A802214170907A0028ED
:1038C000019FDDD007A805210170D07A0528D7D047
:1038D00010681446526881781078012207ABFEF711
:1038E0007BFA22460028CBD1079819E002A80321D1
:1038F0004170907A0028019FC2D008A8042101706D
:10390000D07A0428BCD010681446526881781078A8
:10391000012208ABFEF760FA22460028B0D10898D1
:10392000D072ADE77F20C04303A9087005CD017DAB
:103930001078012203AB083DFEF74EFA002801D1B2
:10394000002028550720000202AB188005CD817C9D
:1039500010780222083DFEF73FFA002801D1002727
:103960002F75384609B0F0BDF0B585B00646242065
:10397000E64F385C0024E543002842D0B87A00289E
:103980003FD00291039205CF817A1078022204ABD6
:10399000083FFEF7F1F8002833D104A841780078F9
:1039A00000024218B24203D200200399087028E0B6
:1039B0007868418849088A4201920DD900783968AF
:1039C000497C012204ABFEF7D7F8002819D104A8DE
:1039D0000078C00612D4786800783968C97AF2B2E3
:1039E000029BFEF7C9F800280BD10198314600F080
:1039F000A3FA401E03990870254602E000F006F87D
:103A00006D1E284605B0F0BD0400202070B582B0C0
:103A10000026F443F64DA87A00281ED001AB1E7094
:103A200005CDC17B10780122083DFEF7D5F90028AD
:103A300013D105CD41791078012201AB083DFEF785
:103A4000CBF9002809D105CD01791078012201AB0D
:103A5000083DFEF7C1F9002802D0204602B070BD33
:103A60002420285C002813D001AB0C20187005CD51
:103A7000017910780122083DFEF7AEF90028ECD15B
:103A80003220FEF77FFFA87AC0073AD01F2039E026
:103A900001AB0420187005CD017910780122083D92
:103AA000FEF79AF90028D8D1A97A4020C907014623
:103AB00000D06021AA7C002A00D0014601AB197019
:103AC00005CD017910780122083DFEF785F900281F
:103AD000C3D13220FEF756FF687C411E884101ABFE
:103AE000187005CDC17B10780122083DFEF774F9EE
:103AF0000028B2D105CD41791078083501222B4636
:103B000021E03F20C04301AB187005CD017910784A
:103B10000122083DFEF760F900289ED1687C411E15
:103B20008841400001AB187005CDC17B107801229F
:103B3000083DFEF751F900288FD101AB1E7005CD6D
:103B4000417910780122FEF747F9002885D13446E3
:103B500083E7C04604002020F0B581B00446F54E4E
:103B6000B07CA04201D1002560E005CE017910783B
:103B700001226B46083EFDF7FFFF0027FD43002CA6
:103B800019D0002852D16B461878DF2101401970F6
:103B900005CE017910780122083EFEF71DF90028B4
:103BA00044D10320FEF7EEFE2220305C002826D010
:103BB0007D20C04324E0002838D16B461878DF21EF
:103BC0000140B07AC007800E0818187005CE017940
:103BD00010780122083EFEF7FFF8002826D10320C6
:103BE000FEF7D0FE2220305C411E02468A41D10100
:103BF0006A461170002805D07F20C04302E00220F1
:103C0000694608702321715C002903D030210843E4
:103C10006946087005CE017D107801226B46083E8A
:103C2000FEF7DAF8002801D1B4743D46284601B009
:103C3000F0BDC046F0B585B02427BE4EF15D81428F
:103C400001D100245FE0002809D02520305C002449
:103C5000002825D0002925D002AB1C7028E00029BF
:103C600002D1B07A00280DD004AB0020187005CE28
:103C7000C17B10780122083EFEF7AEF8002801D182
:103C800004987074307C01AB187070680078232140
:103C90000122FEF7A1F80024F455FFF7B7FE32E049
:103CA000E44330E0B07A00280DD002AB0020187059
:103CB00005CEC17B10780122083EFEF78DF8002862
:103CC00001D1029870742046FFF746FFF08C00F097
:103CD0001FF801AB1C7070680078232101252A466B
:103CE000FEF77AF8F55503AB0220187005CEC17BBC
:103CF00010782A46083EFEF76FF8002801D1039895
:103D00007074FFF783FE204605B0F0BD040020204C
:103D1000F0B583B0054687490026F443887A002829
:103D200063D02420085C00285FD1087D00280BD0D8
:103D3000681E80B2272804D8E8B2FFF719FD344680
:103D400053E00020FFF714FD0096E8087D21CE0027
:103D50007D2800D33546042D00D804253046294659
:103D600000F0EAF8401E01AB1870724D05CD4178A5
:103D7000107801273A46083DFEF72EF8002834D186
:103D800001A80478611C304600F0D6F8E881A87AD2
:103D9000002829D0012C01D802A815E0042C02D853
:103DA00002A8022710E00A2C02D802A803270BE081
:103DB000182C02D802A8042706E0312C02D802A849
:103DC000052701E002A806270770E87AB8420BD061
:103DD00005CD81781078012202AB083DFDF7FCFF8C
:103DE000002801D10298E872009C204603B0F0BD83
:103DF0000400202070B582B004464006400F02D077
:103E00006846012105E06846002C01D0002100E051
:103E100040210170474E05CE817C107801256B460C
:103E20002A46083EFDF7D8FF002803D00020B072D4
:103E3000C54328E0200904218143A20600D4891C3F
:103E4000284040186840210700D438306B46197864
:103E50001870BF200840307305CEC17C10782A4608
:103E6000083EFDF7B9FF002803D00020B072C5431B
:103E700009E008202043082808D100253575B472D0
:103E80003220FEF77FFD284602B070BD2325705D0D
:103E90000028F2D0B07C411E02468A41510001AA9E
:103EA00011702221715C002907D0002801D07D20EB
:103EB00000E07F20C04301A9087005CE017D107885
:103EC000012201AB083EFDF787FF0028D5D1002075
:103ED0007055D2E7F0B581B00027FC43002A25D009
:103EE0000E46144B997A002920D015466946487031
:103EF000020A0A70C0B2811958684289914215D8E5
:103F000000781968097E02226B46FDF765FF0028DC
:103F10000CD1084905C9417D1078F2B22B46FDF756
:103F20005BFF002801D1044600E0FC43204601B0BD
:103F3000F0BDC0460400202043088B421AD3002263
:103F400003098B4279D3030A8B425ED3030B8B4266
:103F500042D3030C8B4227D30902FF2212BA030C6F
:103F60008B4202D31212090203D0030B8B4233D3CC
:103F70001AE0D3E0411A8041401C704703460B43CE
:103F800071D443088B42F5D3002203098B4254D3EA
:103F9000030A8B4239D3030B8B421DD3030C8B4294
:103FA00002D394466EE0090AC30B8B4201D3CB03C4
:103FB000C01A5241830B8B4201D38B03C01A52416A
:103FC000430B8B4201D34B03C01A5241030B8B426C
:103FD00001D30B03C01A5241C30A8B4201D3CB0257
:103FE000C01A5241830A8B4201D38B02C01A52413C
:103FF000430A8B4201D34B02C01A5241030A8B423F
:1040000001D30B02C01A5241CDD2C3098B4201D356
:10401000CB01C01A524183098B4201D38B01C01AD4
:10402000524143098B4201D34B01C01A524103094B
:104030008B4201D30B01C01A5241C3088B4201D3FA
:10404000CB00C01A524183088B4201D38B00C01AA7
:10405000524143088B4201D34B00C01A5241411ACE
:10406000524110007047CA0F00D04942031000D3DC
:104070004042534000229C4603098B422DD3030A41
:104080008B4212D38901FC2212BA030A8B420CD351
:10409000890192118B4208D3890192118B4204D37A
:1040A000890137D0921100E08909C3098B4201D3FD
:1040B000CB01C01A524183098B4201D38B01C01A34
:1040C000524143098B4201D34B01C01A52410309AB
:1040D0008B4201D30B01C01A5241C3088B4201D35A
:1040E000CB00C01A524183088B4201D38B00C01A07
:1040F0005241D9D243088B4201D34B00C01A5241DE
:10410000411A00D201465241104663465B1000D36B
:104110004042704763465B1000D3404201B5002126
:10412000004201D0C9430846C046C04602BD000057
:104130004900CA020243100000D004204A0D01D0F9
:1041400001221043044A490D914201D10221084342
:10415000012800D105207047FF070000F8B504468C
:104160004F1EC8000838211815461E4608684968C1
:104170003A4606239A4310D02A463346FCF7D0FD30
:104180003A46D200083AA3181A687F1E5B68FCF70B
:1041900073FB06223B469343EED1022F23D0042F1C
:1041A00011D0062F2FD12A463346FCF7B9FDE36A1A
:1041B000A26AFCF761FB2A463346FCF7B1FD636A4D
:1041C000226AFCF759FB2A463346FCF7A9FDE3694E
:1041D000A269FCF751FB2A463346FCF7A1FD63694F
:1041E0002269FCF749FB2A463346FCF799FDE36850
:1041F000A268FCF741FB2A463346FCF791FD636851
:104200002268FCF739FBF8BD10B50122FDF796F8DE
:1042100010BD10B5FCF730FB10BD002210B51346E1
:1042200010461146FCF758FB10BD0000034A10B5BC
:1042300000201107FDF782F810BD000001FDFFFF0F
:1042400010B500F0C1FBEFF30080400001D5012064
:1042500010BD002010BD30380A2801D2012070475F
:1042600000207047F0B504464F008E488FB07F089D
:104270000D460D91874228DB4042381820430CD070
:104280008948874203DC874218D1002C16D020468B
:104290002946FFF7B9FF0FB0F0BD844A844B204692
:1042A0002946FCF73DFD07460E46824A824B2046D2
:1042B0002946FCF735FD3A46334649E00120FCF734
:1042C0009FFFFFF7AAFF0FB0F0BD7C48874243DA9B
:1042D000F920800587420BDA20462946FFF728FFA0
:1042E000042801D1FFF7A2FF204629460FB0F0BDF8
:1042F00022462B4610462946FCF712FD064602468A
:104300006F480F460B4606217844FFF727FF3246D9
:104310003B46FCF705FD06906A48079132463B464E
:1043200004217844FFF71AFF32463B46FCF7F8FCBD
:1043300000225C4BFCF7A0FA02460B460799069850
:10434000FCF7CAFA22462B46FCF7EAFC22462B462B
:10435000FCF792FA0FB0F0BD2046524C69004908B4
:1043600000222346FCF7A0FA0022D243FCF7E6FF26
:104370000546024654480E460B4606217844FFF790
:10438000EDFE2A463346FCF7CBFC06904F480791DA
:104390002A46334604217844FFF7E0FE2A46334696
:1043A000FCF7BEFC00222346FCF766FA0591049058
:1043B0002846314600F06CFA089045480C46874282
:1043C00019DB059B049A07990698FCF785FA0246C3
:1043D0000B4621460898FCF7A3FC2346089AFCF7F5
:1043E0004BFA0122FCF7AAFF304A314BFCF751FA95
:1043F000304A314B4AE000273A460B460898FCF712
:104400003BFA3A4623460A910E9010461946FCF7AD
:1044100087FC2A463346FCF747FA0A9B0E9AFCF7BC
:104420005BFA05460E46059B049A07990698FCF729
:1044300053FA00910490012228463146FCF77EFF92
:104440001A4A1B4BFCF730FA0E460546012221465C
:104450000898FCF773FF009B049AFCF761FC2A465E
:104460003346FCF716FA05460E4601223846214629
:10447000FCF764FF0F4C174F22463B46FCF714FA3B
:104480002A463346FCF710FA22463B46FCF70CFA64
:104490000D9A002A00DD5DE70122D20751400FB0DE
:1044A000F0BD00000000F03F0000F07F075C143317
:1044B00026A6913C182D4454FB21F93F0000E03F13
:1044C0008C090000A2090000180900002E09000054
:1044D0003333EF3FFB21E93FF0B589B004460D4689
:1044E0004800069172494008884215DB71498842AC
:1044F00003DC884207D1002C05D020462946FFF76F
:1045000083FE09B0F0BD6C48002D02DD6B4909B097
:10451000F0BD6B4909B0F0BD6A49884211DA6A49B9
:1045200088420BDA20462946FFF702FE042801D113
:10453000FFF77CFE2046294609B0F0BD0026F64371
:104540005DE06D0061496D08884232DA6049884259
:1045500019DA0026012332469B0720462946FCF73C
:104560008BF907460191012220462946FCF7E6FE19
:104570000022584BFCF78DF93A46019BFCF7ACF949
:1045800004460D463BE001260022524B20462946B8
:10459000FCF772F90746009100224E4B204629464F
:1045A000FCF777F93A46009BFCF796F904460D466E
:1045B00025E04949884219DA02260022474B204665
:1045C0002946FCF7ADFB0022424BFCF755F90746A4
:1045D00002910022414B20462946FCF75AF93A46FF
:1045E000029BFCF779F904460D4608E003262246B3
:1045F0002B4600203A49FCF76FF904460D46224647
:104600002B4610461946FCF78BFB07460B46024625
:104610000191FCF785FB0246029032480B4603915C
:1046200006217844FFF79AFD3A46019BFCF778FB98
:1046300000902D48019105217844039B029AFFF7D1
:104640008DFD039B029AFCF76BFB02460B4601991A
:104650000098002E0BDAFCF70FF922462B46FCF7E8
:104660005FFB22462B46FCF71FF909B0F0BDFCF7B3
:1046700003F922462B46FCF753FB1C4AF6007A440A
:1046800093191A685B68FCF704F922462B46FCF77D
:1046900000F9174A7A4493191A685B68FCF704F921
:1046A000069A002AE1DA0122D207514009B0F0BD92
:1046B000000010440000F07F182D4454FB21F93F06
:1046C000FB21F9BF0000DC3F0000203E0000F33F6B
:1046D0000000E63F0000F03F008003400000F83F8C
:1046E0000000F0BF2A070000EC060000860600006C
:1046F00050060000F0B51FB4039A029D53006E42AD
:104700002E439446F40F5B084A00574E52081C4350
:104710008E46B44205D847420743FC0F1443B442C7
:1047200005D92A466346FFF774FD05B0F0BD4F4E2C
:1047300066442E430AD0CC0F6646B61702273E4089
:10474000264304464A4F144304D00BE0FFF7C4FE4F
:1047500005B0F0BD002EFBD0012EF9D0022E32D0D4
:10476000032E34D01C462C430BD03F4CA34216D111
:10477000A2420AD1012189078B438A431146039340
:104780000DE0704600280FDB25E03A4D7D44002EF9
:104790000ED0012E10D0022E15D0032E17D0A2421B
:1047A0001DD17046002816DA3148334905B0F0BDF6
:1047B0006968286805B0F0BD01226968D2072868D9
:1047C000514005B0F0BD38462C4905B0F0BD384623
:1047D0002B4905B0F0BD26482A4905B0F0BDD21AD4
:1047E00012153C2A02DD224D264C12E06346002BB6
:1047F00005DA3C23DA4202DA00252C4609E0039B65
:10480000029AFCF769F849004908FFF765FE05467A
:104810000C46002E12D0012E0DD01B4A1B4B022E2F
:104820002846214618D0FCF734F83A46134BFCF7DB
:1048300030F805B0F0BD0120C00744400022134607
:104840002846214600F048F802D10220FCF7D8FCA7
:104850002846214605B0F0BDFCF71BF83A46074B49
:10486000FCF722F805B0F0BD0000F07F000010C09A
:10487000182D4454F0050000FB21F9BFFB2109402D
:10488000FB2109C0FB21F93F075C143326A6A13C9C
:10489000F8B506460C46FCF7F1FD051E0F4600D0A4
:1048A0000120014349000B484908411AC90F0DD0A6
:1048B000002E01D0012100E000210C4361004908D5
:1048C000401AC00F02D10120FCF79AFC2846394655
:1048D000F8BD00000000F07F70B501252D050C002B
:1048E0001C4310D4EC4206D4AC420AD4994200D006
:1048F00070BD904270BDE94217D4EB4215D4994285
:1049000070BD894270BDEC4206D5AC42F9D58B42F0
:1049100000D070BD824270BD6D004C00EC4204D2EC
:104920005C00EC4201D28B4270BD034C30B4FCF70A
:1049300055FD30BC70BD00BF1900120470B50125D3
:10494000ED0704004C4020D4441A01D2001B091981
:10495000C60D4B00F2B2FF2A29D01B0E2CD000024C
:104960000C0228432C43D31ADC40051910D2280A24
:1049700002D3401C6D0611D0761EF6058019FF2A61
:1049800000DA70BDC00DC00570BD694000F0A4F82C
:1049900001200543C541521C761CE8E764089C4091
:1049A000C90161408900E7D10124A043E4E71B0E5F
:1049B000440200D0034870BD002AFCD1C00FC007DC
:1049C00070BD00BF0000C07F0123DB0502000A4369
:1049D0000DD4DA4203D49A4207D488427047D842B1
:1049E00014D4D94212D48842704780427047DA42C8
:1049F00003D59A42F9D5814270475B004200DA4202
:104A000004D24A00DA4201D28142704710B5024A0C
:104A1000FCF7B4FD10BD00BF0900120470B54200E0
:104A200064414B005C41120E39D01B0E38D0FF2A76
:104A30003CD0FF2B3AD0D2187F3A40024902400ABC
:104A4000490A4518ED0106004E43000A090A484389
:104A50000104731A4019190C4318990F04D05B080C
:104A6000012149075B1A521CD80904D3401CF503E5
:104A700001D19D0607D0FF2A08D2D50506D0E4074C
:104A80002043401970BD0125A843F4E7002A01DC4A
:104A9000E00770BD2402FF202043C00570BD1B0E3F
:104AA000FF2A03D0FF2B01D0E00770BDFF2636069A
:104AB0004500B54206D84D00B54203D8D218FF2AAA
:104AC00000D0E7E7004870BD0000C07F70B5012549
:104AD000ED0704004C4022D4441A02D26C40001B63
:104AE0000919C60D4B00F2B2FF2A4BD01B0E50D055
:104AF00000020C02A8432C43D31ADC40051B05D549
:104B0000AD0019D36D08761E521E37D0F605280A5F
:104B100001D2801970BD70416D0603D070BD69402F
:104B2000FFF712FF9C4009026140490001D0401E7E
:104B300070BD0124A04370BD6D081DD001202B0C59
:104B400001D12D0410302B0E01D12D0208302B0F76
:104B500001D12D01001DAB0F01D1AD00801CEB0F69
:104B600001D16D00401C361A121A6D00680AF50555
:104B70004019012A02DB70BD002070BDC036300A2A
:104B8000C00770BD1B0E440201D1FF2B00D10248AB
:104B900070BD002AF0D070BD0000C07F30313233CC
:104BA0003435363738394142434445464030580061
:104BB0003031323334353637383961626364656693
:104BC00040307800040000080000000000000002EF
:104BD000000100001080807F7E7D7C7B7A79787771
:104BE0007676757473727171706F6E6E6D6C6C6BBE
:104BF0006A6A69686867666665646463636261615E
:104C000060605F5F5E5E5D5D5C5C5B5B5A5A5959DC
:104C10005858575756565555555454535352525247
:104C200051515050504F4F4F4E4E4D4D4D4C4C4C9E
:104C30004B4B4B4A4A4A49494948484847474747E6
:104C40004646464545454444444443434343424223
:104C500042424141418182838485868788898B8C49
:104C60008D8E8F919293959697999A9C9D9FA0A2D5
:104C7000A3A5A7A8AAACAEB0B2B3B5B7B9BCBEC025
:104C8000C2C5C7C9CCCED1D4D7D9DCDFE2E6E9ECC6
:104C9000F0F3F7FAFE000000555555555555C53F40
:104CA0007D6FEB0312D6D4BF5544880E55C1C93F62
:104CB0003B8F68B52882A4BF88B20175E0EF493FF9
:104CC00009F7FD0DE13D023F4B2D8A1C273A03C039
:104CD000C88A599CE52A004059018D1B6C06E6BF25
:104CE00082922EB1C5B8B33F4FBB610567ACDD3FC3
:104CF000182D4454FB21E93F9BF681D20B73EF3F03
:104D0000182D4454FB21F93FE2652F227F2B7A3C7A
:104D1000075C143326A6813CBDCBF07A8807703C33
:104D2000075C143326A6913CC4EB98999999C9BFA6
:104D3000711623FEC671BCBF6D9A74AFF2B0B3BFDB
:104D40009AFDDE522DDEADBF2F6C6A2C44B4A2BF9B
:104D50000D5555555555D53FFF8300922449C23F07
:104D60006E204CC5CD45B73F513DD0A0660DB13F3B
:104D7000EB0D76244B7BA93F11DA22E33AAD903F4D
:104D800000000000000000000CC92C4CCD6C00009D
:104D90007000000000240000000200030000006515
:104DA0000054FFEF0000FA80000B12820001030C98
:104DB00030C30E8C8CE914D5400213710F8E3883EA
:104DC000F8833000F883258EF8833000F883FFFFE6
:104DD000FFFF0FFEA9D6240004001A8279A100006B
:104DE000003CFFFF00000010000038836FA2003E6F
:104DF00003304000000002CAE3093E8000002000AA
:104E00000000000000004000000060000000000CF6
:104E10000000000C186E000006920A16C0DFFFFFAB
:104E20000256FD8CD377FFE1C496E0C5BEAA000010
:104E30000000FFFF0B2B0000165700000359400035
:104E4000000000001DFA00026C1D000000003FFF82
:104E5000DFEB003EB3B6000D227800002F3C0000CF
:104E60000000001942B5000039A20000B365D90E58
:104E70009FC91DCF4C3430000000500000003BB6ED
:104E80007AE80064000000C8000000000000100084
:104E900000001000FA921000225E000D229F000117
:104EA000000000320000FF46000063D40000100044
:104EB000000004D6000004CC000004CC0000000078
:104EC000107200000040000000000000000000061A
:104ED0000002000500070000000000640000000060
:104EE0000000000000050005006400200000000034
:104EF000000000000000000040000000030000006F
:104F00000032F8980000FF650000830F0000FF9B4F
:104F1000FC00000000000000000000000000000095
:104F20000000000000000000000000000000000081
:104F30000000000000000000000000001000400021
:104F40000000000000060000B26A0002000000013C
:104F5000FB830068000000D9FC007CF1FF830000A7
:104F6000000000650000006403E800640028000001
:104F700000250000000016A0000000001000000046
:104F80001000002F0000000001F4000010000028B5
:104F90000000FFFF4581FFFFFA72000000000000E3
:104FA0000000004400050005BAC6004778A20000D2
:104FB00000010000000000000600000000140000D6
:104FC000254D002F706D000005AE000C02D00000D2
:104FD0000000000000000000000000000000001BB6
:104FE000000000000000000000000000000000645D
:104FF00000000008000000000000000000000000A9
:1050000000000000000000000000000000000000A0
:105010000000000000000000000000000000000090
:105020000000000000000000000000000000000080
:105030000000000000000000000000000000000070
:105040000000000000000000000000000000001B45
:1050500000000000000000000000000E000E000034
:105060000AC70004000000000032FFFFFF9C0000A0
:105070000B2B000000020000000100000064FFE5AF
:105080000000000000000000000000000000000020
:10509000000100000000000100000000000000010D
:1050A00080000001800000018000002426D3000061
:1050B000000000000000000600100096003C000008
:1050C00000000000000000000000000000000C0ACA
:1050D0004E68CDCF770950166759C619CE820000A9
:1050E00000000000000000000000000000000000C0
:1050F00000000000000017D784000300000000003B
:10510000000000000000C7938F9D1E1B1C190000AB
:10511000000000000000000000000000000000008F
:10512000000000000000020318850000400000009D
:105130000003000000030000000000000000400029
:10514000000000000000000000000000000000005F
:10515000000000000000000000000000000000004F
:10516000000000000000000000000000000000003F
:105170000000677DDF7E72902E554CF6E6880000B9
:105180000000000000000000000000000000D8DC6B
:10519000B4B8B0D8B9ABF3F8FAB3B7BB8E9EAEF1E2
:1051A00032F51BF1B4B8B08097F1A9DFDFDFAADFD9
:1051B000DFDFF2AAC5CDC7A90CC92C97F1A98926B2
:1051C0004666B28999A92D557DB0B08AA896365603
:1051D00076F1BAA3B4B280C0B8A89711B28398BAD6
:1051E000A3F0240844106418B2B9B49883F1A32939
:1051F000557DBAB5B1A38393F0002850F5B2B6AA95
:10520000839328547CF1B9A3829361BAA2DADEDFDA
:10521000DB819AB9AEF5606870F1DABAA2DFD9BA6B
:10522000A2FAB9A38292DB31BAA2D9BAA2F8DF8579
:10523000A4D0C1BBAD83C2C5C7B8A2DFDFDFBAA0AF
:10524000DFDFDFD8D8F1B8AAB38DB4980D355DB2E1
:10525000B6BAAF8C96198F9FA70E161EB49AB8AA2D
:10526000872C547CBAA4B08AB691325676B2849414
:10527000A4C808CDD8B8B4B0F19982A82D557D98AE
:10528000A80E161EA22C547C92A4F02C5078F18407
:10529000A898C4CDFCD80DDBA8FC2DF3D9BAA6F88C
:1052A000DABAA6DED8BAB2B68696A6D0F3C841DA84
:1052B000A6C8F8D8B0B4B882A892F52C548898F152
:1052C00035D9F418D8F1A2D0F8F9A884D9C7DFF8F5
:1052D000F883C5DADF69DF83C1D8F40114F1A8824D
:1052E0004EA884F311D182F5D992289788F109F458
:1052F0001C1CD884A8F3C0F9D1D99782F129F40DE8
:10530000D8F3F9F9D1D982F4C203D8DEDF1AD8F183
:10531000A2FAF9A88498D9C7DFF8F8F883C7DADFCA
:1053200069DFF883C3D8F40114F198A8822EA88409
:10533000F311D182F5D992509788F109F41CD884E1
:10534000A8F3C0F8F9D1D99782F149F40DD8F3F94F
:10535000F9D1D982F4C403D8DEDFD8F1AD8898CC76
:10536000A809F9D98292A8F57CF1883ACF944A6EBF
:1053700098DB6931DAADF2DEF9D88795A8F221D150
:10538000DAA5F9F417D9F1AE8ED0C0C3AE82C684C7
:10539000C3A88595C8A588F2C0F1F4010EF18E9ED0
:1053A000A8C63E56F554F18872F40115F19845856A
:1053B0006EF58E9E0488F142985A8E9E068869F496
:1053C000011CF1981E1108D0F504F11E97020298F5
:1053D0003625DBF9D985A5F3C1DA85A5F3DFD885B4
:1053E00095A8F309DAA5FAD88292A8F578F1881A77
:1053F000849F26889821DAF41DF3D8879F39D1AF8E
:10540000D9DFDFFBF9F40CF3D8FAD0F8DAF9F9D0E8
:10541000DFD9F9D8F40BD8F3879F39D1AFD9DFDFC3
:10542000F41DF3D8FAFCA869F9F9AFD0DADEFAD99D
:10543000F88F9FA8F1CCF398DB45D9AFDFD0F8D82F
:10544000F18F9FA8CAF38809DAAF8FCBF8D8F2ADF5
:10545000978D0CD9A5DFF9BAA6F3FAF412F2D89514
:105460000DD1D9BAA6F3FADAA5F2C1BAA6F3DFD8FC
:10547000F1BAB2B68696A6D0CAF349DAA6CBF8D866
:10548000B0B4B8D8AD84F2C0DFF18FCBC3A8B2B648
:105490008696C8C1CBC3F3B0B48898A821DB718DC0
:1054A0009D71859521D9ADF2FAD88597A828D9F4B0
:1054B00008D8F28D29DAF405D9F285A4C2F2D8A869
:1054C0008D9401D1D9F411F2D88721D8F40AD8F2F9
:1054D0008498A8C801D1D9F411D8F3A4C8BBAFD01F
:1054E000F2DEF8F8F8F8F8F8F8F8D8F1B8F6B5B947
:1054F000B08A95A3DE3CA3D9F8D85CA3D9F8D87CB0
:10550000A3D9F8D8F8F9D1A5D9DFDAFAD8B185301E
:10551000F7D9DED8F830ADDADED8F2B48C99A32D05
:10552000557DA083DFDFDFB591A0F629D9FBD8A098
:10553000FC29D9FAD8A0D051D9F8D8FC51D9F9D83A
:1055400079D9FBD8A0D0FC79D9FAD8A1F9F9F9F921
:10555000F9A0DADFDFDFD8A1F8F8F8F8F8ACDEF868
:10556000ADDE8393AC2C547CF1A8DFDFDFF69D2CFD
:10557000DAA0DFD9FADB2DF8D8A850DAA0D0DED92E
:10558000D0F8F8F8DB55F8D8A878DAA0D0DFD9D071
:10559000FAF8F8F8F8DB7DF8D89CA88CF530DB3801
:1055A000D9D0DEDFA0D0DEDFD8A848DB58D9DFD0E5
:1055B000DEA0DFD0DED8A868DB70D9DFDFA0DFDFB8
:1055C000D8F1A888902C547C98A8D05C38D1DAF215
:1055D000AE8CDFF9D8B087A8C1C1B188A8C6F9F9E7
:1055E000DA36D8A8F9DA36D8A8F9DA36D8A8F9DA46
:1055F00036D8A8F9DA36D8F78D9DADF818DAF2AEBC
:10560000DFD8F7ADFA30D9A4DEF9D8F2AEDEFAF978
:1056100083A7D9C3C5C7F1889BA77AADF7DEDFA4FE
:10562000F8849408A797F300AEF29819A488C6A34B
:105630009488F632DFF28393DB09D9F2AADFD8D857
:10564000AEF8F9D1DAF3A4DEA7F1889B7AD8F38417
:1056500094AE19F9DAAAF1DFD8A881C0C3C5C7A3EF
:105660009283F628ADDED9F8D8A350ADD9F8D8A3E7
:1056700078ADD9F8D8F8F9D1A1DADEC3C5C7D8A179
:105680008194F818F2B089ACC3C5C7F1D8B8B4B0EA
:105690009786A8319B069907AB9728889BF00C202A
:1056A0001440B0B4B8F0A88A9A285078B79BA829BB
:1056B0005179247059446938644831F1BBAB880092
:1056C0002C547CF0B38BB8A804285078F1B088B47F
:1056D0009726A85998BBABB38B02264666B0B8F0A4
:1056E0008A9CA82951798B2951798A2470598B2059
:1056F00058718A4469388B3940688A6448318B30E4
:10570000496088F1AC002C547CF08CA804285078B7
:10571000F1889726A85998AC8C02264666F0899C99
:10572000A8295179247059446938644831A98809F5
:10573000205970AB11384069A8193148608CA83CD9
:10574000415C207C00F187981986A86E767EA99925
:10575000882D557DD8B1B5B9A3DFDFDFAED0DFAA84
:10576000D0DEF2ABF8F9D9B087C4AAF1DFDFBBAF66
:10577000DFDFB9D8B1F1A3978E60DFB084F2C8F84B
:10578000F9D9DED89385F14AB183A308B5839A0885
:1057900010B79F10D8F1B0BAAEB08AC2B2B68E9E22
:1057A000F1FBD9F41DD8F9D90CF1D8F8F8AD61D9CD
:1057B000AEFBD8F40CF1D8F8F8AD19D9AEFBDFD8B0
:1057C000F416F1D8F8AD8D61D9F4F4ACF59C9C8D4C
:1057D000DF2BBAB6AEFAF8F40BD8F1AED0F8AD5173
:1057E000DAAEFAF8F1D8B9B1B6A3839C08B9B1839F
:1057F0009AB5AAC0FD3083B79F10B58B93F2020211
:10580000D1ABDADED8F1B080BAABC0C3B284C1C3C9
:10581000D8B1B9F38BA391B609B4D9ABDEB0879CEC
:10582000B9A3DDF1B38B8B8B8B8BB087A3A3A3A321
:10583000B28BB69BF2A3A3A3A3A3A3A3A3A3A3F199
:10584000B087B59AA3F39BA3A3DCBAACDFB9A3A33B
:10585000A3A3A3A3A3A3A3A3A3A3A3A3A3A3D8D8AE
:10586000D8BBB3B7F1AAF9DAFFD9809AAA28B480D5
:1058700098A720B79787A86688F07951F1902C8770
:105880000CA781976293F071716085940129517919
:1058900090A5F1284C6C870C95188578A3839028E7
:1058A0004C6C886CD8F3A28200F210A8921980A2E6
:1058B000F2D926D8F188A84DD948D896A83980D9E8
:1058C0003CD89580A839A68698D92CDA87A72CD8F9
:1058D000A8899519A980D938D8A88939A980DA3C2E
:1058E000D8A82EA83990D90CD8A8953198D90CD819
:1058F000A809D9FFD801DAFFD89539A9DA26FFD847
:1059000090A80D8999A810809821DA2ED88999A895
:105910003180DA2ED8A886963180DA2ED8A8873141
:1059200080DA2ED8A88292F34180F1D92ED8A882AD
:10593000F31980F1D92ED882ACF3C0A28022F1A64F
:105940002EA72EA92298A829DAACDEFFD8A2F22A27
:10595000F1A92E8292A8F23180A696F1D900AC8CE2
:105960009C0C30ACDED0DEFFD88C9CACD010ACDE12
:105970008092A2F24C82A8F1CAF235F19688A6D99B
:1059800000D8F1FF08070000A00F00000001000090
:1059900008070000A00F0000000100000807FF003A
:1059A000020000000C0300000100000000000000E5
:1059B000000000000400000018000000003000009B
:1059C000080000001800000000300000680000041B
:1059D00076005401F7FD000175191A0C6A231B1C8F
:1059E0001F207274433B4138393A6B6C376F062481
:1059F0006D6E706D70753D25640D0A004D50553605
:105A0000303530204944203D2025780D0A00E6A39A
:105A100080E6B58BE4B88DE588B0204D5055363022
:105A2000353020E6A8A1E59D970050726F6475633C
:105A300074204944207265616420617320302069BC
:105A40006E6469636174657320646576696365205B
:105A500069732065697468657220696E636F6D7023
:105A6000617469626C65206F7220616E204D5055C3
:105A7000333035302E0000008300000000080000A5
:105A80000001001832000500000020410000D24251
:105A9000295C0F3E9A99993E3333733F295C0F3E40
:105AA000C05A000000002020300000000801000063
:105AB000F05A000030002020C80400002801000037
:105AC000C4090000D8590000CC59000000000000B3
:105AD00000000000000000000000000000000000C6
