:020000040000FA
:10000000F8042020A9010000AD010000AF010000AC
:1000100000000000000000000000000000000000E0
:10002000000000000000000000000000B10100001E
:100030000000000000000000B3010000B501000056
:10004000B70100009D270000B7010000B7010000C4
:10005000B7010000B7010000B7010000B7010000C0
:1000600000000000B7010000B70100000000000020
:1000700000000000F1360000B7010000B7010000E9
:10008000B7010000B7010000B7010000B701000090
:1000900069360000B7010000000000000000000009
:1000A000B7010000B70100000000000000000000E0
:1000B000B701000000000000B7010000B701000018
:1000C00000F002F800F061F80CA030C808382418DD
:1000D0002D18671EA246AB4654465D46AC4201D180
:1000E00000F053F87E460F3EB6460FCC0126334251
:1000F00000D0FB1A3343A246AB461847A468000061
:10010000C468000000000000103A02D378C878C12B
:10011000FAD8520701D330C830C101D504680C6049
:100120007047000000000000002300240025002686
:10013000103A01D378C1FBD8520700D330C100D5A3
:100140000B60704710B5662902D105F051FC10BD57
:10015000642902D100F09EF810BD782902D100F088
:10016000CFF810BD732902D101F0CFFB10BD0020E4
:1001700010BD1FB501F026FC04000020002105F091
:10018000BFFAE0601FBD10B510BD02F0F3F81146D4
:10019000FFF7EFFF03F09AFE02F00BF903B4FFF74D
:1001A000F2FF03BC03F0C8FA06480047FEE7FEE78B
:1001B000FEE7FEE7FEE7FEE703480449044A054B75
:1001C00070470000C1000000F8022020F804202041
:1001D000F8032020F80320200FB4054910B503AA26
:1001E000029801F097FB10BC08BC04B0184700004F
:1001F0009C01202070B5044685690068C10601D5C0
:10020000302600E02026C00707D070BD6268304667
:10021000A1689047206A401C20626D1EF6D570BD13
:1002200070B5044685690078C00707D170BD626863
:10023000A16820209047206A401C20626D1EF6D5E0
:1002400070BD70B50C460546012A05D02878800699
:1002500000D5EA69002302E0012305E05B1C93421C
:1002600002D2E05C0028F9D1A869E618C01AA8619A
:10027000286AC01828622846FFF7BCFF04E06A68B5
:100280002078A968641C9047B442F8D32846FFF749
:10029000C7FF70BDF7B5002575291068009914A631
:1002A00011D0C046C046002802DA404211A608E03C
:1002B000009909688A0701D50FA602E0490704D50D
:1002C0000EA6012501E0C046C046009F0024243749
:1002D00004E001F033FB30313955641C0028F8D1BB
:1002E0002B4632462146009801F09AF8FEBD0000E8
:1002F000000000002D0000002B0000002000000086
:1003000070B504460D4621461068C046C046218897
:10031000090502D50F4A7A4402E00E4A7A440E32A9
:1003200023460021243305E006070009360F965DB9
:100330005E54491C0028F7D120780023000705D51A
:10034000702D03D0002901D002231132204601F084
:1003500067F870BDE6560000F3B50446002081B092
:1003600020622046E168884700287DD0252802D0F9
:100370006268A16883E0454F00257F442046E1681C
:1003800088472028064608DB312E06D2B8192038C7
:100390000078002801D00543F0E7A80701D5042024
:1003A00085430020E0610746A0612A2E0AD030462E
:1003B00004F065FE002827D0B8000019303E0090F8
:1003C000866119E00298BA00121902C89161029080
:1003D0002046E1688847012F064617D1E0690028CA
:1003E0001FDA202085431CE000980A2180694843D9
:1003F00000998019303888612046E16888470646B0
:1004000004F03DFE0028EFD1012F0AD02E2E08D196
:100410002046E16888470646202005437F1C022FBE
:10042000C3DBA069002803DA4042A0610120054334
:10043000E80701D010208543002E24D030464138F3
:10044000192803D80120C002054320362046256024
:100450003146029A1546FFF775FE00280CD0012898
:1004600007D0ED1DE80800E00DE0C0000830029064
:1004700077E72D1D029574E762683046A1689047C2
:10048000206A401C6CE7206AFEBD0000AA560000EE
:1004900010B5044603E003F00FFD401C08D020789F
:1004A0000549641C0028F6D10A2003F005FD10BDA3
:1004B0000020C04310BD00009C012020034610B561
:1004C0000B439B070FD1042A0DD308C810C9121F74
:1004D000A342F8D018BA21BA884201D9012010BD30
:1004E0000020C04310BD002A03D0D30703D0521C04
:1004F00007E0002010BD03780C78401C491C1B1B32
:1005000007D103780C78401C491C1B1B01D1921E9B
:10051000F1D1184610BD0000002203098B4273D3AD
:10052000030A8B4258D3030B8B423CD3030C8B4200
:1005300021D312E003460B437FD4002243088B42B1
:1005400074D303098B425FD3030A8B4244D3030B5A
:100550008B4228D3030C8B420DD30902FF2212BA1F
:10056000030C8B4202D31212090265D0030B8B429B
:1005700019D300E0090AC30B8B4201D3CB03C01A85
:100580005241830B8B4201D38B03C01A5241430B60
:100590008B4201D34B03C01A5241030B8B4201D350
:1005A0000B03C01A5241C30A8B4201D3CB02C01ABB
:1005B0005241830A8B4201D38B02C01A5241430A33
:1005C0008B4201D34B02C01A5241030A8B4201D322
:1005D0000B02C01A5241CDD2C3098B4201D3CB01C9
:1005E000C01A524183098B4201D38B01C01A524178
:1005F00043098B4201D34B01C01A524103098B427C
:1006000001D30B01C01A5241C3088B4201D3CB0066
:10061000C01A524183088B4201D38B00C01A524149
:1006200043088B4201D34B00C01A5241411A00D2F9
:1006300001465241104670475DE0CA0F00D0494262
:10064000031000D3404253409C46002203098B42D2
:100650002DD3030A8B4212D38901FC2212BA030A5A
:100660008B420CD3890192118B4208D389019211DC
:100670008B4204D389013AD0921100E08909C30961
:100680008B4201D3CB01C01A524183098B4201D363
:100690008B01C01A524143098B4201D34B01C01A4E
:1006A000524103098B4201D30B01C01A5241C308C6
:1006B0008B4201D3CB00C01A524183088B4201D335
:1006C0008B00C01A5241D9D243088B4201D34B0050
:1006D000C01A5241411A00D20146524110466346A7
:1006E0005B1001D34042002B00D54942704763465E
:1006F0005B1000D3404201B50449002802DC491CCC
:10070000084000E00846C046C04602BDFFFFFF7F2C
:1007100070477047704700000246C80FC00781430A
:100720004B0030B54B405B009B0D20D01923DB06FE
:10073000C91801231B05994220DB0324A4070425C3
:100740001346AB400BD3002B04D1EB0613409B00A8
:10075000E34204D401246407002312195941FF2302
:100760001B0599420BD2C9000143500F09E0CB028F
:1007700004D501430803024305D0054830BDFF21DD
:10078000C905084330BD084607210905884330BD27
:100790000000C07FF0B50C46871A9C410D46861AB2
:1007A0009D4103D2C01BA141D21963410D0D1F0D04
:1007B000C94EEC1BAE435CD07F057F0D0026002F99
:1007C00051D02D05AC46A943DD020123ED0A1B05DE
:1007D0001D4320231B1B24D41746E74038187141C2
:1007E0002F46E740CC199D402818314661410C0D39
:1007F00027D161449A4013D50023401C594152002F
:100800000ED14008400001224B005205D34207D3CD
:1008100005204007C14201D5B04900E0B04930464B
:10082000F0BD6B00002A00D001229A181F23203C43
:100830001B1B01D5002302E0E540281871410C0D77
:10084000D7D0012424050919C407CD074008490859
:10085000E40F28436144002CD5D00024401C6141A2
:100860009A40D0D1CDE76A05520DD9D1C90FC90739
:10087000D5E79C4D4E00002801D0012400E0002463
:1008800034195F00002A01D0012600E00026BE19BD
:10089000954FAC420CD8AE420AD8B44206D00125DE
:1008A0006D05EC42BCD010461946F0BD9942FCD013
:1008B00000203946F0BDF0B51FB40C460F46811A32
:1008C0009F412546861A9D4106D20125ED076F40BE
:1008D000401ABC4152187B41210D1E0D8D1BAC46A8
:1008E0007D4D8D437ED075056D0D7CD00D05AE46DA
:1008F000AC431B031B0B794D52429D41202366469E
:100900009B1B14D31746F7403818002600907441FB
:1009100060462F460741E41900989D40281866411B
:1009200016D4714671189A4025D5012320E09318FA
:100930002A466A415200002B00D0521C1E23203E42
:100940009B1B002B61DD3541EE1728186641E8D569
:10095000001876415B1C9A4000D3401C4B05F318ED
:100960001524E34010D3002B52D071467118D30FD9
:10097000C01802D3491C05B0F0BD0123DB079A4221
:10098000F9D140084000F6E701225205B21801D122
:10099000002853D00123CC0ADB029943891E002A88
:1009A00008D1020C03D0020C0004103902E0024608
:1009B000002020390023550B05D112020823550BC6
:1009C00001D152010D23550C01D112011B1DD50C73
:1009D00001D192009B1C150D01D152005B1C2025FA
:1009E000EE1A01E02CE022E00546F5401543984060
:1009F000CA1AE10769181305C918002ABBDA0320CF
:100A000040070818C10FC9070FE071466118B2E727
:100A1000F10740080843711071444A000CD00123CB
:100A20005B059A42A7D2C90FC9070020A3E7490571
:100A3000490D26D1002001E00028F4D100219AE7D9
:100A4000284D6600002801D0012100E00021711826
:100A50005F00002A01D0012600E00026BE19224FC7
:100A6000A94210D8AE420ED8B14208D001256D057A
:100A7000E94206D01946A802414010467BE79C4255
:100A800001D0214677E70020394674E710B50C46BF
:100A90005C4005D50124E4076340FFF70CFF10BD5F
:100AA000FFF778FE10BD30B40C465C4004D501243D
:100AB000E407634030BC6DE630BCFCE670B5012451
:100AC000E40761400D465D4002D4FFF763FE70BD50
:100AD0006340FFF7F0FE70BDFF0700000000F0FF6D
:100AE0000000F07F0000E0FF0000F87FF0B5F94D56
:100AF0000C091E092C402E402F468BB0A7437DD0F9
:100B0000B543FCD0002E7AD0002CFCD00D465D40C1
:100B1000ED0F2543AC1BFF25AD0464190894C502F5
:100B2000440DC9022143500DDC0204430120C007DB
:100B300001430443D2020191200C110C00958C4614
:100B4000010423468B430A9161460904E24D8A431E
:100B50000991010A7D4449198039097805464D43B8
:100B600001266D18F605751B6943C90C640B891CB9
:100B70004C436418B5012C1B250C2E04B4434C4384
:100B80004D43210C691889090591009DE90701D0A1
:100B90000121C90704912C4601996708CD072F430D
:100BA0004C08059DE10B4D432D0C294666467543C7
:100BB00002950D4645432E46029D7D1BB44100958E
:100BC0000D465D4301942C0C2F040D465543AE4653
:100BD0002D0C3D43029503947546049C2D04641B23
:100BE000049406D2029C039D641C00267541039563
:100BF000029401AC70CC009F7D1B01E03EE162E1FC
:100C0000B44109040095079101940599A408614332
:100C1000090C0C464443650BE7040C4666467443D6
:100C2000A646640B3C43039502947446049DE40479
:100C30002C1B049406D2029C039D641C0026754163
:100C40000395029401AC70CC009F7D1BB4410194CC
:100C50000C465C430095650FE7000C465443A646DE
:100C6000640F3C43039502947446049DE4002C1BDE
:100C7000049406D2029C039D641C002675410395D2
:100C8000029401AC70CC009F7D1BB441AE09AF064D
:100C9000049DC900AD092F43049DA406AD0604952B
:100CA000079D344369180791059DE10B4D432D0CB9
:100CB00029466646754302950D4645432E46029DDC
:100CC0007D1BB44100950D465D4301942C0C2F040F
:100CD0000D465543AE462D0C3D4302950394754693
:100CE000049C2D04641B049406D2029C039D641C86
:100CF000002675410395029401AC70CC009F7D1BCA
:100D0000B44101948C050694079C890A61180095EA
:100D10000791019C0599A4086143090C0D464543C0
:100D2000680BEF040D46644665436C0B3C43049F1F
:100D3000ED047D1BAC4602D20025641C6841009E78
:100D4000019D371B85410846584301950C46460FC7
:100D5000C5005443600F28436546E4002C1B02D2B3
:100D60000025401C6E41019D3F1AB5412846BD0932
:100D7000800628438446A009BF064E020699A406B1
:100D800076180743079D002068410A990790194388
:100D90000020099B00906046FF1913434041E20F79
:100DA00064003A43A4460446D71A8C41A04203D9B2
:100DB0000120009020463A46C70F941840416246F1
:100DC000D20F2243644664000494009CBE46640033
:100DD000D71AA446044602978C417746002F01D1CA
:100DE000A04204D96046401C8446029A2046C40FA3
:100DF000A64694184041049A0546D20F2243644601
:100E00006400D31A8D417146002901D1A84202D94C
:100E100028461A46641C10430122002800D01643BD
:100E200061020020079B891904465C410223002CC3
:100E300002DB491813466441089DCE0A2D145D1942
:100E40004B056705E10A2C050D1908993E43C907B2
:100E50006940002B08D0934006D30022761C5141F4
:100E6000002B01D1760876001C4A002D43DB154289
:100E700041D0AA433FD030460BB0F0BD06180D4616
:100E80004D41174C7642AC411AD395181C465C4133
:100E9000134A6D42A24113D3012252054C00D442A1
:100EA0000AD15C00D4420BD04B4002D592021143D0
:100EB000E2E749004908DFE75940C90FC90718E0D0
:100EC00000200849D8E7054801420DD10342F7D078
:100ED000F2E700000000FF07E14E00000000F07F95
:100EE0000000E0FF0000F87F114859400143C012A4
:100EF00041400020C0E70123089A9B069A4205DC86
:100F0000032252078918C90FC907B5E705225207FE
:100F10008918074A1143D2125140ADE770B5154602
:100F20001C4602460B4628462146FFF7DFFD70BDF2
:100F3000FFFFFF7FF0B58B4C0F09254689B0BD43FD
:100F40007BD01D092646AE43FAD00E465E402740B0
:100F5000F60F3E43254071D024012142FBD0FF24EF
:100F6000AD19A4042D1B039501252D05DB02DB0A19
:100F7000C9022B43C90A29431E010901040F130F9B
:100F8000050121431701880B820391432D098C46EB
:100F9000A90B1E438A039543B30B9A0396433F095B
:100FA000BA0B9403A74302962E467E430497B64697
:100FB0004E19D7190C460196544305977E43371BAB
:100FC0007646BF1B3601B646BE0B361900967646EE
:100FD000BC043719009C01D3641C00946400002FEA
:100FE00001D001263443029E049F754366467E432A
:100FF0000496760034196E0034190094029C019E08
:101000001C196643751BAE46069465464519059C3A
:1010100005956C43594375460891691A0191049EE0
:1010200001465143A41B0491611A009C0791E106FB
:1010300005D061090122114302E072E06EE061090E
:10104000089D00272C0A2D066918049D7C412A0A58
:101050002D066918019D6241AC0DAD026D18544119
:10106000079A910D920255196141029A64465843BC
:101070005443069B059A5A43121A131B9A0E9B015E
:101080005B187A41010B0005C3185141220A200662
:1010900044195A419A4200D2491C0120400281421F
:1010A00003D315230226F64302E014230326F64356
:1010B0002020C51AA9401746AF40DA400A4320460F
:1010C0000399D8400914731819055118039A384325
:1010D000D2075140AC4009D00122944006D30022EF
:1010E000401C5141002C01D1400840001E4A93424F
:1010F00012D3012203989206904207DB0520400795
:1011000009181A480143C012414004E00320400777
:101110000818C10FC907002009B0F0BD0020F10771
:10112000FAE705180C464C4111486D42A04115D311
:1011300094181A465A410E48644290410ED3012039
:101140004A004005824209D35A00824206D35940E0
:10115000C90F084AC90700201143DDE700200649EE
:10116000DAE700000000FF07FE070000FFFFFF7F37
:101170000000E0FF0000F07F0000F87F0121C905BA
:101180000123411842001B06D3185B0E0AD0C11080
:101190000722D206891840075242D14201D5520097
:1011A00089187047090208D50146002A03D0C10FEB
:1011B000C9070020704710467047420202D0002045
:1011C00002497047072109050143F4E70000F87F51
:1011D000F0B5FF252D04C609C209FF2704462E409D
:1011E0000137CB093E4348402A402B400746002A9E
:1011F0006BD0002B69D0AA4267D0AB4265D00028E3
:1012000000DA32460125ED0529432C43090220026C
:10121000090AD21A4B0C7F24E31A434C000A7C447F
:10122000E35C7D242404121914145B00A218884284
:1012300001D3521C00E0400049420C465C4324119B
:101240005C43DB016415E318040A5C43C502200D0E
:101250000C4644436419250A5D432303EC0C0D46F8
:10126000654300030019EB184C42A34201D35B18FD
:10127000401CD4052018002B07D05B00C91804D3EC
:10128000401C002901D1400840003F2189048A42C6
:1012900009D3002A08DC1106090F04D003214907ED
:1012A0004018C00FC007F0BD012241001206891886
:1012B0007F2252069142F6D205214907C84201D544
:1012C0009010F0BDFF20C005F0BD002F00DA3246BF
:1012D0001648AA4207D2AB4205D21902090E17D00E
:1012E000F80FC007F0BDFF2563002D06AB42F9D80B
:1012F0004900A942F6D8AB4201D1A942F2D0A94295
:1013000001D1002101E061004908D0050843F0BD8A
:101310001102090EFBD0FF200243D005F0BD0A46A2
:101320000146104654E70000974800000000C07FC7
:1013300010B501469E240002CA15A307002A02D058
:101340001843002A04DBA21A002A0CDDD04010BD8D
:101350001206120E01D140004008A21A03D4D04058
:1013600040420028F3DDFF2248001206904201D9D6
:10137000002010BDC817C043584010BD0102C2155F
:1013800004D00123DB071943002A0ADB9E239A1AA3
:1013900002D40846D0407047FF2241001206914215
:1013A00001D900207047C017C04370471F22030CAB
:1013B00002D10F2200041CD0030E01D10002083A12
:1013C000030F01D10001121F830F01D18000921E73
:1013D000002801DB4000521ED2055118021251189C
:1013E0001922904004D3491C002801D14908490022
:1013F00008467047C10FC90700D04042012292073A
:101400001143D3E701218907D0E710B500F0DEFAD8
:10141000006810BD10B5044600F0D8FA046010BD95
:10142000FFB504460D4681B024300090216888063F
:1014300004D51022E0699143216000E00120A84218
:1014400001DD471B00E000270498A1697A191018F4
:10145000081AA0612078C00602D42046FEF7CAFE12
:10146000002608E003986268A168805D9047206AC2
:10147000401C761C206204988642F3DB2078C0066C
:101480000AD52046FEF7B6FE06E06268A168302065
:101490009047206A401C206238467F1E0028F4DCFA
:1014A00007E000986268A168405D9047206A401C90
:1014B000206228466D1E0028F3DC2046FEF7B0FEB1
:1014C0002078000602D5022005B0F0BD0120FBE720
:1014D000FFB50C461E468FB003CA089009914F0015
:1014E0007D0D00D16D1E002108460020C04603215D
:1014F000099A89050840002A03DA8200801840080A
:101500000840800D01280A9002DD0020C0430A90A7
:10151000089807430DD0F048F049281848430714AD
:10152000189800281DD07542291E1DDD0A984242D8
:101530001BE01898012802D00020302104E0002090
:10154000F24305E02154401CB042FBDB3046002250
:10155000189B002121540F998B600A60486013B0DA
:10156000F0BDBD1B6D1CDFE70A9A002900DA694255
:101570000BA800F0C9FA0BAB07CB03AB07C3089964
:10158000099800F02DFB6B4607C30146D4480918A3
:10159000002D00910BDDD24903980A9A4942401868
:1015A000002303A90390684600F08AFD08E0039930
:1015B0000A9A0023081803A90390684600F02AFD40
:1015C0006B4607C30004000C03D00020C043410851
:1015D00000E01046189A002A03D000220092154617
:1015E0001EE0751E05D400F0F5F9303262556D1E0F
:1015F000F9D501220843079602D000227F1C04E09F
:101600002078302801D100227F1E002A069787D03B
:101610001EE0112D07DA00F0DDF9303262556D1C45
:1016200002460A43F5D1084303D00098002819D098
:101630000EE00021681E05E0235C625C63542254C6
:10164000401E491C8142F7DBA81B401E07950690EF
:10165000079A18990020A0540F98079B069A81605A
:101660000CC07CE711260020189059E7D21DF0B578
:101670000D460446D10893B0C90003C90C900D91E2
:1016800003F06AFC02460D98C00F01D02D2007E040
:101690002068810701D52B2002E04007C00F4001E0
:1016A000032A0F9001D0072A05DB0346294620466E
:1016B00000F0E6F90EE12078800601D5E76900E048
:1016C00006272846652D04D0662814D0672D69D1D9
:1016D0002DE00020112F009001DB112300E07B1C86
:1016E0000CAA03A910A8FFF7F3FE11990026109881
:1016F0007D1C0E9142E001203B460CAAC0070B90D6
:101700000120009003A910A8FFF7E2FE119D129896
:101710001099002600280E9501D1781C0D18781B11
:1017200002D446427D1C761EE81B00903AE0012F51
:1017300000DA01270020112F009001DD112300E0C5
:101740003B460CAA03A910A8FFF7C2FE11993D461B
:10175000109800260E91217809070BD40E99A94202
:1017600000DA0D4603A9012D04DD4A19203AD27F83
:10177000302A06D0B84201DA011D04DA01210091B5
:101780000FE06D1EEFE7002802DC86192D1A03E03A
:10179000411CA94200DD0D46801B401C0090012029
:1017A000C0070B902078000705D40098A84202DB00
:1017B0000020C043009069460020C8720B980121A8
:1017C00002AF0337C907884225D0022010902B2092
:1017D00011900B9800280BDA40420B902D201190AD
:1017E00006E00B9800F0AAF830317F1E0B9039709C
:1017F0001099481E00291090F3DC0B980028F0D1B6
:1018000011987F1E38702088000501D5452000E022
:1018100065207F1E387001A8C01BC01D0B900F985B
:10182000002800D0012041190098C01709180B9812
:101830000818A169081A401EA0612078C00602D4C9
:101840002046FEF7D7FC0F98002805D06268A168F3
:101850009047206A401C20622078C00625D520468B
:10186000FEF7C8FC21E0002E07DB0E98B04204DD35
:1018700003A86268805DA16802E06268A168302008
:101880009047206A761C401C20620098401E002869
:1018900000900AD100F096F8C06862680168405C68
:1018A000A1689047206A401C206228466D1E0028CF
:1018B000D9DC07E062683878A1687F1C9047206A0D
:1018C000401C20620B99481E00290B90F2DC204638
:1018D000FEF7A6FC032042E601FCFFFF104D0000CE
:1018E000E1DFFFFF10B54369002B02D0C046C046C0
:1018F00001E0FEF7A6FC012010BD1278014624315C
:101900000A7000224A700122ECE711680022D243DB
:10191000E8E70000084B70B50D467B4400F09DF8E9
:101920000446284600F01CFC002802D00020C043DA
:1019300070BD204670BD00009B2500000146800858
:10194000081A02091018020A1018020C1018C00810
:10195000820012185200891A01E0401C0A390A2933
:10196000FBD2704770B505464800440D124B00206D
:10197000002C0AD0634008D09A4206DA6642B2428E
:1019800003DD12054019514170BD002C08D0002B19
:1019900009D0C90FC907002AF6DB084A114370BDF8
:1019A000C90FC90770BD28460A03104302D00020A2
:1019B000034970BD284670BDFF0700000000F07F9E
:1019C0000000F87F00487047500020200048704712
:1019D000300020200B4670B5024689078008084376
:1019E00019469D08141AA941250908070543080945
:1019F0002C194841250A01060D43010A2C194141C1
:101A0000200C0D0428430D0C00194D4100214019F4
:101A10004D41C00869070843E908840F8D0025433C
:101A2000840024184D4124196D41121BAB4107E07D
:101A30000925ED432C11521963410024401C6141DA
:101A40001C460A250026551BB441F1D270BD00008A
:101A500001694A1C02610878704700B58FB0029195
:101A600000210591054901937944039111460490A1
:101A70006846FEF771FC0FB000BD0000E5FFFFFFF8
:101A8000F8B51F46044601230068DB020326014621
:101A90001840072A05DB002801D017A506E017A586
:101AA00004E0002801D016A500E016A5102081430F
:101AB0002160A069C01E002FA06101D0401EA0615E
:101AC0002046FEF797FB002F09D038466268A168D0
:101AD0009047206A401C2062C01C206206E0206AF9
:101AE000FAE762682878A1686D1C9047761EF8D2E4
:101AF0002046FEF795FBF8BD4E414E006E616E002C
:101B0000494E4600696E6600F7B516468AB03348FE
:101B100078446C4603467C33C06F5A689B680DC49A
:101B20002E487844763003AC0DC80DC43720C00170
:101B3000081837211B30FEF7FDFC05460C46803D9A
:101B40001B3C02D56442012000E0002000270990E0
:101B500010E0E0070CD00C2020497843794432464D
:101B60004C3941186846012300F054FA6B4607C30C
:101B700064107F1C002CECD1184F7F442E3F16E0E0
:101B8000E80712D02001C0190EC8069108930792E9
:101B90000068F04201D1981908903246012306A945
:101BA00003A800F037FA03AB07C36D10641C002DC7
:101BB000E6D10998002806D032466946012303A8D9
:101BC00000F07EFA05E001233246694603A800F0E2
:101BD00021FA0A9B07C30DB0F0BD0000DC400000F5
:101BE000034640000A4610B5400D0BD00121C9073D
:101BF0000F24A40200191C0364082143540D21433F
:101C0000D20207E000210120F2E7D40F490021436E
:101C10005200401E0029F8DADB0FDB07184310BD25
:101C2000FFB50D46144685B04868516803F07BF94E
:101C300000910190A868A16803F075F902910390E2
:101C4000A868616803F06FF9029A12188242029242
:101C500001D2012000E00020019A0B18D2180028C0
:101C6000019202D08A4202D903E08A4201D20120C5
:101C700000E000200099081800906868A16803F04F
:101C800052F9029A12188242029201D2012000E017
:101C90000020019A0B18D2180028019202D08A4223
:101CA00002D903E08A4201D2012000E0002000991D
:101CB0000818009028682168400049004008490839
:101CC0004018FA49471814E001994000C90F084329
:101CD0000090019802994000C90F084301900298B2
:101CE00003994000C90F08430290039840007F1EEB
:101CF000039000980028E7DA0898002801D0EC4EFD
:101D000000E00026B74201DA012000E000200028B0
:101D100004902AD0F71BF806C00E15D0029B202194
:101D2000091A039A8B401A430392029A019BC240FC
:101D30008B401A430292019A009BC2408B4000994B
:101D40001A430192C14000917B110DD06F460320D0
:101D5000C11A03D500218200B95003E08A00810036
:101D6000BA587A50401EF3D5374603980299002896
:101D700000D00120014308980291002808460CD0A9
:101D8000002800D001200199019A4905084301214A
:101D9000D20AC902D202019200E001210E9B012267
:101DA000D207012B02D0002B03D013E0002807D16B
:101DB00020E0904204D890420CD1019B0B4209D004
:101DC000019B5918019105D10099491C009101D13D
:101DD0007F1C009200280DD0102108460020C0462C
:101DE0000498002806D00F98002803D00821084640
:101DF0000020C04628682168019B009A4840C10F16
:101E00000598C90739430EC009B0F0BDFFB587B0CA
:101E1000099A0898089953689268406889689646B4
:101E20000022039317469446089A12685300099AB1
:101E30005B081268520052089A1A9E4BD4180A9AEC
:101E4000002A01D0352200E0402206920022012320
:101E500015460492DB07059324E0002D05D1754655
:101E60000346039E4D1BB34109D375466646039B4B
:101E7000491B049D9841059B7519AC465F4163461B
:101E80003B4308D0059B049EDD0776082E435B0884
:101E90000496059301E0521E641EC50FED07491814
:101EA0004041521C069B9A42D7DB002D04D1754657
:101EB000039A6B1A824101D203200CE0039A0B466D
:101EC0006B404240134303D0014303D0012002E0A2
:101ED000022000E00020614601910021009702915C
:101EE0000A99002905D0614640020143704B0191D7
:101EF00002E08007002302909C4201DA012000E00A
:101F0000002007003AD01A1BD006C00E15D0029D43
:101F10002021019C091AC5408C402543029C8C401D
:101F200000D001242543019C0295009DC4408D40B2
:101F300000992C430194C140009154111DD06D466D
:101F40000221002202290CD10320001B07E00028F7
:101F500004DB8600AE59002E00D00122401C03286D
:101F6000F5DB081B02D588002A5004E080002858C1
:101F700010438A00A850491EE3D51C460A98002841
:101F800002980CD0002800D001200199019A49053F
:101F900008430121D20AC902D202019200E00121C4
:101FA000109B0122D207012B02D0002B03D013E09B
:101FB000002807D11FE0904204D890420CD1019B29
:101FC0000B4209D0019B5918019105D10099491C78
:101FD000009101D1641C009200280CD01021084609
:101FE0000020C046002F06D01198002803D00821F9
:101FF00008460020C04608980999019A009B00688D
:1020000009684840C10F0798C907214382600AC088
:102010000BB0F0BD00B585B0019300920A460146B1
:10202000002302A8FFF7FCFD02A807C805B000BD09
:10203000FFB50A461F4685B0079901930123009119
:10204000014602A8FFF7ECFD02990398049ECA0F0F
:102050004900D20700920F22490892028C1A0021EF
:10206000002800DB0C46450013486D08844214D359
:10207000079A002A04DA441E0026104DF64302E0B7
:1020800004460D460E46102108460020C046002F8B
:1020900003D0042108460020C0462005E90A084371
:1020A000009908436905F20A1143ADE602C0FFFF3B
:1020B000013C0000FF3F0000FF070000FFFFFF7F23
:1020C00000B585B0019300920A460146002302A89C
:1020D000FFF79CFE02A807C8A8E7FFB50A461F46FF
:1020E00085B00799019301230091014602A8FFF7EB
:1020F0008DFE02990398049ECA0F4900D2070092F0
:102100000F22490892028C1A0021002800DB0C469D
:10211000450011486D08844214D3079A002A04DA56
:10212000441E00260D4DF64302E004460D460E46C1
:10213000102108460020C046002F03D00421084685
:102140000020C0462005E90A0843009908436905B4
:10215000F20A114358E60000FF070000FFFFFF7F6F
:10216000C068802108407047F8B5264C4E00069D97
:10217000A6420AD8A64201D1002806D15E00A64296
:1021800003D8A6420AD1002A08D00D2424042542EF
:1021900033D02946002000F06DF9F8BD0C461C43F1
:1021A00011D4994207D0C81A02D3EFF30080F8BDCA
:1021B000EFF30080F8BD801A02D3EFF30080F8BD82
:1021C000EFF30080F8BD09242407E5008B4207D017
:1021D000581A02D3EFF3008006E0EFF3008007E027
:1021E000101A03D3EFF30080A04303E0EFF3008065
:1021F000A043284380F30088F8BD009500F052F911
:10220000F8BD00000000E0FFF0B53D4B02460C4673
:102210001C400020002C63D03A4D8B4366D000292F
:102220006BDB0B0D1D05A94301252D052943012459
:10223000FD33E34001D392184941FF3381339C467B
:102240008B02940D0121234389074C4292020027FF
:102250001B198C105D1A04D42D1B02D42B4665006B
:10226000491992185B416408F4D15C1A08D401251D
:10227000ED07EE175519744102D42A462346491C2E
:1022800094185B41012292071D46E61B8D4106D43E
:10229000B61A854103D42B46550034467F192419BC
:1022A0005B415208802AEFD1234300D002233846F5
:1022B0000A22D04001D3012213438A05104362460B
:1022C000890A12058918002B09D00122D34002D3B4
:1022D0000022401C5141002B01D140084000F0BDBC
:1022E0000B03134307D0C90FC907F0BD0803104300
:1022F00003D1002901DB1046F0BD00202946F0BDC6
:102300000000F07F0000F87F10B5FF231B0644009B
:102310009C421DD84C009C421AD80346124A0B43DB
:1023200007D4401A02D3EFF3008010BDEFF3008012
:1023300010BD081A03D3EFF30080904305E0EFF3DC
:10234000008001219043C907084380F3008810BD35
:102350000D231B041A4204D01146002000F08AF815
:1023600010BD00F0A9F810BD0000009000487047B3
:10237000300020207546FFF7F9FFAE46050069469C
:102380005346C008C000854618B020B5FDF714FFBD
:1023900060BCB64600260027C0C5C0C5C0C5C0C5C4
:1023A000C0C5C0C5C0C5C0C5403D490849008D462F
:1023B000704710B50446C046C0462046FDF7EEFE05
:1023C00010BD000082078B079A423FD170B5920F73
:1023D0000AD0032402780B78401C491C002A33D011
:1023E0009A4231D12042F5D1214EF40104C808C9E6
:1023F000951B9543254018D19A420FD104C808C9AE
:10240000951B9543254010D19A4207D104C808C9AD
:10241000951B9543254008D19A42E7D012BA1BBAC2
:1024200001209A4200D2404270BD12BA1BBA2DBAA6
:1024300018241000E0401900E140401A05D12E0098
:10244000E64002D1083CF4D1D01A70BD02780B7876
:10245000401C491C002A09D09A4207D102780B7807
:10246000401C491C002A01D09A42EFD0D01A704774
:1024700001010101C80212D54803400F002804D011
:10248000C803C043012188407047EFF3008000017A
:10249000000903210907084380F3008870470020E2
:1024A0007047000010B500200249029A00F00CF8B5
:1024B00010BD00000000F87F10B5024800F004F8DD
:1024C00010BD00000000C07F10B50C461107090FB9
:1024D000092904D00A290AD008290CD104E01146A0
:1024E0000820FFF7C7FF06E0510606D501E05106B8
:1024F00001D50120C007214610BDD10607D5010135
:102500000909CC084907000E0006044309E0410F01
:1025100020024907000A0143200E00061D22D14176
:1025200001430846E7E7811E091F00BFFCD2704740
:10253000F0B5684A8218294BC318087920280DD0B5
:1025400000281DD10C68641E5460D56E244C2540B3
:102550008835D5661646703688251DE00C68641EE1
:102560005460D46E1E4D2C401E4EA419D466146FB8
:102570002C40A4191467012465071B4C16460BE078
:102580000C6864085460D66E154C26400525ED0194
:102590007619D66616467036376827402F4337605F
:1025A000D46A4E4D2C40D462146B2C40146300242A
:1025B000D46414658F24E443D56F2540D5671D6826
:1025C00025401D6049790143BD2008401168074B33
:1025D0000B40C018801C1060F0BDC046841800007D
:1025E00024F93FF001040000FFFFFFCF4000FFCFC0
:1025F000B0B54A68364BC250364A80180A78222A4B
:1026000058D8930001A4E3589F46C046AB2600006B
:10261000B5260000AB260000B5260000B526000058
:10262000B5260000B5260000B5260000B52600003E
:10263000B5260000B5260000B5260000B52600002E
:10264000B5260000B5260000B5260000992600003A
:10265000B526000099260000B5260000B52600002A
:10266000B5260000B5260000B5260000B5260000FE
:10267000B5260000B5260000B5260000B5260000EE
:10268000B5260000B5260000B526000099260000FA
:10269000B52600009926000003231B0704689C430D
:1026A00001235B07E318036004E003231B070468AE
:1026B0009C4304600B69C360CB68074C1C40C36A31
:1026C000064D1D402B19C362097A11430160B0BD4C
:1026D0000818000004180000777702008888FDFFC2
:1026E00010B507239B04194092008018024A8458B1
:1026F0009C436118815010BD3018000010B5029C39
:10270000A400001911431943014A815010BDC0466D
:102710005018000092008018014A81507047C0464E
:102720001018000010B50122120383180C789C6069
:102730004B7883508978014A815010BD0C110000FC
:10274000B0B51122120283580124A34383500B8891
:102750008C781C438B882343094C1C408358094DBB
:102760001D40631983508B79CC791C43097A21432E
:102770007E231940801842689A4351184160B0BDC9
:1027800018670000E798FDFF10B5012212038318B7
:102790000C789C604978815010BD000070B5002015
:1027A000C14313480246103A13681A06114A02D46C
:1027B0005B0710D470BD1468640601D50C4600E0B8
:1027C00001240D4D2E6834192C60046880252543A2
:1027D00005605B07EED51268120700D40121074A95
:1027E000136859181160016804220A43026070BD21
:1027F00048300A4080330A40880120207C01202094
:1028000070B5142000F0BAFF184800F06FFB0446C2
:102810000120C0076040164EF0603169306103F05E
:102820007FF80146B06803F023F80546316820467A
:1028300003F01EF80146284603F072F87061FEF7B7
:1028400077FD0C490978012908D1012804DBFEF73E
:10285000D1FD00F0DFFA70BD002800D470BD404209
:10286000FEF7C8FD00F00AFB70BDC04680012020C5
:1028700090002020F2012020F0B589B0DC488121B1
:102880000160DC480221016001640A2000F076FF4B
:1028900068266B270124802303933046394622465D
:1028A00000F0AEF9642000F069FF0025304639469B
:1028B00022462B4600F0A4F91B211823304622465D
:1028C00000F09EF91C21304622462B4600F098F974
:1028D00006AB13200290187019213046224600F0F2
:1028E0008FF907AB0420019018701A213046224658
:1028F00000F086F93821304622462B4600F080F958
:102900006A21304622462B4600F07AF923213046D0
:1029100022462B4600F074F9372130462246039BAD
:1029200000F06EF908AF3D807521304622463B46E7
:1029300000F036F801461748FDF74EFC3878682855
:1029400022D1164868252946FDF746FC6B2128460A
:102950002246234600F054F96C21002328462246E3
:1029600000F04EF904AB029818701921284622464F
:1029700000F046F905AB019818701A212846224646
:1029800000F03EF9254602E00348FDF725FC284605
:1029900009B0F0BDEF6800000A690000F8680000A7
:1029A000F0B589B005930292049108909049812076
:1029B000079008608F4E0227376037640124346027
:1029C000376137600525284600F0F0FE376128465C
:1029D00000F0ECFE3461089840000890C0B200F0AE
:1029E000A1FD8349346137608348086003943460F3
:1029F000824D286880070DD50A24052000F0D6FEF8
:102A00002968641E200601D03940F6D10028FE490D
:102A100000D1A1E001243461079808603760376471
:102A2000049800F07FFDF84934613760F74808608A
:102A3000346028688007069410D534460A2605209D
:102A400000F0B4FE2968761E300601D03940F6D178
:102A500000282646EC49069C00D191E0019734619C
:102A6000079808600227376037640860376037646A
:102A70003460376137600520049000F097FE3761BD
:102A8000049800F093FE346108982043C0B200F02F
:102A900049FDDD4934613760DC48086034602868EE
:102AA00080070FD534460A26052000F07FFE2968EE
:102AB000761E300601D03940F6D100282646D2498C
:102AC000069C70D034610798086037603764002531
:102AD000029802280095344621D3401E0490002518
:102AE0002E4600F08DFA059948550798C6490860AA
:102AF000276027643D46069F2761256105200890D1
:102B000000F054FE25612760089800F04FFE276111
:102B10002F462560761CF5B20498A842E1DC00F04F
:102B20006FFA05994855B8480799016027602764EE
:102B3000069E266127610525284600F037FE27609E
:102B40002660284600F032FE266127602646019F57
:102B5000AD4C0798009D39E0079D0D6037603764E4
:102B600003983061376130600524204600F01EFE76
:102B700037602046A44C00F019FE2846039D25E04E
:102B8000079D0D6037603764346137613460052418
:102B9000204600F00BFE376020469B4C00F006FEFE
:102BA00028463D4612E0079D0D603760376434616A
:102BB000376134600524204600F0F8FD3760204678
:102BC000914C00F0F3FD28460325019F20603760FB
:102BD000376403983061376130600524204600F087
:102BE000E5FD3760204600F0E1FD284609B0F0BD64
:102BF0000880424090120A408100040080130A407D
:102C0000F0B585B001930292009104907E49812035
:102C100003900860DC4C02252560256401272760AD
:102C2000256125600526304600F0C0FD256130464F
:102C3000264600F0BBFD276104984006000E00F018
:102C400071FC714927612560704808602760704CED
:102C5000206880070FD504970A26052000F0A6FDFE
:102C60002168761E300601D02940F6D10028C64ED4
:102C70006549049F65D00127376103980860356076
:102C80003564009800F04EFC3A465F493761356084
:102C90005E480860376020688007039F04920ED565
:102CA0000A27052000F082FD21687F1E380601D02A
:102CB0002940F6D100285449039F049A61D032611B
:102CC0000F600225356035640298002828D000275F
:102CD0000DE00028AC4E4C49049A71D03261039843
:102CE0000860356035647F1C0298874218D00198CF
:102CF000C05D00F017FC049A4349326135604348D7
:102D00000860326020688007E8D50A26052000F0B8
:102D10004DFD2168761E3006DBD02940F6D1D8E77C
:102D2000039808603560356432613561326005248E
:102D3000204600F03BFD3560204600F037FD0027BF
:102D40005EE003980860356035643761356137604F
:102D500034460526304600F029FD2560304600F057
:102D600025FD0398F44908602560256427612561E5
:102D70002760304600F01AFD2560304600F016FD51
:102D80003EE00F60356035643261356132600524A4
:102D9000204600F00BFD3560204600F007FDE648B8
:102DA00007603560356404983061356130602046D5
:102DB00000F0FCFC3560204600F0F8FC2F461FE0D8
:102DC00003980860356035643261356132600524EE
:102DD000204600F0EBFC3560204600F0E7FC03984D
:102DE000D5490860356035640498306135613060DC
:102DF000204600F0DBFC3560204600F0D7FCFF1CCD
:102E0000F8B205B0F0BDC046088042408100040021
:102E100080130A40F0B581B0054632480688002488
:102E20002046214600F0CAF83046FEF7EBFA294664
:102E300002F076FDFEF77CFA06B23046FEF7DAFACB
:102E4000294F6E4DBE42294600DC01460126084648
:102E5000314600F0B3F82046214600F0BFF8214883
:102E6000008804B22046FEF7C5FABC4200DC0546E5
:102E70002846314600F0B2F801B0F0BDF0B581B09F
:102E80000090184C278800252846294600F096F81F
:102E9000208806B23046FEF7ADFA1349574C8E42F1
:102EA000214600DC014601260846314600F086F83E
:102EB0002846294600F092F83846FEF7A3FA009912
:102EC00002F02EFDFEF734FA05B22846FEF792FA1C
:102ED00005498D4200DC04462046314600F07EF86C
:102EE00001B0F0BD000020209F0F0000F0B587B0BA
:102EF0000446002006900590049006A805A904AA9F
:102F000001F070F8002808D11D480078002832D060
:102F10002168049802F004FD04901A480788AF2045
:102F20008000B9B2814211D1154E3078049D00283D
:102F30000DD10021284602F097F8002807D1012082
:102F40003070256010480421016000E0049D28468F
:102F5000FEF714F905460E462068FEF70FF9024603
:102F600038B200950196029008A00B46FDF734F99F
:102F7000049807B0F0BD034801884F1C0780CEE7D6
:102F8000F2012020F001202090120A40796177316F
:102F9000203D2025662025662025640D0A000000BE
:102FA00004480021044A026041608160C1600161FF
:102FB0007047C046900020200000E04010B50C464D
:102FC00001290AD801460D4802F0AAFCFEF7D6F9FD
:102FD0000146AA482246FFF79DFB10BD10B50C46DE
:102FE00001290AD80146054802F09AFCFEF7C6F905
:102FF0000146C1482246FFF78DFB10BD00007A450F
:10300000F0B587B04C487A4901604C4F01263E60CC
:103010000524204600F0CAFB3D46103D2E602046A8
:1030200000F0C4FB464800680690204600F0BEFB56
:103030003E60204600F0BAFB2E60204600F0B6FB52
:103040003F4800680590204600F0B0FB3E602046F7
:1030500000F0ACFB2E60204600F0A8FB384F38682B
:103060000490204600F0A2FB34480660204600F0A1
:103070009DFB2E60204600F099FB386803902046A7
:1030800000F094FB2D480660204600F08FFB2E6078
:10309000204600F08BFB38680290204600F086FB4B
:1030A00026480660204600F081FB2E60204600F096
:1030B0007DFB38680190204600F078FB1F480660D1
:1030C000204600F073FB2E60204600F06FFB1C488A
:1030D0000768204600F06AFB18480660204600F0AA
:1030E00065FB2E60204600F061FB15480568204610
:1030F00000F05CFB114806600220049B0340069A26
:10310000024005998907C90F89188900C918039ACF
:103110009207D20F51188900029A02408918019A29
:103120009207D20F511889000740C819A907C90F83
:103130000818C0B207B0F0BD08804240A0120A4093
:1031400080130A4070B5274B8420D864012294066E
:1031500025490C601865D4060C6086249C615405D2
:103160000C608824DC6192050A60204C822525656C
:103170001F4A561C6665A564E6641E4D1D606263A9
:103180001D4EA661812626606660A563E563E56540
:10319000A5655A611A611A621A630B46303B042412
:1031A0001C600B46403B03241C6007230B60134943
:1031B0000B6810241C430C60813A11490B6A1343BD
:1031C0000B620B6813430B600E490A680E4B1343E6
:1031D0000B600E490A6A02430A620A6802430A60E7
:1031E00070BDC046A0804240D0120A4004804240D8
:1031F000810004008100050081000100A0130A4045
:1032000028100A4090330A401040000028300A403D
:10321000F0B581B0194C1A492046FFF783FA1949D5
:103220002046FFF785F900250095204629462A46C5
:103230002B46FFF763FA204629462A46FFF750FA45
:10324000304E204631462A46FFF764FA01270097A0
:10325000204629462A462B46FFF750FA20462946A3
:103260003A46FFF73DFA204631463A46FFF752FA12
:10327000054887600321016001B0F0BD00808640F1
:10328000806800008468000000918640F0B581B03D
:10329000194C1A492046FFF745FA19492046FFF70D
:1032A00047F900250095204629462A462B46FFF778
:1032B00025FA204629462A46FFF712FA114E2046E3
:1032C00031462A46FFF726FA01270097204629466D
:1032D0002A462B46FFF712FA204629463A46FFF7C0
:1032E000FFF9204631463A46FFF714FA0648876050
:1032F0000321016001B0F0BD000009408C680000AE
:1033000090680000AF040000001109400C48002143
:1033100001600320C1430B480246083A13680B4082
:1033200013600168012291430160110203688B431D
:1033300003601103001F02680A4302607047C04621
:1033400008030B4008010B400548042101601F21C0
:10335000416000218160016805220A4302607047D4
:1033600010E000E010B5084C08492046FFF7DAF9F4
:1033700007492046FFF73CF906480168012211433E
:1033800001600548026010BD00A0864098680000FA
:103390009C68000028B0864008B18640B0B5184C43
:1033A00018492046FFF7F0F917492046FFF7C8F9FA
:1033B0000322D103154803688B4303600369304936
:1033C0000B401A330361436913433C229343436127
:1033D00043680122134044689443E3184360930216
:1033E0000B4C25681D432560FF310A4B1C680C40BF
:1033F000910361181960016811430160B0BDC046B6
:1034000000001040B0680000B268000000111040D9
:10341000281010400CE400E010B5154C154920466A
:10342000FFF7B2F914492046FFF78AF90320C103D8
:10343000124802688A4302600169114A0A40113247
:103440000261416917220A4328218A434261416887
:103450000122114043689343591841609102094B7E
:103460001C680C431C6001681143016010BDC0461C
:1034700000801040BC680000BE6800000091104051
:103480000000FFFF2890104080B500F01BF8FFF708
:1034900059FEFFF73BFFFFF7F9FEFFF7B9FEFFF715
:1034A00061FFFFF7B9FFFFF779FFFFF74DFF7420CA
:1034B000024900220A5402490A5480BD8002202099
:1034C00008022020F0B581B00D480E4941600E4A37
:1034D00051600E4B59600E4C61600E4D69600E4E8E
:1034E00071600E4F79600E490160116019602160B2
:1034F0002960316039601020FFF715F801B0F0BD88
:1035000000080A40030000B100280A4000080940F2
:103510000088864000A886400088104000081040BF
:1035200001000026F0B581B04D4A812111604D4F58
:1035300002253D603D6401243C61009040B20028BA
:1035400001D43D6100E03D60204600F02FF93C6071
:103550000526304600F02AF93C61304600F026F995
:103560000098400601D43D6100E03D60204600F037
:103570001DF93C600526304600F018F93C613046E4
:1035800000F014F90098800601D43D6100E03D6030
:10359000204600F00BF93C600526304600F006F9A5
:1035A0003C61304600F002F90098C00601D43D614C
:1035B00000E03D60204600F0F9F83C60052630460A
:1035C00000F0F4F83C61304600F0F0F80098000795
:1035D00001D43D6100E03D60204600F0E7F83C602A
:1035E0000526304600F0E2F83C61304600F0DEF897
:1035F0000098400701D43D6100E03D60204600F0A6
:10360000D5F83C600526304600F0D0F83C613046E5
:1036100000F0CCF80098800701D43D6100E03D60E7
:10362000204600F0C3F83C600526304600F0BEF8A6
:103630003C61304600F0BAF80098C00701D13D6106
:1036400000E03D60204600F0B1F83C6005252846CA
:1036500000F0ACF83C61284600F0A8F801B0F0BDDD
:103660000880424090120A401B4802681B480168CB
:10367000D2B2012A0DD1491C0160194A13685B1CA2
:103680001360184A13685B1C1360174A13685B1CAD
:103690001360022904D10021016014480121017046
:1036A0000F480168062904D1002101600F4801215B
:1036B00041700C480168142904D1002101600B48B5
:1036C0000121817008480168322904D1002101607C
:1036D00006480121C170704720B08640900120202B
:1036E000980120208C0120209401202076012020A8
:1036F0000C48011F0268D2B20A600B490968C9B2BE
:103700000B290ED1026809490878C62803D8084B4E
:103710001A54401C0870064900220A540548012129
:1037200001707047241110402010104075012020B6
:10373000AC002020740120207047000080B50120DB
:10374000C003044908600449086004A0FCF7A0FE17
:1037500080BDC04680E200E000E100E0426F61729F
:103760006420496E6974205B5B202A2A204C434BFD
:103770004642202A2A205D5D0D000000B0B57D2163
:103780000902414314480368262206E0E41A051F93
:103790002D686419A2188A4206D21C4603689C420E
:1037A000FCD0F3D9E41AF5E7B0BDC046B0B50A497C
:1037B0000A684001262306E0A41A0D1F2D6864192B
:1037C000E318834206D214460A689442FCD0F3D927
:1037D000A41AF5E7B0BDC04618E000E0F0B58DB022
:1037E000054607AF0920F870E320B870CA2078704A
:1037F000022001903870682004213A4601F066FAF0
:10380000A32179723972F971402306952B405C200F
:10381000C043002B024601D03D22D243FA70002B58
:10382000024601D03722D243BA703F240493002BC2
:10383000024600D0E24300947A70397001263502C6
:103840002C46803506990D40014601D03921C943E7
:10385000B971002D014601D03321C9437971002D82
:1038600001D03B20C043387173480F300A213A46DB
:1038700001F02CFA032027220699084003900292B7
:1038800001D0202000E0D04338706B481E30314614
:103890003A4601F01BFA069FB8060AD40AAAC720C6
:1038A000107268480B9068480A909720C000092160
:1038B00009E05D200C9061480B9061480A909720C8
:1038C000C00009210AAA01F001FA002D16D02E46E7
:1038D000274204D19020B4218023B02503E09B200F
:1038E000B6218B23B22507AAD07091705370157042
:1038F00051480A30042101F0E9F93546F8070595E9
:1039000006D107AAD82010708B20000101214DE0BC
:1039100007AAF82010708B2000010126314601F023
:10392000D5F90720FA2100F025FA0AAA00981070AC
:103930002920C7003846314601F0C8F90AAA0025F7
:103940001570F81D314601F0C1F90AAE14207070EF
:10395000357038469630019C2146324601F0B6F962
:10396000642070703570384692302146324601F03E
:10397000ADF90AAA9020D070F92090708E20507076
:10398000157038461430042101F0A0F90820707039
:103990003570384612302146324601F097F974707E
:1039A000357010373846069F2146324601F08EF9B1
:1039B000049D0299B80702D52620C04300E0C84301
:1039C00007AA10702148012101F080F9780701D47D
:1039D000204800E01E480A9004210AAA164801F077
:1039E00075F900F00FFFF80601D41C4800E01A48F2
:1039F0000A901148801D04210AAA01F067F900F01D
:103A000001FF0820384386490880002D00D0062594
:103A10000598002800D0AD1D1420074201D01020C9
:103A200005430398002800D02D1D00F0EBFE7B48D5
:103A3000057000200DB0F0BD980A0000B4980D3557
:103A4000B8AAB38DB088C3C5B8AAAAAA3D0700001A
:103A5000C0C2C4C68B8B8B8B20283038A3A3A3A3F2
:103A600080B50120820203480349C82300F0E8FC26
:103A700080BDC046F60B00008A5C0000F0B58DB03A
:103A80000393154604910446129F00263E80634826
:103A9000007805A9139A00F063FEF143002800D0D6
:103AA000B8E0019402975E48078814200742049BFF
:103AB0004DD000910598000605AA517809040C180C
:103AC000907800022018D378C01828600698000665
:103AD00053791B041B18907900021818D6798019A5
:103AE000686007980006567A36043618907A000205
:103AF0003018D17A4018A86008980006517B090454
:103B00000818917B09024118D27B8918E9601914C1
:103B10004943221452435118321452438918001455
:103B200040430818F121090640183E49884206D34F
:103B300000F068FE00200299088000996AE00120E8
:103B40000002029A1188014311801026049B780616
:103B500003D43146039E029C21E00120304305A995
:103B6000085C8A5D12021018188003203043085C3C
:103B7000022232438A5C120210185880052030431A
:103B8000085C04223243895C090208189880029C70
:103B9000208808210143218006213143039E019D95
:103BA000012000028030074215D005A84218537842
:103BB000405C0002C0182880D07893781B02181847
:103BC00068805079127912021018A880208870221B
:103BD00002432280891DB80718D005A84518EC7843
:103BE0006878C1070AD010490A68002A06D0072061
:103BF0002040411CA006400F90476878000705D57B
:103C00000A480168002901D0A0098847304600F021
:103C10009DF9002108460DB0F0BDC04606022020E7
:103C20000002202001000002F4012020F8012020E1
:103C300070B586B0044613480590134804901348A5
:103C400003900026F543C82C18D8E1B2C82001F033
:103C50006FF8401E01AA5070000A10700C48022133
:103C600001F034F8002809D10A480C2103AA01F018
:103C70002DF8002802D1084804803546284606B0B1
:103C800070BDC046BBAFDFDFAAF1DFDFFEF2ABC421
:103C900016020000C10A000004022020F0B583B023
:103CA0000446032108402D4B1D5C02AA15702C4DC3
:103CB000285C01AE30702006800F1F5C9770E7060D
:103CC000BF0FDB5D5370285CB070E85D7070254EEF
:103CD000304600F0FBFF0027FD43002829D1301DAE
:103CE000032101AA00F0F2FF002822D11E48019012
:103CF0001E48029060071FD4A00625D4E00505D514
:103D000001A86721817002A87721817030461A309E
:103D1000032102AA00F0DAFF00280AD10B360321A2
:103D200001AA304600F0D2FF002802D110480480DA
:103D30003D46284603B0F0BD01A82721017002A826
:103D400037210170A006D9D501A84721417002A8EA
:103D500057214170E005D3D4D8E7C046875C000006
:103D6000845C000026040000264666003656760075
:103D7000FC012020F0B585B00E4605460021CC435D
:103D800019208001864200D988E00720284000D110
:103D900084E0019103AF384600F046FA3046FDF763
:103DA00031FB4049FDF714FA39788A1E0121CA41D6
:103DB000072A73D88D21CE053B49C0467A44127933
:103DC000520097440E036B076B6B6B0B23214E065F
:103DD000384906E08B21CE05354902E045210E0623
:103DE00032490294074601F043FDFDF7A1FA04466B
:103DF00031462E4604ADE870384601F039FDFDF736
:103E000097FA6870210AA970000A2870AF1CF007A1
:103E100006D1B00711D47007029C24D4019C3DE068
:103E20003C46492087003846B030022104AA00F001
:103E30004DFF00280DD0029C30E049208400204630
:103E4000B430022104AA00F041FF00281ED0029CD9
:103E500024E0022138462746224600F037FF00289A
:103E6000D7D0029C1AE0492085002846B8300221AC
:103E700004AA00F02BFF002810D1083502212846A3
:103E80003A4600F023FF002808D1C7E7201D022191
:103E90003A4600F01BFF0028BDD0029C204605B02A
:103EA000F0BDC04600004843000040460000C0444A
:103EB000000040450000C04503490A68D207FCD114
:103EC000C2B28A617047C04608911040FFF7DCFA21
:103ED000FFF734FC1048016801220A430260FEF734
:103EE000CBFCFFF75DF80D480221016000F05CF9A2
:103EF00000280AD00AA42046FCF7CAFA3220FFF7AD
:103F00003DFC00F051F90028F5D108A0FCF7C0FAFB
:103F1000FEF776FCFCE7C04604B8864000E100E00E
:103F2000646D70206572726F720D0000496E697465
:103F300069616C697A6174696F6E20446174612093
:103F400053756363656564200D00000070470000D1
:103F5000F0B585B005462420BD4E305C002803D066
:103F60000024204605B0F0BDB07A0024E7430028C5
:103F70001DD0FE210D402840317C02913074A842B2
:103F800000D0E443307D284313D0707C00281ED13C
:103F900003AB01221A7003CEC07B0190087801990F
:103FA000083EFEF72DFE002811D103980EE03C4696
:103FB000D7E704AB0020187005CEC17B1078012232
:103FC000083EFEF71DFE002801D104987074002DF4
:103FD000C7D000F017FC0028C3D0029830743C46CC
:103FE000BFE7C046F0B597B014460E46054610A888
:103FF000019011A8009014A812A90CAA16ABFFF703
:104000003DFD002802D0012017B0F0BD11A80088A6
:10401000C00502D4022017B0F0BD0C98FDF7EAF9F4
:1040200061210696CE05314601F022FC0B900D98D9
:10403000FDF7E0F9314601F01BFC074609900E98A8
:10404000FDF7D8F9314601F013FC079404460F98A8
:10405000FDF7D0F9314601F00BFC06460A9003202B
:104060008107384601F004FC0590314601F000FC60
:1040700007460B98014601F08BFB0646214601F0EE
:10408000F7FB394601F084FBFDF778F800F0FEFFFE
:10409000434A444BFCF74EFFFCF73EFB2860089474
:1040A0002046214601F074FB07460A9901F0E0FB27
:1040B00005463046099E314601F0DAFB294601F0FB
:1040C00067FBFDF75BF8049003913046059901F01A
:1040D000CFFB0546089C2046394601F0C9FB014646
:1040E000284601F01DFC7F21C90501F051FBFDF7B9
:1040F00045F802460B460498039901F00FFA284A46
:10410000284BFCF717FFFCF707FB069908603046C1
:10411000214601F0ADFB05460B9C20460A9E314628
:1041200001F0A6FB0146284601F032FB014601F0F2
:104130002FFBFDF723F8054606912046214601F0A6
:1041400097FB07460998014601F092FB0146384665
:1041500001F01EFB07460898014601F089FB014665
:10416000384601F0DDFB04463046314601F080FB65
:104170000146204601F0D4FBFDF700F802460B464D
:104180002846069901F0CAF9054A064BFCF7D2FE0B
:10419000FCF7C2FA07990860002017B0F0BDC046CE
:1041A0006666666666A64C4080B500F057F8000665
:1041B00001D0002080BD782000F018FD000601D05D
:1041C000012080BD7820FFF7C3FE000601D0022049
:1041D00080BD642000F098FC000601D0032080BD63
:1041E000FFF73EFC000601D0042080BD8820FFF7C9
:1041F00055FD000601D0052080BDFF207430FFF77B
:10420000EDFA000601D0062080BD6420FFF710FD06
:10421000000601D0072080BD012000F007FC000649
:10422000C7D0092080BD000010B501460020CD4B4D
:104230005A7A032A0AD8D200064CD4400C70DB7C90
:10424000002B02D0044BD3400B7010BDC04310BDF7
:10425000040020200204081004081020F0B587B0E4
:1042600002AB80201870614F05CF817C107801224D
:10427000083FFEF7C5FC0026F443002818D164204F
:10428000FFF77CFA02AB1E7005CF817C1078012508
:104290002A46083FFEF7B4FC002809D105CF817DEE
:1042A0001078062202AB083FFEF77AFB002802D006
:1042B000204607B0F0BD02A8417829404279D207D4
:1042C000520FC078C007800F801841186BD00129A9
:1042D0002A4602D002297FD1324624203E5425208E
:1042E0003E5426203E5427203E54FF20B874387494
:1042F0005248F881FA743D73BC6028047E61BE6147
:10430000FE61386204AB1820187005CF81791078EF
:104310002A46083FFEF774FC0028C9D104A800789B
:10432000C0083872B87A0028C2D005A800210170F0
:10433000787A002810D005CFC1791078012205AB1A
:10434000083FFEF75DFC0028B2D105A80078C00840
:104350007872B87A0028ABD006A803210170F87AE9
:1043600003280BD005CF81781078012206AB083FD7
:10437000FEF746FC00289BD10698F872322000F028
:10438000C3FB002894D10020FFF7E2FD00288FD165
:104390000025284600F0DCFA002889D1284600F0E4
:1043A00025FC2C4684E705CFC1781078012202ABAA
:1043B0000192083FFEF7F4FA002800D078E702A83F
:1043C00001780F20084004280AD00028324684D102
:1043D0001948FCF75DF86BE705A0FBF7FDFE67E702
:1043E0000DA0FCF755F8019A77E7C046040020209D
:1043F000556E737570706F7274656420736F667438
:10440000776172652070726F64756374207265766F
:104410002025642E0A00000048616C662073656EDA
:104420007369746976697479207061727420666F3B
:10443000756E642E0000000026690000FFFF00007A
:10444000F0B58FB006460024E0430891002977D0EC
:104450002525EB49495D002972D10292009501930F
:104460000390002E5CD025460496331B102BE44AA3
:1044700000DB1023907A002864D00EA845702E0A25
:104480000670E8B299B207910F18506841898F42BF
:1044900058D800781168097E022209930EABFEF706
:1044A000AFFB099BD64900284CD1224634460898D8
:1044B000861805C9417D1078DAB206920596334612
:1044C000FEF79EFB00283DD1CD4A907A002839D0D6
:1044D000E0B20EA94D700870506841898F4231D802
:1044E00000781168097E02220EABFEF789FBC449F1
:1044F000002827D105C9417D10780AAB069AFEF73E
:104500004FFA00281ED10AA90598079AFBF7D6FF93
:10451000002822D109982D18ACB2049EB442A4D32D
:104520000EAB02985870000A1870B54C05CC817E0D
:1045300010780222083CFEF763FB0028039804D0A1
:104540000FB0F0BD03980FB0F0BD0120009960548A
:104550000198E08400200FB0F0BD0398401E0FB01A
:10456000F0BDC04604002020F0B589B00025EF431F
:10457000282800D9F1E0064600280BD00197232413
:10458000F24A105D01283BD0907C1346002818D0D9
:10459000322117E02324ED4D285D002800D1CDE025
:1045A000A87C411E02468A41510003AA11702221B3
:1045B000695C002900D1B5E0002800D1AEE07D2083
:1045C000ADE03021009504AA117022211D46595CEE
:1045D000002907D0002801D04D2000E04F20C04323
:1045E00004A9087005CD017D1078012704AB3A4677
:1045F000083DFEF705FB2A460028009D00D117550F
:1046000002A820210170012E19D102A800214170B9
:10461000907A00282FD005A806210170D07A0628AC
:1046200029D010681446526881781078012205ABB1
:10463000FEF7E6FA224600281DD105981AE0052E5D
:1046400033D802A801214170907A002813D006A81F
:1046500006210170D07A06280DD0106814465268E1
:1046600081781078012206ABFEF7CAFA22460028AC
:1046700001D10698D072019F02AB58788001C01D0D
:104680005870106814465268817C10780222FEF738
:10469000B7FA002861D10120207525730820A07287
:1046A0002846FFF755FC2F4657E0142E1AD802A8CB
:1046B00002214170907A0028019FDDD007A80521D2
:1046C0000170D07A0528D7D01068144652688178D6
:1046D0001078012207ABFEF793FA22460028CBD1CF
:1046E000079819E002A803214170907A0028019FE1
:1046F000C2D008A804210170D07A0428BCD0106868
:104700001446526881781078012208ABFEF778FAD7
:1047100022460028B0D10898D072ADE77F20C04370
:1047200003A9087005CD017D1078012203AB083D77
:10473000FEF766FA002801D1002028550720000264
:1047400002AB188005CD817C10780222083DFEF76F
:1047500057FA002801D100272F75384609B0F0BD5F
:10476000F0B585B006462420E64F385C0024E543CA
:10477000002842D0B87A00283FD00291039205CF9A
:10478000817A1078022204AB083FFEF709F900286D
:1047900033D104A84178007800024218B24203D213
:1047A00000200399087028E07868418849088A4207
:1047B00001920DD900783968497C012204ABFEF7DB
:1047C000EFF8002819D104A80078C00612D4786840
:1047D00000783968C97AF2B2029BFEF7E1F8002846
:1047E0000BD10198314600F0A3FA401E03990870DE
:1047F000254602E000F006F86D1E284605B0F0BD23
:104800000400202070B582B00026F443F64DA87A4B
:1048100000281ED001AB1E7005CDC17B107801228F
:10482000083DFEF7EDF9002813D105CD4179107848
:10483000012201AB083DFEF7E3F9002809D105CDBF
:1048400001791078012201AB083DFEF7D9F9002863
:1048500002D0204602B070BD2420285C002813D06E
:1048600001AB0C20187005CD017910780122083DAC
:10487000FEF7C6F90028ECD13220FEF77FFFA87AB8
:10488000C0073AD01F2039E001AB0420187005CDD5
:10489000017910780122083DFEF7B2F90028D8D13D
:1048A000A97A4020C907014600D06021AA7C002ACD
:1048B00000D0014601AB197005CD017910780122B5
:1048C000083DFEF79DF90028C3D13220FEF756FFC0
:1048D000687C411E884101AB187005CDC17B107802
:1048E0000122083DFEF78CF90028B2D105CD4179AF
:1048F0001078083501222B4621E03F20C04301AB50
:10490000187005CD017910780122083DFEF778F97D
:1049100000289ED1687C411E8841400001AB187080
:1049200005CDC17B10780122083DFEF769F900280A
:104930008FD101AB1E7005CD417910780122FEF7B1
:104940005FF9002885D1344683E7C0460400202063
:10495000F0B581B00446F54EB07CA04201D10025EF
:1049600060E005CE0179107801226B46083EFEF723
:1049700017F80027FD43002C19D0002852D16B46B0
:104980001878DF210140197005CE017910780122D5
:10499000083EFEF735F9002844D10320FEF7EEFE6D
:1049A0002220305C002826D07D20C04324E000284F
:1049B00038D16B461878DF210140B07AC007800EED
:1049C0000818187005CE017910780122083EFEF70C
:1049D00017F9002826D10320FEF7D0FE2220305CF4
:1049E000411E02468A41D1016A461170002805D055
:1049F0007F20C04302E00220694608702321715CD9
:104A0000002903D0302108436946087005CE017D96
:104A1000107801226B46083EFEF7F2F8002801D11B
:104A2000B4743D46284601B0F0BDC046F0B585B02F
:104A30002427BE4EF15D814201D100245FE00028B1
:104A400009D02520305C0024002825D0002925D05D
:104A500002AB1C7028E0002902D1B07A00280DD0EA
:104A600004AB0020187005CEC17B10780122083EEF
:104A7000FEF7C6F8002801D104987074307C01ABB1
:104A800018707068007823210122FEF7B9F800241D
:104A9000F455FFF7B7FE32E0E44330E0B07A002887
:104AA0000DD002AB0020187005CEC17B107801221A
:104AB000083EFEF7A5F8002801D102987074204640
:104AC000FFF746FFF08C00F01FF801AB1C70706818
:104AD0000078232101252A46FEF792F8F55503AB0D
:104AE0000220187005CEC17B10782A46083EFEF7DA
:104AF00087F8002801D103987074FFF783FE2046E1
:104B000005B0F0BD04002020F0B583B0054687490C
:104B10000026F443887A002863D02420085C00280B
:104B20005FD1087D00280BD0681E80B2272804D8EA
:104B3000E8B2FFF719FD344653E00020FFF714FDFB
:104B40000096E8087D21CE007D2800D33546042D4F
:104B500000D804253046294600F0EAF8401E01AB93
:104B60001870724D05CD4178107801273A46083DFE
:104B7000FEF746F8002834D101A80478611C3046BD
:104B800000F0D6F8E881A87A002829D0012C01D8B5
:104B900002A815E0042C02D802A8022710E00A2C73
:104BA00002D802A803270BE0182C02D802A8042779
:104BB00006E0312C02D802A8052701E002A806274A
:104BC0000770E87AB8420BD005CD817810780122C1
:104BD00002AB083DFEF714F8002801D10298E872F4
:104BE000009C204603B0F0BD0400202070B582B0C8
:104BF00004464006400F02D06846012105E06846A1
:104C0000002C01D0002100E040210170474E05CE6C
:104C1000817C107801256B462A46083EFDF7F0FF9F
:104C2000002803D00020B072C54328E020090421E9
:104C30008143A20600D4891C2840401868402107FF
:104C400000D438306B4619781870BF200840307394
:104C500005CEC17C10782A46083EFDF7D1FF00281A
:104C600003D00020B072C54309E008202043082883
:104C700008D100253575B4723220FEF77FFD284635
:104C800002B070BD2325705D0028F2D0B07C411EBB
:104C900002468A41510001AA11702221715C00294B
:104CA00007D0002801D07D2000E07F20C04301A96B
:104CB000087005CE017D1078012201AB083EFDF79A
:104CC0009FFF0028D5D100207055D2E7F0B581B004
:104CD0000027FC43002A25D00E46144B997A002960
:104CE00020D0154669464870020A0A70C0B2811980
:104CF00058684289914215D800781968097E0222C5
:104D00006B46FDF77DFF00280CD1084905C9417DA0
:104D10001078F2B22B46FDF773FF002801D104464C
:104D200000E0FC43204601B0F0BDC0460400202056
:104D300043088B421AD3002203098B4279D3030A1A
:104D40008B425ED3030B8B4242D3030C8B4227D39F
:104D50000902FF2212BA030C8B4202D3121209027B
:104D600003D0030B8B4233D31AE0D3E0411A8041C6
:104D7000401C704703460B4371D443088B42F5D364
:104D8000002203098B4254D3030A8B4239D3030B0D
:104D90008B421DD3030C8B4202D394466EE0090A6A
:104DA000C30B8B4201D3CB03C01A5241830B8B42FE
:104DB00001D38B03C01A5241430B8B4201D34B03E7
:104DC000C01A5241030B8B4201D30B03C01A52414C
:104DD000C30A8B4201D3CB02C01A5241830A8B42D1
:104DE00001D38B02C01A5241430A8B4201D34B02BA
:104DF000C01A5241030A8B4201D30B02C01A52411E
:104E0000CDD2C3098B4201D3CB01C01A52418309D1
:104E10008B4201D38B01C01A524143098B4201D30B
:104E20004B01C01A524103098B4201D30B01C01A36
:104E30005241C3088B4201D3CB00C01A52418308B0
:104E40008B4201D38B00C01A524143088B4201D3DD
:104E50004B00C01A5241411A524110007047CA0F0C
:104E600000D04942031000D34042534000229C46E8
:104E700003098B422DD3030A8B4212D38901FC22F2
:104E800012BA030A8B420CD3890192118B4208D3C8
:104E9000890192118B4204D3890137D0921100E02D
:104EA0008909C3098B4201D3CB01C01A524183093E
:104EB0008B4201D38B01C01A524143098B4201D36B
:104EC0004B01C01A524103098B4201D30B01C01A96
:104ED0005241C3088B4201D3CB00C01A5241830810
:104EE0008B4201D38B00C01A5241D9D243088B4266
:104EF00001D34B00C01A5241411A00D2014652411F
:104F0000104663465B1000D34042704763465B1017
:104F100000D3404201B50021004201D0C9430846F8
:104F2000C046C04602BDF8B5040C8BB2264682B21C
:104F30005E43104658430D0C370C3604002180198F
:104F4000164679416E43370C36048019264679415E
:104F50006E438919F8BD00004900CA0202431000DF
:104F600000D004204A0D01D001221043044A490D0B
:104F7000914201D102210843012800D10520704748
:104F8000FF070000F8B504464F1EC8000838211876
:104F900015461E46086849683A4606239A4310D0CB
:104FA0002A463346FBF7C6FF3A46D200083AA31812
:104FB0001A687F1E5B68FBF769FD06223B46934338
:104FC000EED1022F23D0042F11D0062F2FD12A4645
:104FD0003346FBF7AFFFE36AA26AFBF757FD2A46A9
:104FE0003346FBF7A7FF636A226AFBF74FFD2A46A9
:104FF0003346FBF79FFFE369A269FBF747FD2A46AB
:105000003346FBF797FF63692269FBF73FFD2A46AA
:105010003346FBF78FFFE368A268FBF737FD2A46AC
:105020003346FBF787FF63682268FBF72FFDF8BD67
:1050300010B50122FCF796FC10BD10B5FBF726FD5C
:1050400010BD002210B5134610461146FBF74EFD69
:1050500010BD0000034A10B500201107FCF782FCC8
:1050600010BD000001FDFFFF10B500F0D7FBEFF30E
:105070000080400001D5012010BD002010BD303857
:105080000A2801D20120704700207047F0B504467D
:105090004F008E488FB07F080D460D91874228DB68
:1050A0004042381820430CD08948874203DC8742AD
:1050B00018D1002C16D020462946FFF7B9FF0FB0B3
:1050C000F0BD844A844B20462946FBF733FF074650
:1050D0000E46824A824B20462946FBF72BFF3A4672
:1050E000334649E00120FCF795F9FFF7AAFF0FB01E
:1050F000F0BD7C48874243DAF920800587420BDA0D
:1051000020462946FFF728FF042801D1FFF7A2FF18
:10511000204629460FB0F0BD22462B4610462946B0
:10512000FBF708FF064602466F480F460B4606216E
:105130007844FFF727FF32463B46FBF7FBFE06901D
:105140006A48079132463B4604217844FFF71AFF2C
:1051500032463B46FBF7EEFE00225C4BFBF796FC2B
:1051600002460B4607990698FBF7C0FC22462B46E1
:10517000FBF7E0FE22462B46FBF788FC0FB0F0BDA4
:105180002046524C6900490800222346FBF796FC52
:105190000022D243FCF7E6FB0546024654480E4681
:1051A0000B4606217844FFF7EDFE2A463346FBF70F
:1051B000C1FE06904F4807912A46334604217844A1
:1051C000FFF7E0FE2A463346FBF7B4FE00222346F3
:1051D000FBF75CFC059104902846314600F06CFA20
:1051E000089045480C46874219DB059B049A0799AD
:1051F0000698FBF77BFC02460B4621460898FBF716
:1052000099FE2346089AFBF741FC0122FCF7AAFB12
:10521000304A314BFBF747FC304A314B4AE000271C
:105220003A460B460898FBF731FC3A4623460A916A
:105230000E9010461946FBF77DFE2A463346FBF7D3
:105240003DFC0A9B0E9AFBF751FC05460E46059B5A
:10525000049A07990698FBF749FC009104900122F3
:1052600028463146FCF77EFB1A4A1B4BFBF726FC0F
:105270000E460546012221460898FCF773FB009B69
:10528000049AFBF757FE2A463346FBF70CFC05460B
:105290000E46012238462146FCF764FB0F4C174F9F
:1052A00022463B46FBF70AFC2A463346FBF706FC40
:1052B00022463B46FBF702FC0D9A002A00DD5DE723
:1052C0000122D20751400FB0F0BD00000000F03FB6
:1052D0000000F07F075C143326A6913C182D44543F
:1052E000FB21F93F0000E03FCC090000E20900008B
:1052F000580900006E0900003333EF3FFB21E93FFE
:10530000F0B589B004460D46480006917249400840
:10531000884215DB7149884203DC884207D1002CA2
:1053200005D020462946FFF783FE09B0F0BD6C4842
:10533000002D02DD6B4909B0F0BD6B4909B0F0BD2D
:105340006A49884211DA6A4988420BDA20462946BE
:10535000FFF702FE042801D1FFF77CFE2046294614
:1053600009B0F0BD0026F6435DE06D0061496D08AF
:10537000884232DA6049884219DA0026012332462F
:105380009B0720462946FBF781FB07460191012236
:1053900020462946FCF7E6FA0022584BFBF783FB30
:1053A0003A46019BFBF7A2FB04460D463BE0012673
:1053B0000022524B20462946FBF768FB0746009126
:1053C00000224E4B20462946FBF76DFB3A46009BD8
:1053D000FBF78CFB04460D4625E04949884219DA63
:1053E00002260022474B20462946FBF7A3FD002258
:1053F000424BFBF74BFB074602910022414B2046F4
:105400002946FBF750FB3A46029BFBF76FFB04462D
:105410000D4608E0032622462B4600203A49FBF7BA
:1054200065FB04460D4622462B4610461946FBF7FF
:1054300081FD07460B4602460191FBF77BFD0246C4
:10544000029032480B46039106217844FFF79AFDFB
:105450003A46019BFBF76EFD00902D480191052116
:105460007844039B029AFFF78DFD039B029AFBF79A
:1054700061FD02460B4601990098002E0BDAFBF7FE
:1054800005FB22462B46FBF755FD22462B46FBF734
:1054900015FB09B0F0BDFBF7F9FA22462B46FBF7E6
:1054A00049FD1C4AF6007A4493191A685B68FBF7B9
:1054B000FAFA22462B46FBF7F6FA174A7A44931972
:1054C0001A685B68FBF7FAFA069A002AE1DA012209
:1054D000D207514009B0F0BD000010440000F07F39
:1054E000182D4454FB21F93FFB21F9BF0000DC3F9C
:1054F0000000203E0000F33F0000E63F0000F03FC8
:10550000008003400000F83F0000F0BF6A07000081
:105510002C070000C606000090060000F0B51FB47E
:10552000039A029D53006E422E439446F40F5B088B
:105530004A00574E52081C438E46B44205D8474293
:105540000743FC0F1443B44205D92A466346FFF7CC
:1055500074FD05B0F0BD4F4E66442E430AD0CC0F0B
:105560006646B61702273E40264304464A4F144378
:1055700004D00BE0FFF7C4FE05B0F0BD002EFBD059
:10558000012EF9D0022E32D0032E34D01C462C43EB
:105590000BD03F4CA34216D1A2420AD10121890768
:1055A0008B438A43114603930DE0704600280FDBBE
:1055B00025E03A4D7D44002E0ED0012E10D0022E53
:1055C00015D0032E17D0A2421DD17046002816DA3E
:1055D0003148334905B0F0BD6968286805B0F0BDB1
:1055E00001226968D2072868514005B0F0BD3846ED
:1055F0002C4905B0F0BD38462B4905B0F0BD264812
:105600002A4905B0F0BDD21A12153C2A02DD224DFE
:10561000264C12E06346002B05DA3C23DA4202DA1C
:1056200000252C4609E0039B029AFBF75FFA49002C
:105630004908FFF765FE05460C46002E12D0012EE4
:105640000DD01B4A1B4B022E2846214618D0FBF7D3
:105650002AFA3A46134BFBF726FA05B0F0BD0120B3
:10566000C0074440002213462846214600F05EF859
:1056700002D10220FBF7CEFE2846214605B0F0BD40
:10568000FBF711FA3A46074BFBF718FA05B0F0BDE5
:105690000000F07F000010C0182D445430060000B8
:1056A000FB21F9BFFB210940FB2109C0FB21F93F88
:1056B000075C143326A6A13CF8B506460C46FCF759
:1056C000A3FD051E0F4600D00120014349000B48F1
:1056D0004908411AC90F0DD0002E01D0012100E068
:1056E00000210C4361004908401AC00F02D101207B
:1056F000FBF790FE28463946F8BD00000000F07F19
:1057000010B500290AD00878002807D00548784449
:10571000FCF758FE002801D0002010BD0248784454
:1057200010BD0000B2120000AA12000070B50125E1
:105730002D050C001C4310D4EC4206D4AC420AD414
:10574000994200D070BD904270BDE94217D4EB423F
:1057500015D4994270BD894270BDEC4206D5AC4269
:10576000F9D58B4200D070BD824270BD6D004C00F7
:10577000EC4204D25C00EC4201D28B4270BD034C7F
:1057800030B4FCF7F1FC30BC70BD00BF190012044E
:1057900070B50125ED0704004C4020D4441A01D215
:1057A000001B0919C60D4B00F2B2FF2A29D01B0EAF
:1057B0002CD000020C0228432C43D31ADC400519DC
:1057C00010D2280A02D3401C6D0611D0761EF605B1
:1057D0008019FF2A00DA70BDC00DC00570BD694098
:1057E00000F0A4F801200543C541521C761CE8E7EF
:1057F00064089C40C90161408900E7D10124A043AD
:10580000E4E71B0E440200D0034870BD002AFCD11F
:10581000C00FC00770BD00BF0000C07F0123DB05C3
:1058200002000A430DD4DA4203D49A4207D48842D4
:105830007047D84214D4D94212D48842704780426B
:105840007047DA4203D59A42F9D5814270475B002E
:105850004200DA4204D24A00DA4201D28142704761
:1058600010B5024AFCF750FD10BD00BF090012043C
:1058700070B5420064414B005C41120E39D01B0EE2
:1058800038D0FF2A3CD0FF2B3AD0D2187F3A4002C2
:105890004902400A490A4518ED0106004E43000A34
:1058A000090A48430104731A4019190C4318990F47
:1058B00004D05B08012149075B1A521CD80904D3A4
:1058C000401CF50301D19D0607D0FF2A08D2D5055B
:1058D00006D0E4072043401970BD0125A843F4E732
:1058E000002A01DCE00770BD2402FF202043C00530
:1058F00070BD1B0EFF2A03D0FF2B01D0E00770BD47
:10590000FF2636064500B54206D84D00B54203D8FD
:10591000D218FF2A00D0E7E7004870BD0000C07F22
:1059200070B50125ED0704004C4022D4441A02D280
:105930006C40001B0919C60D4B00F2B2FF2A4BD078
:105940001B0E50D000020C02A8432C43D31ADC409B
:10595000051B05D5AD0019D36D08761E521E37D034
:10596000F605280A01D2801970BD70416D0603D07A
:1059700070BD6940FFF712FF9C4009026140490079
:1059800001D0401E70BD0124A04370BD6D081DD024
:1059900001202B0C01D12D0410302B0E01D12D0232
:1059A00008302B0F01D12D01001DAB0F01D1AD002F
:1059B000801CEB0F01D16D00401C361A121A6D00CD
:1059C000680AF5054019012A02DB70BD002070BD90
:1059D000C036300AC00770BD1B0E440201D1FF2B38
:1059E00000D1024870BD002AF0D070BD0000C07F19
:1059F00003B402487844844603BC604775BCFFFF8B
:105A000030313233343536373839414243444546F4
:105A100040305800303132333435363738396162EE
:105A200063646566403078000400000800000000F0
:105A300000000002000100001080807F7E7D7C7BE2
:105A40007A7978777676757473727171706F6E6E1D
:105A50006D6C6C6B6A6A69686867666665646463C6
:105A60006362616160605F5F5E5E5D5D5C5C5B5B4D
:105A70005A5A5959585857575656555555545453BC
:105A80005352525251515050504F4F4F4E4E4D4D18
:105A90004D4C4C4C4B4B4B4A4A4A49494948484863
:105AA00047474747464646454545444444444343A3
:105AB00043434242424241414181828384858687F9
:105AC00088898B8C8D8E8F919293959697999A9CBD
:105AD0009D9FA0A2A3A5A7A8AAACAEB0B2B3B5B72C
