:020000040000FA
:10000000B803202091010000950100009701000035
:1000100000000000000000000000000000000000E0
:100020000000000000000000000000009901000036
:1000300000000000000000009B0100009D01000086
:100040009F010000150C00009F0100009F010000AF
:100050009F0100009F0100009F0100009F01000020
:10006000000000009F0100009F0100000000000050
:1000700000000000911900009F0100009F01000096
:100080009F0100009F0100009F0100009F010000F0
:10009000851900009F010000000000000000000022
:1000A0009F0100009F010000000000000000000010
:1000B0009F010000000000009F0100009F01000060
:1000C00000F002F800F054F80CA030C808382418EA
:1000D0002D18671EA246AB4654465D46AC4201D180
:1000E00000F046F87E460F3EB6460FCC012633425E
:1000F00000D0FB1A3343A246AB461847943C00009D
:10010000B43C000000000000103A02D378C878C167
:10011000FAD8520701D330C830C101D504680C6049
:100120007047000000000000002300240025002686
:10013000103A01D378C1FBD8520700D330C100D5A3
:100140000B60704710B5642902D100F095F810BD1E
:10015000782902D100F0C6F810BD732902D100F051
:1001600057FB10BD002010BD1FB51FBD10B510BD41
:1001700000F09AFB1146FFF7F7FF01F021FF00F0B6
:10018000B2FB03B4FFF7F2FF03BC01F025FC000053
:1001900006480047FEE7FEE7FEE7FEE7FEE7FEE76C
:1001A00003480449024A044B70470000C1000000A4
:1001B000B8022020B8032020B80220200FB405493F
:1001C00010B503AA029800F027FB10BC08BC04B0CD
:1001D000184700006401202070B504468569006856
:1001E000C10601D5302600E02026C00707D070BD2B
:1001F00062683046A1689047206A401C20626D1EEC
:10020000F6D570BD70B5044685690078C00707D182
:1002100070BD6268A16820209047206A401C20625F
:100220006D1EF6D570BD70B50C460546012A05D089
:100230002878800600D5EA69002302E0012305E062
:100240005B1C934202D2E05C0028F9D1A869E61851
:10025000C01AA861286AC01828622846FFF7BCFFA8
:1002600004E06A682078A968641C9047B442F8D317
:100270002846FFF7C7FF70BDF7B500257529106840
:10028000009914A611D0C046C046002802DA4042A8
:1002900011A608E0009909688A0701D50FA602E0B7
:1002A000490704D50EA6012501E0C046C046009FBF
:1002B0000024243704E000F0C3FA30313955641CBF
:1002C0000028F8D12B4632462146009800F035FA36
:1002D000FEBD0000000000002D0000002B0000000B
:1002E0002000000070B504460D4621461068C04647
:1002F000C0462188090502D50F4A7A4402E00E4A19
:100300007A440E3223460021243305E00607000913
:10031000360F965D5E54491C0028F7D120780023E3
:10032000000705D5702D03D0002901D0022311321A
:10033000204600F002FA70BDFE2C0000F3B5044622
:10034000002081B020622046E168884700287DD0E7
:10035000252802D06268A16883E0454F00257F44CC
:100360002046E16888472028064608DB312E06D261
:10037000B81920380078002801D00543F0E7A80715
:1003800001D5042085430020E0610746A0612A2EA4
:100390000AD0304602F025FD002827D0B800001909
:1003A000303E0090866119E00298BA00121902C826
:1003B000916102902046E1688847012F064617D1D7
:1003C000E06900281FDA202085431CE000980A21FC
:1003D0008069484300998019303888612046E16877
:1003E0008847064602F0FDFC0028EFD1012F0AD015
:1003F0002E2E08D12046E168884706462020054376
:100400007F1C022FC3DBA069002803DA4042A061F1
:1004100001200543E80701D010208543002E24D099
:1004200030464138192803D80120C0020543203640
:10043000204625603146029A1546FFF783FE0028C4
:100440000CD0012807D0ED1DE80800E00DE0C00049
:100450000830029077E72D1D029574E762683046F8
:10046000A1689047206A401C6CE7206AFEBD00002E
:10047000C22C000010B5044603E001F097FD401CBB
:1004800008D020780549641C0028F6D10A2001F024
:100490008DFD10BD0020C04310BD00006401202070
:1004A000034610B50B439B070FD1042A0DD308C890
:1004B00010C9121FA342F8D018BA21BA884201D934
:1004C000012010BD0020C04310BD002A03D0D30777
:1004D00003D0521C07E0002010BD03780C78401CAC
:1004E000491C1B1B07D103780C78401C491C1B1BA3
:1004F00001D1921EF1D1184610BD70477047704768
:10050000F0B5FF252D04C609C209FF2704462E4079
:100510000137CB093E4348402A402B400746002A7A
:100520006BD0002B69D0AA4267D0AB4265D00028BF
:1005300000DA32460125ED0529432C430902200249
:10054000090AD21A4B0C7F24E31A434C000A7C445C
:10055000E35C7D242404121914145B00A218884261
:1005600001D3521C00E0400049420C465C43241178
:100570005C43DB016415E318040A5C43C502200DEB
:100580000C4644436419250A5D432303EC0C0D46D5
:10059000654300030019EB184C42A34201D35B18DA
:1005A000401CD4052018002B07D05B00C91804D3C9
:1005B000401C002901D1400840003F2189048A42A3
:1005C00009D3002A08DC1106090F04D003214907CA
:1005D0004018C00FC007F0BD012241001206891863
:1005E0007F2252069142F6D205214907C84201D521
:1005F0009010F0BDFF20C005F0BD002F00DA32469C
:100600001648AA4207D2AB4205D21902090E17D0EA
:10061000F80FC007F0BDFF2563002D06AB42F9D8E7
:100620004900A942F6D8AB4201D1A942F2D0A94271
:1006300001D1002101E061004908D0050843F0BD67
:100640001102090EFBD0FF200243D005F0BD0A467F
:100650000146104654E70000E32A00000000C07F76
:1006600010B501469E240002CA15A307002A02D035
:100670001843002A04DBA21A002A0CDDD04010BD6A
:100680001206120E01D140004008A21A03D4D04035
:1006900040420028F3DDFF2248001206904201D9B3
:1006A000002010BDC817C043584010BD0102C2153C
:1006B00004D00123DB071943002A0ADB9E239A1A80
:1006C00002D40846D0407047FF22410012069142F2
:1006D00001D900207047C017C04370471F22030C88
:1006E00002D10F2200041CD0030E01D10002083AEF
:1006F000030F01D10001121F830F01D18000921E50
:10070000002801DB4000521ED20551180212511878
:100710001922904004D3491C002801D149084900FE
:1007200008467047C10FC90700D040420122920716
:100730001143D3E701218907D0E7FFB504460D46F1
:1007400081B0243000902168880604D51022E06929
:100750009143216000E00120A84201DD471B00E039
:1007600000270498A1697A191018081AA061207846
:10077000C00602D42046FFF72FFD002608E00398AC
:100780006268A168805D9047206A401C761C2062E8
:1007900004988642F3DB2078C0060AD52046FFF78E
:1007A0001BFD06E06268A16830209047206A401C6B
:1007B000206238467F1E0028F4DC07E0009862685B
:1007C000A168405D9047206A401C206228466D1E4B
:1007D0000028F3DC2046FFF715FD2078000602D53F
:1007E000022005B0F0BD0120FBE710B54369002BE6
:1007F00002D0C046C04601E0FFF715FD012010BD44
:100800001278014624310A7000224A700122ECE776
:1008100011680022D243E8E7084B70B50D467B44CF
:1008200000F027F80446284600F036F8002802D0E9
:100830000020C04370BD204670BD00008B17000033
:1008400001468008081A02091018020A1018020C42
:100850001018C008820012185200891A01E0401CCA
:100860000A390A29FBD2704701694A1C02610878DB
:10087000704700B58FB002910021059105490193A1
:1008800079440391114604906846FFF757FD0FB075
:1008900000BD0000E5FFFFFFC068802108407047F1
:1008A00000487047300020207546FFF7F9FFAE463C
:1008B000050069465346C008C000854618B020B5FB
:1008C000FFF76EFC60BCB64600260027C0C5C0C559
:1008D000C0C5C0C5C0C5C0C5C0C5C0C5403D49082C
:1008E00049008D46704710B50446C046C0462046B4
:1008F000FFF747FC10BD000000280CD0017800294C
:1009000009D0054A1368DB07FCD19161431C41788B
:1009100000291846F6D170470811104080B5012013
:100920004003044908600449086004A0FFF7A2FDE1
:1009300080BDC04680E200E000E100E0426C7565E9
:10094000746F6F74685F496E697420737563636553
:100950006564210D00000000811E091F00BFFCD24C
:1009600070470000F0B5684A8218294BC31808790F
:1009700020280DD000281DD10C68641E5460D56E4F
:10098000244C25408835D5661646703688251DE0EE
:100990000C68641E5460D46E1E4D2C401E4EA4196B
:1009A000D466146F2C40A4191467012465071B4CEE
:1009B00016460BE00C6864085460D66E154C264051
:1009C0000525ED017619D66616467036376827403C
:1009D0002F433760D46A4E4D2C40D462146B2C40A8
:1009E00014630024D46414658F24E443D56F254038
:1009F000D5671D6825401D6049790143BD20084029
:100A00001168074B0B40C018801C1060F0BDC04639
:100A10008418000024F93FF001040000FFFFFFCF1D
:100A20004000FFCFB0B54A68364BC250364A8018F6
:100A30000A78222A58D8930001A4E3589F46C0465A
:100A4000DF0A0000E90A0000DF0A0000E90A0000EE
:100A5000E90A0000E90A0000E90A0000E90A0000CA
:100A6000E90A0000E90A0000E90A0000E90A0000BA
:100A7000E90A0000E90A0000E90A0000E90A0000AA
:100A8000CD0A0000E90A0000CD0A0000E90A0000D2
:100A9000E90A0000E90A0000E90A0000E90A00008A
:100AA000E90A0000E90A0000E90A0000E90A00007A
:100AB000E90A0000E90A0000E90A0000E90A00006A
:100AC000CD0A0000E90A0000CD0A000003231B073D
:100AD00004689C4301235B07E318036004E00323DD
:100AE0001B0704689C4304600B69C360CB68074C18
:100AF0001C40C36A064D1D402B19C362097A11437D
:100B00000160B0BD081800000418000077770200EB
:100B10008888FDFF10B507239B04194092008018B8
:100B2000024A84589C436118815010BD301800005F
:100B300010B5029CA400001911431943014A8150C9
:100B400010BDC0465018000092008018014A815024
:100B50007047C0461018000010B501221203831818
:100B60000C789C604B7883508978014A815010BD85
:100B70000C110000B0B51122120283580124A343C6
:100B800083500B888C781C438B882343094C1C4072
:100B90008358094D1D40631983508B79CC791C43D0
:100BA000097A21437E231940801842689A435118DC
:100BB0004160B0BD18670000E798FDFF10B5012245
:100BC000120383180C789C604978815010BD000096
:100BD00080B5084801680022026007480368026087
:100BE00008B219B20818C10F4018411003A0FFF74E
:100BF000E5FA80BD5C01202060012020456E636F16
:100C00006465725F72696768745F6F75743A2025F6
:100C1000640A000070B50020C14313480246103A30
:100C200013681A06114A02D45B0710D470BD146809
:100C3000640601D50C4600E001240D4D2E683419E0
:100C40002C6004688025254305605B07EED512689B
:100C5000120700D40121074A13685918116001686E
:100C600004220A43026070BD48300A4080330A40C3
:100C7000600120205C01202080B50948017801290D
:100C800001D10021017007480178012901D100211B
:100C90000170FFF79DFF044800F0D6FA80BDC04602
:100CA0005B0120205A0120200000FA43F0B589B0F2
:100CB000DC4881210160DC480221016001640A20D6
:100CC00000F0ACFE68266B27012480230393304696
:100CD0003946224600F0AEF9642000F09FFE002560
:100CE0003046394622462B4600F0A4F91B21182332
:100CF0003046224600F09EF91C21304622462B4603
:100D000000F098F906AB13200290187019213046B4
:100D1000224600F08FF907AB0420019018701A21C9
:100D20003046224600F086F93821304622462B46CE
:100D300000F080F96A21304622462B4600F07AF90D
:100D40002321304622462B4600F074F937213046E5
:100D50002246039B00F06EF908AF3D8075213046B6
:100D600022463B4600F036F801461748FFF726FAC0
:100D70003878682822D1164868252946FFF71EFAD8
:100D80006B2128462246234600F054F96C210023AB
:100D90002846224600F04EF904AB0298187019213B
:100DA0002846224600F046F905AB019818701A2132
:100DB0002846224600F03EF9254602E00348FFF7A8
:100DC000FDF9284609B0F0BDDF3C0000FA3C000008
:100DD000E83C0000F0B589B00593029204910890B8
:100DE00090498120079008608F4E02273760376452
:100DF00001243460376137600525284600F026FE5F
:100E00003761284600F022FE3461089840000890BF
:100E1000C0B200F015FD8349346137608348086033
:100E200003943460824D286880070DD50A2405207C
:100E300000F00CFE2968641E200601D03940F6D16E
:100E40000028FE4900D1A1E0012434610798086020
:100E500037603764049800F0F3FCF8493461376078
:100E6000F8480860346028688007069410D5344636
:100E70000A26052000F0EAFD2968761E300601D01A
:100E80003940F6D100282646EC49069C00D191E075
:100E9000019734610798086002273760376408605B
:100EA000376037643460376137600520049000F0A4
:100EB000CDFD3761049800F0C9FD346108982043E6
:100EC000C0B200F0BDFCDD4934613760DD48086028
:100ED0003460286880070FD534460A26052000F0C4
:100EE000B5FD2968761E300601D03940F6D10028BC
:100EF0002646D249069C70D0346107980860376056
:100F000037640025029802280095344621D3401EFC
:100F1000049000252E4600F0EFF9059948550798F2
:100F2000C6490860276027643D46069F2761256102
:100F30000520089000F08AFD25612760089800F0E0
:100F400085FD27612F462560761CF5B20498A842DE
:100F5000E1DC00F0D1F905994855B84807990160DE
:100F600027602764069E266127610525284600F034
:100F70006DFD27602660284600F068FD2661276029
:100F80002646019FAD4C0798009D39E0079D0D60F6
:100F9000376037640398306137613060052420463C
:100FA00000F054FD37602046A44C00F04FFD284669
:100FB000039D25E0079D0D6037603764346137611C
:100FC00034600524204600F041FD376020469B4CEC
:100FD00000F03CFD28463D4612E0079D0D6037605D
:100FE00037643461376134600524204600F02EFDFB
:100FF00037602046914C00F029FD28460325019FCB
:1010000020603760376403983061376130600524B1
:10101000204600F01BFD3760204600F017FD2846F3
:1010200009B0F0BD0880424090120A4081000400DF
:1010300080130A40F0B585B00193029200910490AC
:101040007E498120039008607D4C0225256025643F
:1010500001272760256125600526304600F0F6FC53
:1010600025613046264600F0F1FC276104984006D1
:10107000000E00F0E5FBEE4927612560ED480860B1
:101080002760EE4C206880070FD504970A260520BC
:1010900000F0DCFC2168761E300601D02940F6D134
:1010A0000028674EE249049F65D001273761039805
:1010B000086035603564009800F0C2FB3A46DC49B0
:1010C00037613560DB480860376020688007039F20
:1010D00004920ED50A27052000F0B8FC21687F1E77
:1010E000380601D02940F6D10028D149039F049A3F
:1010F00061D032610F6002253560356402980028A6
:1011000028D000270DE000284D4EC949049A71D01F
:10111000326103980860356035647F1C029887420D
:1011200018D00198C05D00F08BFB049AC049326171
:101130003560F7480860326020688007E8D50A26E5
:10114000052000F083FC2168761E3006DBD02940A4
:10115000F6D1D8E7039808603560356432613561AF
:1011600032600524204600F071FC3560204600F016
:101170006DFC00275EE003980860356035643761D8
:101180003561376034460526304600F05FFC256047
:10119000304600F05BFC0398A54908602560256493
:1011A000276125612760304600F050FC25603046FD
:1011B00000F04CFC3EE00F60356035643261356113
:1011C00032600524204600F041FC3560204600F0E6
:1011D0003DFC97480760356035640498306135619F
:1011E0003060204600F032FC3560204600F02EFCD6
:1011F0002F461FE003980860356035643261356121
:1012000032600524204600F021FC3560204600F0C5
:101210001DFC039886490860356035640498306188
:1012200035613060204600F011FC3560204600F04A
:101230000DFCFF1CF8B205B0F0BDC046088042406E
:1012400090120A4081000400F0B581B004460025E8
:101250002846294600F02EF82046FFF701FA0446FA
:1012600012480088001B00B2FFF75CFA1049214EBB
:101270008C42314600DC014601270846394600F021
:1012800019F82846294600F025F808480088001B70
:1012900000B2FFF747FA06498C4200DC06463046AA
:1012A000394600F017F801B0F0BDC046000020201C
:1012B0009F0F000010B50C4601290AD801460D48C1
:1012C00001F034FEFFF7F2F90146B3482246FFF77A
:1012D0003BFC10BD10B50C4601290AD80146054853
:1012E00001F024FEFFF7E2F90146CA482246FFF763
:1012F0002BFC10BD00007A45F0B587B04C488449FE
:1013000001604D4F01263E600524204600F09EFB03
:101310003D46103D2E60204600F098FB474800688F
:101320000690204600F092FB3E60204600F08EFBC7
:101330002E60204600F08AFB404800680590204659
:1013400000F084FB3E60204600F080FB2E602046CB
:1013500000F07CFB394F38680490204600F076FBA3
:1013600035480660204600F071FB2E60204600F0F4
:101370006DFB38680390204600F068FB2E4806603D
:10138000204600F063FB2E60204600F05FFB3868CB
:101390000290204600F05AFB27480660204600F0E5
:1013A00055FB2E60204600F051FB38680190204626
:1013B00000F04CFB20480660204600F047FB2E6002
:1013C000204600F043FB1D480768204600F03EFB26
:1013D00019480660204600F039FB2E60204600F0D8
:1013E00035FB16480568204600F030FB12480660C1
:1013F0000220049B0340069A024005998907C90F01
:1014000089188900C918039A9207D20F51188900C8
:10141000029A02408918019A9207D20F5118890046
:101420000740C819A907C90F0818C0B207B0F0BD16
:101430000880424081000400A0120A4080130A4044
:1014400010B5064C2078012807D105A00749FEF702
:10145000B5FE074800210170217010BD5801202001
:1014600064617461203D2025730D0A0090002020E6
:101470005901202070B523498420C86401239C06AB
:10148000214A14600865DC06146086248C615C05C2
:1014900014608824CC619B0513601C4C8225256553
:1014A0001B4B5E1C6665A564E6641A4D0D606363A4
:1014B000812626606660A563E563E565A5654B61E9
:1014C0000B610B620B631146403903240C601460FE
:1014D00011490A68102414430C60813B0F490A6AC1
:1014E0001A430A620A681A430A600D490A680D4BDA
:1014F00013430B600C490A6A02430A620A680243FA
:101500000A6070BDA0804240D0120A400480424070
:101510008100040081000500A0130A4028100A4041
:1015200090330A401040000028300A40F0B581B0E6
:10153000194C1A492046FFF70FFB19492046FFF7BF
:1015400011FA00250095204629462A462B46FFF72A
:10155000EFFA204629462A46FFF7DCFA304E2046AD
:1015600031462A46FFF7F0FA012700972046294620
:101570002A462B46FFF7DCFA204629463A46FFF773
:10158000C9FA204631463A46FFF7DEFA0548876039
:101590000321016001B0F0BD00808640713C000075
:1015A000743C000000918640F0B581B0194C1A4996
:1015B0002046FFF7D1FA19492046FFF7D3F9002555
:1015C0000095204629462A462B46FFF7B1FA2046C9
:1015D00029462A46FFF79EFA114E204631462A46F2
:1015E000FFF7B2FA01270097204629462A462B46E4
:1015F000FFF79EFA204629463A46FFF78BFA204627
:1016000031463A46FFF7A0FA064887600321016099
:1016100001B0F0BD000009407C3C0000803C0000AF
:10162000AF040000001109400C48002101600320B4
:10163000C1430B480246083A13680B401360016827
:10164000012291430160110203688B43036011037F
:10165000001F02680A4302607047C04608030B403F
:1016600008010B400548042101601F214160002151
:101670008160016805220A430260704710E000E0C3
:1016800010B5084C08492046FFF766FA074920467E
:10169000FFF7C8F9064801680122114301600548B7
:1016A000026010BD00A08640883C00008C3C000019
:1016B00028B0864008B18640B0B5184C184920467D
:1016C000FFF77CFA17492046FFF754FA0322D103AB
:1016D000154803688B430360036930490B401A3394
:1016E0000361436913433C229343436143680122EE
:1016F000134044689443E318436093020B4C2568FD
:101700001D432560FF310A4B1C680C409103611892
:101710001960016811430160B0BDC046000010406F
:10172000A03C0000A23C0000001110402810104016
:101730000CE400E010B5154C15492046FFF73EFAC1
:1017400014492046FFF716FA0320C1031248026825
:101750008A4302600169114A0A40113202614169FB
:1017600017220A4328218A4342614168012211401D
:1017700043689343591841609102094B1C680C431C
:101780001C6001681143016010BDC046008010401C
:10179000AC3C0000AE3C0000009110400000FFFF98
:1017A0002890104080B500F01BF8FFF763FEFFF7AC
:1017B0003BFFFFF7F9FEFFF7B9FEFFF761FFFFF709
:1017C000B9FFFFF779FFFFF74DFF742002490022B0
:1017D0000A5402490A5480BD3C022020C401202042
:1017E000F0B581B00D480E4941600E4A51600E4B74
:1017F00059600E4C61600E4D69600E4E71600E4F67
:1018000079600E49016011601960216029603160C2
:1018100039601020FFF7A0F801B0F0BD00080A40C1
:10182000030000B100280A400008094000888640F3
:1018300000A88640008810400008104001000026E3
:10184000F0B581B04D4A812111604D4F02253D60B8
:101850003D6401243C61009040B2002801D43D6108
:1018600000E03D60204600F0F1F83C60052630467F
:1018700000F0ECF83C61304600F0E8F800984006D3
:1018800001D43D6100E03D60204600F0DFF83C609F
:101890000526304600F0DAF83C61304600F0D6F814
:1018A0000098800601D43D6100E03D60204600F0D4
:1018B000CDF83C600526304600F0C8F83C61304663
:1018C00000F0C4F80098C00601D43D6100E03D601E
:1018D000204600F0BBF83C600526304600F0B6F824
:1018E0003C61304600F0B2F80098000701D43D6139
:1018F00000E03D60204600F0A9F83C600526304637
:1019000000F0A4F83C61304600F0A0F800984007D1
:1019100001D43D6100E03D60204600F097F83C6056
:101920000526304600F092F83C61304600F08EF813
:101930000098800701D43D6100E03D60204600F042
:1019400085F83C600526304600F080F83C61304662
:1019500000F07CF80098C00701D13D6100E03D60D7
:10196000204600F073F83C600525284600F06EF82C
:101970003C61284600F06AF801B0F0BD08804240A2
:1019800090120A40014800687047C04620B0864067
:101990000C48011F0268D2B20A600B490968C9B23B
:1019A0000B290ED1026809490878C62803D8084BCC
:1019B0001A54401C0870064900220A5405480121A7
:1019C0000170704724111040201010405901202050
:1019D00090002020580120207047000080B5012091
:1019E000C003044908600449086004A0FEF742FDF2
:1019F00080BDC04680E200E000E100E0426F61721D
:101A00006420496E6974205B5B202A2A204C434B7A
:101A10004642202A2A205D5D0D000000B0B57D21E0
:101A20000902414314480368262206E0E41A051F10
:101A30002D686419A2188A4206D21C4603689C428B
:101A4000FCD0F3D9E41AF5E7B0BDC046B0B50A49F9
:101A50000A684001262306E0A41A0D1F2D686419A8
:101A6000E318834206D214460A689442FCD0F3D9A4
:101A7000A41AF5E7B0BDC04618E000E0F0B58DB09F
:101A8000054607AF0920F870E320B870CA207870C7
:101A9000022001903870682004213A4601F074F861
:101AA000A32179723972F971402306952B405C208D
:101AB000C043002B024601D03D22D243FA70002BD6
:101AC000024601D03722D243BA703F240493002B40
:101AD000024600D0E24300947A7039700126350244
:101AE0002C46803506990D40014601D03921C94365
:101AF000B971002D014601D03321C9437971002D00
:101B000001D03B20C043387173480F300A213A4658
:101B100001F03AF803202722069908400390029228
:101B200001D0202000E0D04338706B481E30314691
:101B30003A4601F029F8069FB8060AD40AAAC72037
:101B4000107268480B9068480A909720C0000921DD
:101B500009E05D200C9061480B9061480A90972045
:101B6000C00009210AAA01F00FF8002D16D02E4658
:101B7000274204D19020B4218023B02503E09B208C
:101B8000B6218B23B22507AAD070917053701570BF
:101B900051480A30042100F0F7FF3546F807059553
:101BA00006D107AAD82010708B20000101214DE03A
:101BB00007AAF82010708B2000010126314600F0A2
:101BC000E3FF0720FA2100F04FF90AAA00981070ED
:101BD0002920C7003846314600F0D6FF0AAA002562
:101BE0001570F81D314600F0CFFF0AAE142070705A
:101BF000357038469630019C2146324600F0C4FFCD
:101C0000642070703570384692302146324600F0BC
:101C1000BBFF0AAA9020D070F92090708E205070DF
:101C2000157038461430042100F0AEFF08207070A3
:101C30003570384612302146324600F0A5FF7470E8
:101C4000357010373846069F2146324600F09CFF1B
:101C5000049D0299B80702D52620C04300E0C8437E
:101C600007AA10702148012100F08EFF780701D4E7
:101C7000204800E01E480A9004210AAA164800F0F5
:101C800083FF00F01DFDF80601D41C4800E01A484F
:101C90000A901148801D04210AAA00F075FF00F087
:101CA0000FFD0820384316490880002D00D0062576
:101CB0000598002800D0AD1D1420074201D0102047
:101CC00005430398002800D02D1D00F0F9FC0D48B5
:101CD000057000200DB0F0BD980A0000B4980D35D5
:101CE000B8AAB38DB088C3C5B8AAAAAA3D07000098
:101CF000C0C2C4C68B8B8B8B20283038A3A3A3A370
:101D0000BC012020C201202080B5012082020348AE
:101D10000349C82300F042FB80BDC046F60B00001B
:101D20007B30000070B586B0044613480590134818
:101D30000490134803900026F543C82C18D8E1B24C
:101D4000C82000F053FF401E01AA5070000A107016
:101D50000C48022100F018FF002809D10A480C2184
:101D600003AA00F011FF002802D10848048035467C
:101D7000284606B070BDC046BBAFDFDFAAF1DFDF8B
:101D8000FEF2ABC416020000C10A0000C001202010
:101D9000F0B583B00446032108402D4B1D5C02AA18
:101DA00015702C4D285C01AE30702006800F1F5C32
:101DB0009770E706BF0FDB5D5370285CB070E85D7D
:101DC0007070254E304600F0DFFE0027FD430028EE
:101DD00029D1301D032101AA00F0D6FE002822D10E
:101DE0001E4801901E48029060071FD4A00625D40B
:101DF000E00505D501A86721817002A877218170CF
:101E000030461A30032102AA00F0BEFE00280AD193
:101E10000B36032101AA304600F0B6FE002802D19D
:101E2000104804803D46284603B0F0BD01A8272194
:101E3000017002A837210170A006D9D501A8472159
:101E4000417002A857214170E005D3D4D8E7C046BD
:101E50007830000075300000260400002646660039
:101E600036567600B8012020F0B585B00E460546FE
:101E70000021CC4319208001864200D988E0072048
:101E8000284000D184E0019103AF384600F07CF98E
:101E90003046FEF74FFC4049FEF732FB39788A1E88
:101EA0000121CA41072A73D88D21CE053B49C0467E
:101EB0007A441279520097440E036B076B6B6B0BDD
:101EC00023214E06384906E08B21CE05354902E034
:101ED00045210E0632490294074600F0CFFFFEF777
:101EE000BFFB044631462E4604ADE870384600F08C
:101EF000C5FFFEF7B5FB6870210AA970000A2870BB
:101F0000AF1CF00706D1B00711D47007029C24D48F
:101F1000019C3DE03C46492087003846B030022114
:101F200004AA00F031FE00280DD0029C30E04920C8
:101F300084002046B430022104AA00F025FE0028C7
:101F40001ED0029C24E0022138462746224600F09B
:101F50001BFE0028D7D0029C1AE0492085002846A5
:101F6000B830022104AA00F00FFE002810D1083575
:101F7000022128463A4600F007FE002808D1C7E7AC
:101F8000201D02213A4600F0FFFD0028BDD0029C32
:101F9000204605B0F0BDC046000048430000404662
:101FA0000000C044000040450000C04503490A68E5
:101FB000D207FCD1C2B28A617047C0460891104076
:101FC000FFF7F0FBFFF70AFDFEF7A8FC0120010573
:101FD000144A1160144A136803431360134C2160C0
:101FE000FEF764FE0220206011A0FEF743FA00F025
:101FF0008BF800280AD010A42046FEF73BFAC82030
:10200000FFF70CFD00F080F80028F5D10DA0FEF7D9
:1020100031FA14A4FFF714FA2046FEF76DFCFEF720
:102020002BFEF7E780E200E004B8864000E100E024
:1020300073746172740D0000646D70206572726F4C
:10204000720D0000496E697469616C697A61746926
:102050006F6E20446174612053756363656564200D
:102060000D0000004C432D4D53504D30473335305B
:10207000370A0000F0B585B005462420B24E305C2A
:10208000002803D00024204605B0F0BDB07A00241B
:10209000E74300281DD0FE210D402840317C0291ED
:1020A0003074A84200D0E443307D284313D0707CC4
:1020B00000281ED103AB01221A7003CEC07B019011
:1020C00008780199083EFEF7B5FF002811D1039862
:1020D0000EE03C46D7E704AB0020187005CEC17B6C
:1020E00010780122083EFEF7A5FF002801D10498D0
:1020F0007074002DC7D000F0E3FA0028C3D0029816
:1021000030743C46BFE7C04680B500F055F8000685
:1021100001D0002080BD782000F0C6FC000601D070
:10212000012080BD7820FFF7A5FF000601D0022026
:1021300080BD642000F046FC000601D0032080BD75
:10214000FFF7E2FD000601D0042080BD8820FFF7E4
:102150001FFE000601D0052080BDFF207430FFF770
:102160008DFC000601D0062080BD6420FFF7DAFD5B
:10217000000601D0072080BD012000F0B7FB00065B
:10218000C7D0092080BD000010B501460020CC4B0F
:102190005A7A032A0AD8D200054CD4400C70DB7C52
:1021A000002B02D0034BD3400B7010BDC04310BDB9
:1021B0000204081004081020F0B587B002AB80209C
:1021C0001870614F05CF817C10780122083FFEF71F
:1021D00031FF0026F443002818D16420FFF71EFCCD
:1021E00002AB1E7005CF817C107801252A46083F7E
:1021F000FEF720FF002809D105CF817D1078062247
:1022000002AB083FFEF7E6FD002802D0204607B0EB
:10221000F0BD02A8417829404279D207520FC07818
:10222000C007800F801841186BD001292A4602D0C0
:1022300002297FD1324624203E5425203E542620B8
:102240003E5427203E54FF20B87438745248F88119
:10225000FA743D73BC6028047E61BE61FE61386221
:1022600004AB1820187005CF817910782A46083FF2
:10227000FEF7E0FE0028C9D104A80078C008387233
:10228000B87A0028C2D005A800210170787A002809
:1022900010D005CFC1791078012205AB083FFEF7B9
:1022A000C9FE0028B2D105A80078C0087872B87AB3
:1022B0000028ABD006A803210170F87A03280BD0C0
:1022C00005CF81781078012206AB083FFEF7B2FEF9
:1022D00000289BD10698F872322000F073FB00288A
:1022E00094D10020FFF7C6FE00288FD10025284694
:1022F00000F08CFA002889D1284600F0D5FB2C4646
:1023000084E705CFC1781078012202AB0192083F23
:10231000FEF760FD002800D078E702A801780F20C2
:10232000084004280AD00028324684D11948FEF714
:10233000A1F86BE705A0FDF741FF67E70DA0FEF7E9
:1023400099F8019A77E7C04604002020556E73750E
:1023500070706F7274656420736F667477617265F4
:102360002070726F64756374207265762025642E08
:102370000A00000048616C662073656E73697469B9
:1023800076697479207061727420666F756E642E40
:1023900000000000163D0000FFFF0000F0B58FB008
:1023A00006460024E0430891002977D02525C3493B
:1023B000495D002972D10292009501930390002E8D
:1023C0005CD025460496331B102BBC4A00DB10233F
:1023D000907A002864D00EA845702E0A0670E8B2E4
:1023E00099B207910F18506841898F4258D80078E8
:1023F0001168097E022209930EABFEF71BFE099BB2
:10240000AE4900284CD1224634460898861805C9A2
:10241000417D1078DAB2069205963346FEF70AFE41
:1024200000283DD1F84A907A002839D0E0B20EA9B0
:102430004D700870506841898F4231D8007811681A
:10244000097E02220EABFEF7F5FDEF49002827D1E9
:1024500005C9417D10780AAB069AFEF7BBFC00283F
:102460001ED10AA90598079AFEF71AF8002822D16A
:1024700009982D18ACB2049EB442A4D30EAB0298B6
:102480005870000A1870E04C05CC817E107802224A
:10249000083CFEF7CFFD0028039804D00FB0F0BD34
:1024A00003980FB0F0BD0120009960540198E084BA
:1024B00000200FB0F0BD0398401E0FB0F0BDC04625
:1024C00004002020F0B589B00025EF43282800D96A
:1024D000F1E0064600280BD001972324CA4A105D7C
:1024E00001283BD0907C1346002818D0322117E0F9
:1024F0002324FD4D285D002800D1CDE0A87C411E9D
:1025000002468A41510003AA11702221695C002908
:1025100000D1B5E0002800D1AEE07D20ADE0302153
:10252000009504AA117022211D46595C002907D08C
:10253000002801D04D2000E04F20C04304A90870BE
:1025400005CD017D1078012704AB3A46083DFEF722
:1025500071FD2A460028009D00D1175502A82021B0
:102560000170012E19D102A800214170907A002833
:102570002FD005A806210170D07A062829D010682E
:102580001446526881781078012205ABFEF752FD9F
:10259000224600281DD105981AE0052E33D802A83E
:1025A00001214170907A002813D006A806210170FD
:1025B000D07A06280DD010681446526881781078B9
:1025C000012206ABFEF736FD2246002801D106980F
:1025D000D072019F02AB58788001C01D58701068FE
:1025E00014465268817C10780222FEF723FD0028F1
:1025F00061D10120207525730820A0722846FFF7BD
:1026000039FD2F4657E0142E1AD802A80221417036
:10261000907A0028019FDDD007A805210170D07AAB
:102620000528D7D0106814465268817810780122A6
:1026300007ABFEF7FFFC22460028CBD1079819E034
:1026400002A803214170907A0028019FC2D008A8F7
:1026500004210170D07A0428BCD010681446526856
:1026600081781078012208ABFEF7E4FC22460028AE
:10267000B0D10898D072ADE77F20C04303A908709D
:1026800005CD017D1078012203AB083DFEF7D2FC99
:10269000002801D1002028550720000202AB188035
:1026A00005CD817C10780222083DFEF7C3FC00288E
:1026B00001D100272F75384609B0F0BD0400202055
:1026C00070B582B00026F443F64DA87A00281ED0DB
:1026D00001AB1E7005CDC17B10780122083DFEF7CD
:1026E000A9FC002813D105CD41791078012201AB56
:1026F000083DFEF79FFC002809D105CD017910782F
:10270000012201AB083DFEF795FC002802D02046CF
:1027100002B070BD2420285C002813D001AB0C202F
:10272000187005CD017910780122083DFEF782FC72
:102730000028ECD13220FFF771F9A87AC0073AD00F
:102740001F2039E001AB0420187005CD0179107805
:102750000122083DFEF76EFC0028D8D1A97A40205E
:10276000C907014600D06021AA7C002A00D001469A
:1027700001AB197005CD017910780122083DFEF7F3
:1027800059FC0028C3D13220FFF748F9687C411E6C
:10279000884101AB187005CDC17B10780122083D3E
:1027A000FEF748FC0028B2D105CD417910780835F4
:1027B00001222B4621E03F20C04301AB187005CD1C
:1027C000017910780122083DFEF734FC00289ED1E3
:1027D000687C411E8841400001AB187005CDC17B6B
:1027E00010780122083DFEF725FC00288FD101ABAF
:1027F0001E7005CD417910780122FEF71BFC0028E0
:1028000085D1344683E7C04604002020F0B581B06E
:102810000446F54EB07CA04201D1002560E005CE13
:102820000179107801226B46083EFEF7D3FA0027A3
:10283000FD43002C19D0002852D16B461878DF21B7
:102840000140197005CE017910780122083EFEF78B
:10285000F1FB002844D10320FFF7E0F82220305C90
:10286000002826D07D20C04324E0002838D16B46C4
:102870001878DF210140B07AC007800E0818187060
:1028800005CE017910780122083EFEF7D3FB00281F
:1028900026D10320FFF7C2F82220305C411E0246F9
:1028A0008A41D1016A461170002805D07F20C043BB
:1028B00002E00220694608702321715C002903D0E0
:1028C000302108436946087005CE017D1078012249
:1028D0006B46083EFEF7AEFB002801D1B4743D46BE
:1028E000284601B0F0BDC04604002020F0B585B0F8
:1028F0002427BD4EF15D814201D100245FE0002814
:1029000009D02520305C0024002825D0002925D0BE
:1029100002AB1C7028E0002902D1B07A00280DD04B
:1029200004AB0020187005CEC17B10780122083E50
:10293000FEF780FB002801D104987074307C01AB55
:1029400018707068007823210122FEF773FB0024C1
:10295000F455FFF7B5FE32E0E44330E0B07A0028EA
:102960000DD002AB0020187005CEC17B107801227B
:10297000083EFEF75FFB002801D1029870742046E4
:10298000FFF744FFF08C00F01DF801AB1C7070687D
:102990000078232101252A46FEF74CFBF55503ABB1
:1029A0000220187005CEC17B10782A46083EFEF73B
:1029B00041FB002801D103987074FFF781FE204687
:1029C00005B0F0BDF0B583B0054687490026F44355
:1029D000887A002863D02420085C00285FD1087D15
:1029E00000280BD0681E80B2272804D8E8B2FFF771
:1029F00069FD344653E00020FFF764FD0096E808C7
:102A00007D21CE007D2800D33546042D00D8042535
:102A10003046294600F0EAF8401E01AB1870724DAE
:102A200005CD4178107801273A46083DFEF702FBB4
:102A3000002834D101A80478611C304600F0D6F893
:102A4000E881A87A002829D0012C01D802A815E035
:102A5000042C02D802A8022710E00A2C02D802A8EF
:102A600003270BE0182C02D802A8042706E0312C1B
:102A700002D802A8052701E002A806270770E87A15
:102A8000B8420BD005CD81781078012202AB083D09
:102A9000FEF7D0FA002801D10298E872009C204687
:102AA00003B0F0BD0400202070B582B0044640069B
:102AB000400F02D06846012105E06846002C01D095
:102AC000002100E040210170474E05CE817C107846
:102AD00001256B462A46083EFEF7ACFA002803D0D3
:102AE0000020B072C54328E0200904218143A206DA
:102AF00000D4891C284040186840210700D4383091
:102B00006B4619781870BF200840307305CEC17C21
:102B100010782A46083EFEF78DFA002803D00020E0
:102B2000B072C54309E008202043082808D10025D9
:102B30003575B4723220FEF771FF284602B070BDC1
:102B40002325705D0028F2D0B07C411E02468A41E8
:102B5000510001AA11702221715C002907D00028C0
:102B600001D07D2000E07F20C04301A9087005CE80
:102B7000017D1078012201AB083EFEF75BFA0028C8
:102B8000D5D100207055D2E7F0B581B00027FC43C5
:102B9000002A25D00E46144B997A002920D01546DC
:102BA00069464870020A0A70C0B2811958684289A1
:102BB000914215D800781968097E02226B46FEF70B
:102BC00039FA00280CD1084905C9417D1078F2B2C4
:102BD0002B46FEF72FFA002801D1044600E0FC4303
:102BE000204601B0F0BDC0460400202043088B42BF
:102BF0001AD3002203098B4279D3030A8B425ED396
:102C0000030B8B4242D3030C8B4227D30902FF22D2
:102C100012BA030C8B4202D31212090203D0030B27
:102C20008B4233D31AE0D3E0411A8041401C7047F5
:102C300003460B4371D443088B42F5D300220309AA
:102C40008B4254D3030A8B4239D3030B8B421DD3DF
:102C5000030C8B4202D394466EE0090AC30B8B42ED
:102C600001D3CB03C01A5241830B8B4201D38B0398
:102C7000C01A5241430B8B4201D34B03C01A52413D
:102C8000030B8B4201D30B03C01A5241C30A8B4280
:102C900001D3CB02C01A5241830A8B4201D38B026B
:102CA000C01A5241430A8B4201D34B02C01A52410F
:102CB000030A8B4201D30B02C01A5241CDD2C30981
:102CC0008B4201D3CB01C01A524183098B4201D3FD
:102CD0008B01C01A524143098B4201D34B01C01AE8
:102CE000524103098B4201D30B01C01A5241C30860
:102CF0008B4201D3CB00C01A524183088B4201D3CF
:102D00008B00C01A524143088B4201D34B00C01ABA
:102D10005241411A524110007047CA0F00D0494237
:102D2000031000D34042534000229C4603098B42CB
:102D30002DD3030A8B4212D38901FC2212BA030A53
:102D40008B420CD3890192118B4208D389019211D5
:102D50008B4204D3890137D0921100E08909C3095D
:102D60008B4201D3CB01C01A524183098B4201D35C
:102D70008B01C01A524143098B4201D34B01C01A47
:102D8000524103098B4201D30B01C01A5241C308BF
:102D90008B4201D3CB00C01A524183088B4201D32E
:102DA0008B00C01A5241D9D243088B4201D34B0049
:102DB000C01A5241411A00D20146524110466346A0
:102DC0005B1000D34042704763465B1000D3404223
:102DD00001B50021004201D0C9430846C046C046A3
:102DE00002BD30380A2801D2012070470020704708
:102DF00070B50125ED0704004C4020D4441A01D2DF
:102E0000001B0919C60D4B00F2B2FF2A29D01B0E78
:102E10002CD000020C0228432C43D31ADC400519A5
:102E200010D2280A02D3401C6D0611D0761EF6057A
:102E30008019FF2A00DA70BDC00DC00570BD694061
:102E400000F07AF801200543C541521C761CE8E7E2
:102E500064089C40C90161408900E7D10124A04376
:102E6000E4E71B0E440200D0034870BD002AFCD1E9
:102E7000C00FC00770BD00BF0000C07F70B542002A
:102E800064414B005C41120E39D01B0E38D0FF2A32
:102E90003CD0FF2B3AD0D2187F3A40024902400A78
:102EA000490A4518ED0106004E43000A090A484345
:102EB0000104731A4019190C4318990F04D05B08C8
:102EC000012149075B1A521CD80904D3401CF503A1
:102ED00001D19D0607D0FF2A08D2D50506D0E40708
:102EE0002043401970BD0125A843F4E7002A01DC06
:102EF000E00770BD2402FF202043C00570BD1B0EFB
:102F0000FF2A03D0FF2B01D0E00770BDFF26360655
:102F10004500B54206D84D00B54203D8D218FF2A65
:102F200000D0E7E7004870BD0000C07F70B5012504
:102F3000ED0704004C4022D4441A02D26C40001B1E
:102F40000919C60D4B00F2B2FF2A4BD01B0E50D010
:102F500000020C02A8432C43D31ADC40051B05D504
:102F6000AD0019D36D08761E521E37D0F605280A1B
:102F700001D2801970BD70416D0603D070BD6940EB
:102F8000FFF73CFF9C4009026140490001D0401E10
:102F900070BD0124A04370BD6D081DD001202B0C15
:102FA00001D12D0410302B0E01D12D0208302B0F32
:102FB00001D12D01001DAB0F01D1AD00801CEB0F25
:102FC00001D16D00401C361A121A6D00680AF50511
:102FD0004019012A02DB70BD002070BDC036300AE6
:102FE000C00770BD1B0E440201D1FF2B00D1024867
:102FF00070BD002AF0D070BD0000C07F3031323388
:10300000343536373839414243444546403058001C
:10301000303132333435363738396162636465664E
:1030200040307800040000080000000000000002AA
:1030300000010000108182838485868788898B8CBB
:103040008D8E8F919293959697999A9C9D9FA0A211
:10305000A3A5A7A8AAACAEB0B2B3B5B7B9BCBEC061
:10306000C2C5C7C9CCCED1D4D7D9DCDFE2E6E9EC02
:10307000F0F3F7FAFE0CC92C4CCD6C000070000088
:10308000000024000000020003000000650054FF5F
:10309000EF0000FA80000B12820001030C30C30E17
:1030A0008C8CE914D5400213710F8E3883F883306D
:1030B00000F883258EF8833000F883FFFFFFFF0FB1
:1030C000FEA9D6240004001A8279A10000003CFF6A
:1030D000FF00000010000038836FA2003E03304064
:1030E00000000002CAE3093E80000020000000004A
:1030F0000000004000000060000000000C00000024
:103100000C186E000006920A16C0DFFFFF0256FD83
:103110008CD377FFE1C496E0C5BEAA00000000FF93
:10312000FF0B2B0000165700000359400000000061
:10313000001DFA00026C1D000000003FFFDFEB00E5
:103140003EB3B6000D227800002F3C0000000000C6
:103150001942B5000039A20000B365D90E9FC91D00
:10316000CF4C3430000000500000003BB67AE8003D
:1031700064000000C8000000000000100000001003
:1031800000FA921000225E000D229F000100000054
:10319000320000FF46000063D4000010000000046D
:1031A000D6000004CC000004CC0000000010720027
:1031B00000004000000000000000000006000200C7
:1031C000050007000000000064000000000000008F
:1031D0000000050005006400200000000000000061
:1031E000000000000040000000030000000032F872
:1031F000980000FF650000830F0000FF9BFC0000AB
:1032000000000000000000000000000000000000BE
:1032100000000000000000000000000000000000AE
:10322000000000000000000000100040000000004E
:103230000000060000B26A000200000001FB8300EB
:1032400068000000D9FC007CF1FF83000000000052
:10325000650000006403E800640028000000250009
:1032600000000016A0000000001000000010000088
:103270002F0000000001F40000100000280000FFF3
:10328000FF4581FFFFFA720000000000000000000F
:103290004400050005BAC6004778A20000000100FE
:1032A00000000000000600000000140000254D0092
:1032B0002F706D000005AE000C02D0000000000071
:1032C0000000000000000000000000001B000000E3
:1032D000000000000000000000000000640000008A
:1032E00008000000000000000000000000000000D6
:1032F00000000000000000000000000000000000CE
:1033000000000000000000000000000000000000BD
:1033100000000000000000000000000000000000AD
:10332000000000000000000000000000000000009D
:103330000000000000000000000000001B00000072
:1033400000000000000000000E000E00000AC70090
:1033500004000000000032FFFFFF9C00000B2B0068
:103360000000020000000100000064FFE500000012
:10337000000000000000000000000000000001004C
:1033800000000000010000000000000001800000BB
:1033900001800000018000002426D300000000000E
:1033A000000000000600100096003C000000000035
:1033B00000000000000000000000000C0A4E68CD74
:1033C000CF770950166759C619CE82000000000059
:1033D00000000000000000000000000000000000ED
:1033E00000000017D7840003000000000000000068
:1033F000000000C7938F9D1E1B1C190000000000D9
:1034000000000000000000000000000000000000BC
:1034100000000002031885000040000000000300C7
:103420000000030000000000000000400000000059
:10343000000000000000000000000000000000008C
:10344000000000000000000000000000000000007C
:103450000000000000000000000000000000006705
:103460007DDF7E72902E554CF6E68800000000004D
:103470000000000000000000000000D8DCB4B8B07C
:10348000D8B9ABF3F8FAB3B7BB8E9EAEF132F51BE9
:10349000F1B4B8B08097F1A9DFDFDFAADFDFDFF298
:1034A000AAC5CDC7A90CC92C97F1A989264666B231
:1034B0008999A92D557DB0B08AA896365676F1BA6D
:1034C000A3B4B280C0B8A89711B28398BAA3F0246D
:1034D0000844106418B2B9B49883F1A329557DBA91
:1034E000B5B1A38393F0002850F5B2B6AA83932810
:1034F000547CF1B9A3829361BAA2DADEDFDB819A50
:10350000B9AEF5606870F1DABAA2DFD9BAA2FAB939
:10351000A38292DB31BAA2D9BAA2F8DF85A4D0C1C6
:10352000BBAD83C2C5C7B8A2DFDFDFBAA0DFDFDF74
:10353000D8D8F1B8AAB38DB4980D355DB2B6BAAF8C
:103540008C96198F9FA70E161EB49AB8AA872C5472
:103550007CBAA4B08AB691325676B28494A4C808D4
:10356000CDD8B8B4B0F19982A82D557D98A80E1683
:103570001EA22C547C92A4F02C5078F184A898C4FC
:10358000CDFCD80DDBA8FC2DF3D9BAA6F8DABAA683
:10359000DED8BAB2B68696A6D0F3C841DAA6C8F885
:1035A000D8B0B4B882A892F52C548898F135D9F4E3
:1035B00018D8F1A2D0F8F9A884D9C7DFF8F883C5E4
:1035C000DADF69DF83C1D8F40114F1A8824EA88440
:1035D000F311D182F5D992289788F109F41C1CD8EF
:1035E00084A8F3C0F9D1D99782F129F40DD8F3F961
:1035F000F9D1D982F4C203D8DEDF1AD8F1A2FAF9E0
:10360000A88498D9C7DFF8F8F883C7DADF69DFF84C
:1036100083C3D8F40114F198A8822EA884F311D1A1
:1036200082F5D992509788F109F41CD884A8F3C088
:10363000F8F9D1D99782F149F40DD8F3F9F9D1D934
:1036400082F4C403D8DEDFD8F1AD8898CCA809F99C
:10365000D98292A8F57CF1883ACF944A6E98DB69BA
:1036600031DAADF2DEF9D88795A8F221D1DAA5F9E1
:10367000F417D9F1AE8ED0C0C3AE82C684C3A8857C
:1036800095C8A588F2C0F1F4010EF18E9EA8C63E41
:1036900056F554F18872F40115F19845856EF58E52
:1036A0009E0488F142985A8E9E068869F4011CF1A6
:1036B000981E1108D0F504F11E970202983625DBFA
:1036C000F9D985A5F3C1DA85A5F3DFD88595A8F3E7
:1036D00009DAA5FAD88292A8F578F1881A849F268B
:1036E000889821DAF41DF3D8879F39D1AFD9DFDF6D
:1036F000FBF9F40CF3D8FAD0F8DAF9F9D0DFD9F9FC
:10370000D8F40BD8F3879F39D1AFD9DFDFF41DF39D
:10371000D8FAFCA869F9F9AFD0DADEFAD9F88F9FA8
:10372000A8F1CCF398DB45D9AFDFD0F8D8F18F9F63
:10373000A8CAF38809DAAF8FCBF8D8F2AD978D0C11
:10374000D9A5DFF9BAA6F3FAF412F2D8950DD1D9BA
:10375000BAA6F3FADAA5F2C1BAA6F3DFD8F1BAB283
:10376000B68696A6D0CAF349DAA6CBF8D8B0B4B8D4
:10377000D8AD84F2C0DFF18FCBC3A8B2B68696C8AD
:10378000C1CBC3F3B0B48898A821DB718D9D71853E
:103790009521D9ADF2FAD88597A828D9F408D8F29E
:1037A0008D29DAF405D9F285A4C2F2D8A88D940146
:1037B000D1D9F411F2D88721D8F40AD8F28498A884
:1037C000C801D1D9F411D8F3A4C8BBAFD0F2DEF848
:1037D000F8F8F8F8F8F8F8D8F1B8F6B5B9B08A956D
:1037E000A3DE3CA3D9F8D85CA3D9F8D87CA3D9F838
:1037F000D8F8F9D1A5D9DFDAFAD8B18530F7D9DE12
:10380000D8F830ADDADED8F2B48C99A32D557DA06E
:1038100083DFDFDFB591A0F629D9FBD8A0FC29D939
:10382000FAD8A0D051D9F8D8FC51D9F9D879D9FB18
:10383000D8A0D0FC79D9FAD8A1F9F9F9F9F9A0DA28
:10384000DFDFDFD8A1F8F8F8F8F8ACDEF8ADDE83FA
:1038500093AC2C547CF1A8DFDFDFF69D2CDAA0DFDF
:10386000D9FADB2DF8D8A850DAA0D0DED9D0F8F8F4
:10387000F8DB55F8D8A878DAA0D0DFD9D0FAF8F874
:10388000F8F8DB7DF8D89CA88CF530DB38D9D0DE91
:10389000DFA0D0DEDFD8A848DB58D9DFD0DEA0DF3C
:1038A000D0DED8A868DB70D9DFDFA0DFDFD8F1A8D1
:1038B00088902C547C98A8D05C38D1DAF2AE8CDF9A
:1038C000F9D8B087A8C1C1B188A8C6F9F9DA36D845
:1038D000A8F9DA36D8A8F9DA36D8A8F9DA36D8A8A5
:1038E000F9DA36D8F78D9DADF818DAF2AEDFD8F7F1
:1038F000ADFA30D9A4DEF9D8F2AEDEFAF983A7D951
:10390000C3C5C7F1889BA77AADF7DEDFA4F884941E
:1039100008A797F300AEF29819A488C6A39488F676
:1039200032DFF28393DB09D9F2AADFD8D8AEF8F9F7
:10393000D1DAF3A4DEA7F1889B7AD8F38494AE1988
:10394000F9DAAAF1DFD8A881C0C3C5C7A39283F66C
:1039500028ADDED9F8D8A350ADD9F8D8A378ADD921
:10396000F8D8F8F9D1A1DADEC3C5C7D8A18194F897
:1039700018F2B089ACC3C5C7F1D8B8B4B09786A85F
:10398000319B069907AB9728889BF00C201440B018
:10399000B4B8F0A88A9A285078B79BA829517924FE
:1039A0007059446938644831F1BBAB88002C547CB1
:1039B000F0B38BB8A804285078F1B088B49726A843
:1039C0005998BBABB38B02264666B0B8F08A9CA868
:1039D0002951798B2951798A2470598B2058718A01
:1039E0004469388B3940688A6448318B3049608833
:1039F000F1AC002C547CF08CA804285078F1889706
:103A000026A85998AC8C02264666F0899CA82951B4
:103A100079247059446938644831A988092059705B
:103A2000AB11384069A8193148608CA83C415C2032
:103A30007C00F187981986A86E767EA999882D5505
:103A40007DD8B1B5B9A3DFDFDFAED0DFAAD0DEF21B
:103A5000ABF8F9D9B087C4AAF1DFDFBBAFDFDFB9BC
:103A6000D8B1F1A3978E60DFB084F2C8F8F9D9DE3F
:103A7000D89385F14AB183A308B5839A0810B79FFC
:103A800010D8F1B0BAAEB08AC2B2B68E9EF1FBD9F0
:103A9000F41DD8F9D90CF1D8F8F8AD61D9AEFBD83E
:103AA000F40CF1D8F8F8AD19D9AEFBDFD8F416F163
:103AB000D8F8AD8D61D9F4F4ACF59C9C8DDF2BBAB0
:103AC000B6AEFAF8F40BD8F1AED0F8AD51DAAEFAE2
:103AD000F8F1D8B9B1B6A3839C08B9B1839AB5AA55
:103AE000C0FD3083B79F10B58B93F20202D1ABDAE1
:103AF000DED8F1B080BAABC0C3B284C1C3D8B1B90B
:103B0000F38BA391B609B4D9ABDEB0879CB9A3DD22
:103B1000F1B38B8B8B8B8BB087A3A3A3A3B28BB694
:103B20009BF2A3A3A3A3A3A3A3A3A3A3F1B087B5CD
:103B30009AA3F39BA3A3DCBAACDFB9A3A3A3A3A36B
:103B4000A3A3A3A3A3A3A3A3A3A3A3D8D8D8BBB37E
:103B5000B7F1AAF9DAFFD9809AAA28B48098A720E9
:103B6000B79787A86688F07951F1902C870CA781C8
:103B7000976293F071716085940129517990A5F154
:103B8000284C6C870C95188578A38390284C6C88FA
:103B90006CD8F3A28200F210A8921980A2F2D92662
:103BA000D8F188A84DD948D896A83980D93CD8955D
:103BB00080A839A68698D92CDA87A72CD8A8899509
:103BC00019A980D938D8A88939A980DA3CD8A82E73
:103BD000A83990D90CD8A8953198D90CD8A809D96A
:103BE000FFD801DAFFD89539A9DA26FFD890A80DB9
:103BF0008999A810809821DA2ED88999A83180DA7D
:103C00002ED8A886963180DA2ED8A8873180DA2E71
:103C1000D8A88292F34180F1D92ED8A882F31980D6
:103C2000F1D92ED882ACF3C0A28022F1A62EA72E05
:103C3000A92298A829DAACDEFFD8A2F22AF1A92E8F
:103C40008292A8F23180A696F1D900AC8C9C0C30FF
:103C5000ACDED0DEFFD88C9CACD010ACDE8092A263
:103C6000F24C82A8F1CAF235F19688A6D900D8F1B3
:103C7000FF080700A00F0000000100000807000077
:103C8000A00F0000000100000807FF000200000074
:103C90000C03000001000000000000000000000014
:103CA00004000000180000000030000008000000C0
:103CB0001800000000300000680000047600540185
:103CC000F7FD000175191A0C6A231B1C1F20727462
:103CD000433B4138393A6B6C376F06246D6E706D1B
:103CE00070753D25640D0A004D5055363035302035
:103CF0004944203D2025780D0A00E6A380E6B58BD7
:103D0000E4B88DE588B0204D50553630353020E68A
:103D1000A8A1E59D970050726F64756374204944B3
:103D20002072656164206173203020696E6469636C
:103D300061746573206465766963652069732065C5
:103D4000697468657220696E636F6D706174696211
:103D50006C65206F7220616E204D505533303530C8
:103D60002E00000083000000000800000001001881
:103D700032000500000020410000D242295C0F3EC5
:103D80009A99993E3333733F295C0F3E000000003F
:103D9000B03D0000000020203000000008010000BD
:103DA000E03D0000300020208803000028010000D2
:103DB000800C0000C43C0000B83C00000000000083
:103DC00000000000000000000000000000000000F3
:103DD000000000000000000000000000643D000042
:04000005000000C136
:00000001FF
