:020000040000FA
:10000000C00320209101000095010000970100002D
:1000100000000000000000000000000000000000E0
:100020000000000000000000000000009901000036
:1000300000000000000000009B0100009D01000086
:100040009F010000F51800009F0100009F010000C3
:100050009F0100009F0100009F0100009F01000020
:10006000000000009F0100009F0100000000000050
:1000700000000000A52500009F0100009F01000076
:100080009F0100009F0100009F0100009F010000F0
:10009000752500009F010000000000000000000026
:1000A0009F0100009F010000000000000000000010
:1000B0009F010000000000009F0100009F01000060
:1000C00000F002F800F054F80CA030C808382418EA
:1000D0002D18671EA246AB4654465D46AC4201D180
:1000E00000F046F87E460F3EB6460FCC012633425E
:1000F00000D0FB1A3343A246AB4618478C5600008B
:10010000AC56000000000000103A02D378C878C155
:10011000FAD8520701D330C830C101D504680C6049
:100120007047000000000000002300240025002686
:10013000103A01D378C1FBD8520700D330C100D5A3
:100140000B60704710B5642902D100F095F810BD1E
:10015000782902D100F0C6F810BD732902D101F050
:10016000A6F810BD002010BD1FB51FBD10B510BDF5
:1001700001F0EEF91146FFF7F7FF02F001FE01F082
:1001800006FA03B4FFF7F2FF03BC02F02FFA0000F7
:1001900006480047FEE7FEE7FEE7FEE7FEE7FEE76C
:1001A00003480449024A044B70470000C1000000A4
:1001B000C0022020C0032020C00220200FB4054927
:1001C00010B503AA029801F077F810BC08BC04B07F
:1001D000184700006401202070B504468569006856
:1001E000C10601D5302600E02026C00707D070BD2B
:1001F00062683046A1689047206A401C20626D1EEC
:10020000F6D570BD70B5044685690078C00707D182
:1002100070BD6268A16820209047206A401C20625F
:100220006D1EF6D570BD70B50C460546012A05D089
:100230002878800600D5EA69002302E0012305E062
:100240005B1C934202D2E05C0028F9D1A869E61851
:10025000C01AA861286AC01828622846FFF7BCFFA8
:1002600004E06A682078A968641C9047B442F8D317
:100270002846FFF7C7FF70BDF7B500257529106840
:10028000009914A611D0C046C046002802DA4042A8
:1002900011A608E0009909688A0701D50FA602E0B7
:1002A000490704D50EA6012501E0C046C046009FBF
:1002B0000024243704E001F013F830313955641C70
:1002C0000028F8D12B4632462146009800F084FFE2
:1002D000FEBD0000000000002D0000002B0000000B
:1002E0002000000070B504460D4621461068C04647
:1002F000C0462188090502D50F4A7A4402E00E4A19
:100300007A440E3223460021243305E00607000913
:10031000360F965D5E54491C0028F7D120780023E3
:10032000000705D5702D03D0002901D0022311321A
:10033000204600F051FF70BD82450000F3B5044631
:10034000002081B020622046E168884700287DD0E7
:10035000252802D06268A16883E0454F00257F44CC
:100360002046E16888472028064608DB312E06D261
:10037000B81920380078002801D00543F0E7A80715
:1003800001D5042085430020E0610746A0612A2EA4
:100390000AD0304603F0FAFD002827D0B800001933
:1003A000303E0090866119E00298BA00121902C826
:1003B000916102902046E1688847012F064617D1D7
:1003C000E06900281FDA202085431CE000980A21FC
:1003D0008069484300998019303888612046E16877
:1003E0008847064603F0D2FD0028EFD1012F0AD03E
:1003F0002E2E08D12046E168884706462020054376
:100400007F1C022FC3DBA069002803DA4042A061F1
:1004100001200543E80701D010208543002E24D099
:1004200030464138192803D80120C0020543203640
:10043000204625603146029A1546FFF783FE0028C4
:100440000CD0012807D0ED1DE80800E00DE0C00049
:100450000830029077E72D1D029574E762683046F8
:10046000A1689047206A401C6CE7206AFEBD00002E
:100470004645000010B5044603E002F077FC401C3E
:1004800008D020780549641C0028F6D10A2002F023
:100490006DFC10BD0020C04310BD00006401202091
:1004A000034610B50B439B070FD1042A0DD308C890
:1004B00010C9121FA342F8D018BA21BA884201D934
:1004C000012010BD0020C04310BD002A03D0D30777
:1004D00003D0521C07E0002010BD03780C78401CAC
:1004E000491C1B1B07D103780C78401C491C1B1BA3
:1004F00001D1921EF1D1184610BD70477047704768
:100500000246C80FC00781434B0030B54B405B002B
:100510009B0D20D01923DB06C91801231B05994226
:1005200020DB0324A40704251346AB400BD3002B88
:1005300004D1EB0613409B00E34204D4012464077A
:10054000002312195941FF231B0599420BD2C90000
:100550000143500F09E0CB0204D5014308030243D5
:1005600005D0054830BDFF21C905084330BD084608
:1005700007210905884330BD0000C07FF0B50C4657
:10058000871A9C410D46861A9D4103D2C01BA1418A
:10059000D21963410D0D1F0DC94EEC1BAE435CD04B
:1005A0007F057F0D0026002F51D02D05AC46A943B5
:1005B000DD020123ED0A1B051D4320231B1B24D450
:1005C0001746E740381871412F46E740CC199D4047
:1005D0002818314661410C0D27D161449A4013D54A
:1005E0000023401C594152000ED140084000012216
:1005F0004B005205D34207D305204007C14201D525
:10060000B04900E0B0493046F0BD6B00002A00D090
:1006100001229A181F23203C1B1B01D5002302E056
:10062000E540281871410C0DD7D001242405091983
:10063000C407CD0740084908E40F28436144002C53
:10064000D5D00024401C61419A40D0D1CDE76A0545
:10065000520DD9D1C90FC907D5E79C4D4E000028CE
:1006600001D0012400E0002434195F00002A01D0E9
:10067000012600E00026BE19954FAC420CD8AE42D0
:100680000AD8B44206D001256D05EC42BCD0104614
:100690001946F0BD9942FCD000203946F0BDF0B5B6
:1006A0001FB40C460F46811A9F412546861A9D416C
:1006B00006D20125ED076F40401ABC4152187B411C
:1006C000210D1E0D8D1BAC467D4D8D437ED07505D5
:1006D0006D0D7CD00D05AE46AC431B031B0B794D55
:1006E00052429D41202366469B1B14D31746F74078
:1006F000381800260090744160462F460741E419DF
:1007000000989D402818664116D4714671189A4089
:1007100025D5012320E093182A466A415200002B78
:1007200000D0521C1E23203E9B1B002B61DD354157
:10073000EE1728186641E8D5001876415B1C9A40F0
:1007400000D3401C4B05F3181524E34010D3002BB5
:1007500052D071467118D30FC01802D3491C05B08E
:10076000F0BD0123DB079A42F9D140084000F6E7CB
:1007700001225205B21801D1002853D00123CC0A1E
:10078000DB029943891E002A08D1020C03D0020C17
:100790000004103902E00246002020390023550BE6
:1007A00005D112020823550B01D152010D23550C1E
:1007B00001D112011B1DD50C01D192009B1C150DFE
:1007C00001D152005B1C2025EE1A01E02CE022E052
:1007D0000546F54015439840CA1AE1076918130504
:1007E000C918002ABBDA032040070818C10FC9073F
:1007F0000FE071466118B2E7F10740080843711035
:1008000071444A000CD001235B059A42A7D2C90F5C
:10081000C9070020A3E74905490D26D1002001E0C2
:100820000028F4D100219AE7284D6600002801D065
:10083000012100E0002171185F00002A01D001268B
:1008400000E00026BE19224FA94210D8AE420ED8B1
:10085000B14208D001256D05E94206D01946A8022B
:10086000414010467BE79C4201D0214677E70020BB
:10087000394674E710B50C465C4005D50124E40701
:100880006340FFF70CFF10BDFFF778FE10BD30B4DA
:100890000C465C4004D50124E407634030BC6DE69F
:1008A00030BCFCE670B50124E40761400D465D40B4
:1008B00002D4FFF763FE70BD6340FFF7F0FE70BD2A
:1008C000FF0700000000F0FF0000F07F0000E0FFE5
:1008D0000000F87FF0B5F94D0C091E092C402E40A0
:1008E0002F468BB0A7437DD0B543FCD0002E7AD0E5
:1008F000002CFCD00D465D40ED0F2543AC1BFF25C1
:10090000AD0464190894C502440DC9022143500D79
:10091000DC0204430120C00701430443D2020191D9
:10092000200C110C00958C46010423468B430A9140
:1009300061460904E24D8A430991010A7D4449193F
:100940008039097805464D4301266D18F605751B5B
:100950006943C90C640B891C4C436418B5012C1BFA
:10096000250C2E04B4434C434D43210C69188909CE
:100970000591009DE90701D00121C90704912C468A
:1009800001996708CD072F434C08059DE10B4D43A6
:100990002D0C29466646754302950D4645432E4665
:1009A000029D7D1BB44100950D465D4301942C0CC6
:1009B0002F040D465543AE462D0C3D43029503943E
:1009C0007546049C2D04641B049406D2029C039D6E
:1009D000641C002675410395029401AC70CC009F05
:1009E0007D1B01E03EE162E1B441090400950791FD
:1009F00001940599A4086143090C0C464443650B16
:100A0000E7040C4666467443A646640B3C430395D4
:100A100002947446049DE4042C1B049406D2029CA8
:100A2000039D641C002675410395029401AC70CCB3
:100A3000009F7D1BB44101940C465C430095650FFB
:100A4000E7000C465443A646640F3C4303950294CA
:100A50007446049DE4002C1B049406D2029C039D62
:100A6000641C002675410395029401AC70CC009F74
:100A70007D1BB441AE09AF06049DC900AD092F43EB
:100A8000049DA406AD060495079D3443691807919B
:100A9000059DE10B4D432D0C294666467543029595
:100AA0000D4645432E46029D7D1BB44100950D46E3
:100AB0005D4301942C0C2F040D465543AE462D0C7E
:100AC0003D43029503947546049C2D04641B0494D5
:100AD00006D2029C039D641C002675410395029476
:100AE00001AC70CC009F7D1BB44101948C05069431
:100AF000079C890A611800950791019C0599A40833
:100B00006143090C0D464543680BEF040D466446EE
:100B100065436C0B3C43049FED047D1BAC4602D245
:100B20000025641C6841009E019D371B85410846D5
:100B3000584301950C46460FC5005443600F2843A7
:100B40006546E4002C1B02D20025401C6E41019D2D
:100B50003F1AB5412846BD09800628438446A009AE
:100B6000BF064E020699A40676180743079D00208B
:100B700068410A99079019430020099B009060463C
:100B8000FF1913434041E20F64003A43A446044670
:100B9000D71A8C41A04203D90120009020463A4642
:100BA000C70F941840416246D20F22436446640046
:100BB0000494009CBE466400D71AA44604460297DB
:100BC0008C417746002F01D1A04204D96046401CD9
:100BD0008446029A2046C40FA64694184041049ABF
:100BE0000546D20F224364466400D31A8D417146F4
:100BF000002901D1A84202D928461A46641C104394
:100C00000122002800D0164361020020079B8919A9
:100C100004465C410223002C02DB49181346644160
:100C2000089DCE0A2D145D194B056705E10A2C05B8
:100C30000D1908993E43C9076940002B08D093401D
:100C400006D30022761C5141002B01D17608760094
:100C50001C4A002D43DB154241D0AA433FD0304609
:100C60000BB0F0BD06180D464D41174C7642AC4115
:100C70001AD395181C465C41134A6D42A24113D306
:100C8000012252054C00D4420AD15C00D4420BD060
:100C90004B4002D592021143E2E749004908DFE7E1
:100CA0005940C90FC90718E000200849D8E705488E
:100CB00001420DD10342F7D0F2E700000000FF0728
:100CC000793F00000000F07F0000E0FF0000F87FA7
:100CD000114859400143C01241400020C0E70123A0
:100CE000089A9B069A4205DC032252078918C90F0D
:100CF000C907B5E7052252078918074A1143D212DE
:100D00005140ADE770B515461C4602460B462846D5
:100D10002146FFF7DFFD70BDFFFFFF7FF0B58B4C75
:100D20000F09254689B0BD437BD01D092646AE4339
:100D3000FAD00E465E402740F60F3E43254071D064
:100D400024012142FBD0FF24AD19A4042D1B0395DF
:100D500001252D05DB02DB0AC9022B43C90A294301
:100D60001E010901040F130F050121431701880B10
:100D7000820391432D098C46A90B1E438A03954398
:100D8000B30B9A0396433F09BA0B9403A743029609
:100D90002E467E430497B6464E19D7190C46019647
:100DA000544305977E43371B7646BF1B3601B64634
:100DB000BE0B361900967646BC043719009C01D349
:100DC000641C00946400002F01D001263443029E6D
:100DD000049F754366467E430496760034196E0080
:100DE00034190094029C019E1C196643751BAE4683
:100DF000069465464519059C05956C43594375460F
:100E00000891691A0191049E01465143A41B049163
:100E1000611A009C0791E10605D061090122114386
:100E200002E072E06EE06109089D00272C0A2D06A1
:100E30006918049D7C412A0A2D066918019D6241AA
:100E4000AC0DAD026D185441079A910D92025519DF
:100E50006141029A644658435443069B059A5A439B
:100E6000121A131B9A0E9B015B187A41010B0005A5
:100E7000C3185141220A200644195A419A4200D20D
:100E8000491C01204002814203D315230226F64368
:100E900002E014230326F6432020C51AA940174672
:100EA000AF40DA400A4320460399D840091473182A
:100EB00019055118039A3843D2075140AC4009D064
:100EC0000122944006D30022401C5141002C01D144
:100ED000400840001E4A934212D301220398920612
:100EE000904207DB0520400709181A480143C01249
:100EF000414004E0032040070818C10FC907002043
:100F000009B0F0BD0020F107FAE705180C464C4186
:100F100011486D42A04115D394181A465A410E4803
:100F2000644290410ED301204A004005824209D319
:100F30005A00824206D35940C90F084AC907002007
:100F40001143DDE700200649DAE700000000FF0753
:100F5000FE070000FFFFFF7F0000E0FF0000F07FC2
:100F60000000F87F0121C9050123411842001B063A
:100F7000D3185B0E0AD0C1100722D2068918400789
:100F80005242D14201D5520089187047090208D552
:100F90000146002A03D0C10FC90700207047104640
:100FA0007047420202D0002002497047072109051C
:100FB0000143F4E70000F87FF0B5FF252D04C609D2
:100FC000C209FF2704462E400137CB093E43484063
:100FD0002A402B400746002A6BD0002B69D0AA423A
:100FE00067D0AB4265D0002800DA32460125ED0516
:100FF00029432C4309022002090AD21A4B0C7F24F0
:10100000E31A434C000A7C44E35C7D242404121957
:1010100014145B00A218884201D3521C00E0400067
:1010200049420C465C4324115C43DB016415E31820
:10103000040A5C43C502200D0C4644436419250A8A
:101040005D432303EC0C0D46654300030019EB18C8
:101050004C42A34201D35B18401CD4052018002B3E
:1010600007D05B00C91804D3401C002901D14008F7
:1010700040003F2189048A4209D3002A08DC110676
:10108000090F04D0032149074018C00FC007F0BD65
:1010900001224100120689187F2252069142F6D29F
:1010A00005214907C84201D59010F0BDFF20C005B9
:1010B000F0BD002F00DA32461648AA4207D2AB42F2
:1010C00005D21902090E17D0F80FC007F0BDFF2591
:1010D00063002D06AB42F9D84900A942F6D8AB42CD
:1010E00001D1A942F2D0A94201D1002101E0610061
:1010F0004908D0050843F0BD1102090EFBD0FF20BE
:101100000243D005F0BD0A460146104654E70000F0
:101110002F3900000000C07F10B501469E24000258
:10112000CA15A307002A02D01843002A04DBA21A1A
:10113000002A0CDDD04010BD1206120E01D1400075
:101140004008A21A03D4D04040420028F3DDFF2219
:1011500048001206904201D9002010BDC817C043B4
:10116000584010BD1F22030C02D10F2200041CD0D6
:10117000030E01D10002083A030F01D10001121F32
:10118000830F01D18000921E002801DB4000521E17
:10119000D2055118021251181922904004D3491C4B
:1011A000002801D14908490008467047C10FC90706
:1011B00000D04042012292071143D3E70121890761
:1011C000D0E710B500F0D0F8006810BD10B50446A7
:1011D00000F0CAF8046010BDFFB504460D4681B0AA
:1011E000243000902168880604D51022E0699143DC
:1011F000216000E00120A84201DD471B00E000273C
:101200000498A1697A191018081AA0612078C006FC
:1012100002D42046FEF7E0FF002608E0039862684B
:10122000A168805D9047206A401C761C206204986B
:101230008642F3DB2078C0060AD52046FEF7CCFFB5
:1012400006E06268A16830209047206A401C206256
:1012500038467F1E0028F4DC07E000986268A16829
:10126000405D9047206A401C206228466D1E002881
:10127000F3DC2046FEF7C6FF2078000602D50220E8
:1012800005B0F0BD0120FBE710B54369002B02D08B
:10129000C046C04601E0FEF7C6FF012010BD12782F
:1012A000014624310A7000224A700122ECE71168DD
:1012B0000022D243E8E70000084B70B50D467B449E
:1012C00000F05BF80446284600F06AF8002802D0D7
:1012D0000020C04370BD204670BD0000AB1A000066
:1012E00001468008081A02091018020A1018020C98
:1012F0001018C008820012185200891A01E0401C20
:101300000A390A29FBD2704770B505464800440DDA
:10131000124B0020002C0AD0634008D09A4206DA13
:101320006642B24203DD12054019514170BD002CE6
:1013300008D0002B09D0C90FC907002AF6DB084ADC
:10134000114370BDC90FC90770BD28460A03104379
:1013500002D00020034970BD284670BDFF07000081
:101360000000F07F0000F87F004870473000202028
:1013700001694A1C02610878704700B58FB002917C
:101380000021059105490193794403911146049088
:101390006846FEF7D3FF0FB000BD0000E5FFFFFF7A
:1013A000C068802108407047F8B5264C4E00069D65
:1013B000A6420AD8A64201D1002806D15E00A64264
:1013C00003D8A6420AD1002A08D00D2424042542BD
:1013D00033D02946002000F0E2F8F8BD0C461C434B
:1013E00011D4994207D0C81A02D3EFF30080F8BD98
:1013F000EFF30080F8BD801A02D3EFF30080F8BD50
:10140000EFF30080F8BD09242407E5008B4207D0E4
:10141000581A02D3EFF3008006E0EFF3008007E0F4
:10142000101A03D3EFF30080A04303E0EFF3008032
:10143000A043284380F30088F8BD009500F0C6F86B
:10144000F8BD00000000E0FFF0B53D4B02460C4641
:101450001C400020002C63D03A4D8B4366D00029FD
:101460006BDB0B0D1D05A94301252D052943012427
:10147000FD33E34001D392184941FF3381339C4649
:101480008B02940D0121234389074C4292020027CD
:101490001B198C105D1A04D42D1B02D42B46650039
:1014A000491992185B416408F4D15C1A08D40125EB
:1014B000ED07EE175519744102D42A462346491CFC
:1014C00094185B41012292071D46E61B8D4106D40C
:1014D000B61A854103D42B46550034467F1924198A
:1014E0005B415208802AEFD1234300D002233846C3
:1014F0000A22D04001D3012213438A0510436246D9
:10150000890A12058918002B09D00122D34002D381
:101510000022401C5141002B01D140084000F0BD89
:101520000B03134307D0C90FC907F0BD08031043CD
:1015300003D1002901DB1046F0BD00202946F0BD93
:101540000000F07F0000F87F004870473000202046
:101550007546FFF7F9FFAE46050069465346C008D9
:10156000C000854618B020B5FEF71AFE60BCB6462E
:1015700000260027C0C5C0C5C0C5C0C5C0C5C0C500
:10158000C0C5C0C5403D490849008D46704710B5EB
:101590000446C046C0462046FEF7F3FD10BDC80213
:1015A00012D54803400F002804D0C803C0430121CE
:1015B00088407047EFF3008000010009032109070C
:1015C000084380F3008870470020704710B5002062
:1015D0000249029A00F004F810BD00000000F87FF4
:1015E00010B50C461107090F092904D00A290AD0A1
:1015F00008290CD104E011460820FFF7D0FF06E0CF
:10160000510606D501E0510601D50120C00721464B
:1016100010BDD10607D501010909CC084907000E04
:101620000006044309E0410F20024907000A014374
:10163000200E00061D22D14101430846E7E70000C5
:1016400080B501204003044908600449086004A0F3
:10165000FEF710FF80BDC04680E200E000E100E040
:10166000426C7565746F6F74685F496E697420733E
:10167000756363656564210D00000000811E091F0C
:1016800000BFFCD270470000F0B5684A8218294BB1
:10169000C318087920280DD000281DD10C68641EBD
:1016A0005460D56E244C25408835D5661646703674
:1016B00088251DE00C68641E5460D46E1E4D2C40BD
:1016C0001E4EA419D466146F2C40A419146701246B
:1016D00065071B4C16460BE00C6864085460D66E18
:1016E000154C26400525ED017619D666164670364E
:1016F000376827402F433760D46A4E4D2C40D46260
:10170000146B2C4014630024D46414658F24E443C8
:10171000D56F2540D5671D6825401D604979014377
:10172000BD2008401168074B0B40C018801C10609A
:10173000F0BDC0468418000024F93FF00104000009
:10174000FFFFFFCF4000FFCFB0B54A68364BC25015
:10175000364A80180A78222A58D8930001A4E35800
:101760009F46C046031800000D1800000318000033
:101770000D1800000D1800000D1800000D180000D5
:101780000D1800000D1800000D1800000D180000C5
:101790000D1800000D1800000D1800000D180000B5
:1017A0000D180000F11700000D180000F1170000DF
:1017B0000D1800000D1800000D1800000D18000095
:1017C0000D1800000D1800000D1800000D18000085
:1017D0000D1800000D1800000D1800000D18000075
:1017E0000D180000F11700000D180000F11700009F
:1017F00003231B0704689C4301235B07E318036072
:1018000004E003231B0704689C4304600B69C36066
:10181000CB68074C1C40C36A064D1D402B19C362A0
:10182000097A11430160B0BD0818000004180000D7
:10183000777702008888FDFF10B507239B041940C5
:1018400092008018024A84589C436118815010BD50
:101850003018000010B5029CA40000191143194370
:10186000014A815010BDC0465018000092008018F7
:10187000014A81507047C0461018000010B501227F
:10188000120383180C789C604B7883508978014A46
:10189000815010BD0C110000B0B511221202835806
:1018A0000124A34383500B888C781C438B882343EB
:1018B000094C1C408358094D1D40631983508B7996
:1018C000CC791C43097A21437E2319408018426851
:1018D0009A4351184160B0BD18670000E798FDFFBA
:1018E00010B50122120383180C789C60497881504E
:1018F00010BD000070B50020C14313480246103AE5
:1019000013685A06114A02D45B0710D470BD1468DC
:10191000240601D50C4600E001240D4D2E68341933
:101920002C6004684025254305605B07EED51268EE
:10193000120700D40121074A136859181160016881
:1019400004220A43026070BD48300A4080330A40D6
:10195000600120205C012020F0B589B0DC488121A5
:101960000160DC480221016001640A2000F060FE91
:1019700068266B270124802303933046394622468C
:1019800000F0AEF9642000F053FE002530463946E1
:1019900022462B4600F0A4F91B211823304622468C
:1019A00000F09EF91C21304622462B4600F098F9A3
:1019B00006AB13200290187019213046224600F021
:1019C0008FF907AB0420019018701A213046224687
:1019D00000F086F93821304622462B4600F080F987
:1019E0006A21304622462B4600F07AF92321304600
:1019F00022462B4600F074F9372130462246039BDD
:101A000000F06EF908AF3D807521304622463B4616
:101A100000F036F801461748FEF7D0FB3878682802
:101A200022D1164868252946FEF7C8FB6B212846B7
:101A30002246234600F054F96C2100232846224612
:101A400000F04EF904AB029818701921284622467E
:101A500000F046F905AB019818701A212846224675
:101A600000F03EF9254602E00348FEF7A7FB2846B2
:101A700009B0F0BDDB560000F6560000E456000049
:101A8000F0B589B0059302920491089090498120A5
:101A9000079008608F4E0227376037640124346056
:101AA000376137600525284600F0DAFD37612846A2
:101AB00000F0D6FD3461089840000890C0B200F0F4
:101AC000B7FC83493461376083480860039434600D
:101AD000824D286880070DD50A24052000F0C0FD3E
:101AE0002968641E200601D03940F6D10028FE493D
:101AF00000D1A1E0012434610798086037603764A1
:101B0000049800F095FCF84934613760F8480860A3
:101B1000346028688007069410D534460A260520CC
:101B200000F09EFD2968761E300601D03940F6D1BE
:101B300000282646EC49069C00D191E001973461CB
:101B40000798086002273760376408603760376499
:101B50003460376137600520049000F081FD376103
:101B6000049800F07DFD346108982043C0B200F075
:101B70005FFCDD4934613760DD4808603460286807
:101B800080070FD534460A26052000F069FD296834
:101B9000761E300601D03940F6D100282646D249BB
:101BA000069C70D034610798086037603764002560
:101BB000029802280095344621D3401E0490002547
:101BC0002E4600F097F9059948550798C6490860D0
:101BD000276027643D46069F276125610520089000
:101BE00000F03EFD25612760089800F039FD27616F
:101BF0002F462560761CF5B20498A842E1DC00F07F
:101C000079F905994855B848079901602760276414
:101C1000069E266127610525284600F021FD2760E4
:101C20002660284600F01CFD266127602646019F9D
:101C3000AD4C0798009D39E0079D0D603760376413
:101C400003983061376130600524204600F008FDBC
:101C500037602046F54C00F003FD2846039D25E043
:101C6000079D0D6037603764346137613460052447
:101C7000204600F0F5FC37602046EC4C00F0F0FC0C
:101C800028463D4612E0079D0D6037603764346199
:101C9000376134600524204600F0E2FC37602046BE
:101CA000E24C00F0DDFC28460325019F20603760F0
:101CB000376403983061376130600524204600F0B6
:101CC000CFFC3760204600F0CBFC284609B0F0BDC1
:101CD0000880424090120A408100040080130A40AC
:101CE000F0B585B00193029200910490CF49812014
:101CF000039008607D4C022525602564012727603C
:101D0000256125600526304600F0AAFC2561304695
:101D1000264600F0A5FC276104984006000E00F05E
:101D200087FBC24927612560EF4808602760C14CE6
:101D3000206880070FD504970A26052000F090FC44
:101D40002168761E300601D02940F6D10028674E62
:101D5000B649049F65D00127376103980860356054
:101D60003564009800F064FB3A46B049376135604D
:101D7000DD480860376020688007039F04920ED515
:101D80000A27052000F06CFC21687F1E380601D070
:101D90002940F6D10028A549039F049A61D03261F9
:101DA0000F600225356035640298002828D000278E
:101DB0000DE000284D4E9D49049A71D03261039880
:101DC0000860356035647F1C0298874218D00198FE
:101DD000C05D00F02DFB049A944932613560C24821
:101DE0000860326020688007E8D50A26052000F0E8
:101DF00037FC2168761E3006DBD02940F6D1D8E7C3
:101E000003980860356035643261356132600524BD
:101E1000204600F025FC3560204600F021FC00271C
:101E20005EE003980860356035643761356137607E
:101E300034460526304600F013FC2560304600F09D
:101E40000FFC0398794908602560256427612561A6
:101E50002760304600F004FC2560304600F000FCAE
:101E60003EE00F60356035643261356132600524D3
:101E7000204600F0F5FB3560204600F0F1FB6B4892
:101E80000760356035640498306135613060204604
:101E900000F0E6FB3560204600F0E2FB2F461FE035
:101EA000039808603560356432613561326005241D
:101EB000204600F0D5FB3560204600F0D1FB0398AA
:101EC0005A49086035603564049830613561306086
:101ED000204600F0C5FB3560204600F0C1FBFF1C2A
:101EE000F8B205B0F0BDC0460880424090120A40EA
:101EF00081000400F0B587B04C487B4901604C4F2D
:101F000001263E600524204600F0AAFB3D46103D18
:101F10002E60204600F0A4FB46480068069020464C
:101F200000F09EFB3E60204600F09AFB2E602046AB
:101F300000F096FB3F4800680590204600F090FBBB
:101F40003E60204600F08CFB2E60204600F088FBAF
:101F5000384F38680490204600F082FB3448066011
:101F6000204600F07DFB2E60204600F079FB3868AB
:101F70000390204600F074FB2D480660204600F0D8
:101F80006FFB2E60204600F06BFB38680290204605
:101F900000F066FB26480660204600F061FB2E60DC
:101FA000204600F05DFB38680190204600F058FBA9
:101FB0001F480660204600F053FB2E60204600F0CC
:101FC0004FFB1C480768204600F04AFB1848066093
:101FD000204600F045FB2E60204600F041FB1548EE
:101FE0000568204600F03CFB114806600220049B77
:101FF0000340069A024005998907C90F891889008C
:10200000C918039A9207D20F51188900029A024008
:102010008918019A9207D20F511889000740C819F0
:10202000A907C90F0818C0B207B0F0BD0880424028
:10203000A0120A4080130A4070B5284A852010601B
:1020400001239903264801608421D1645906016067
:1020500086219162590501608821D162990501604C
:10206000204C8225256520494E1C6665A564E664E2
:102070001E4D15661E4D15616163812626606660E2
:10208000A563E563A565E56551621162116311649D
:102090000246303ADB0613600246403A03241460DD
:1020A000DA1C02601348026810231343036081396D
:1020B0001148026A0A43026202680A4302600F483A
:1020C00001680F4A0A4302600E48016A4422114324
:1020D000016201681143016070BDC04690804240BA
:1020E000D0120A40048042408100040081000100B7
:1020F00081000500A0130A4028100A4090330A40CE
:102100001010000028300A40F0B581B0194C1A496F
:102110002046FFF7B3FB19492046FFF7B5FA002523
:102120000095204629462A462B46FFF793FB20467A
:1021300029462A46FFF780FB304E204631462A4684
:10214000FFF794FB01270097204629462A462B4695
:10215000FFF780FB204629463A46FFF76DFB2046F5
:1021600031463A46FFF782FB05488760032101604C
:1021700001B0F0BD008086406C5600007056000033
:1021800000918640F0B581B0194C1A492046FFF7FE
:1021900075FB19492046FFF777FA00250095204680
:1021A00029462A462B46FFF755FB204629462A4654
:1021B000FFF742FB114E204631462A46FFF756FBF9
:1021C00001270097204629462A462B46FFF742FB67
:1021D000204629463A46FFF72FFB204631463A462D
:1021E000FFF744FB064887600321016001B0F0BDA2
:1021F00000008740785600007C560000AF040000C5
:10220000001187400C48002101600320C1430B48A6
:102210000246083A13680B4013600168012291439B
:102220000160110203688B4303601103001F026801
:102230000A4302607047C04608030B4008010B4088
:102240000548042101601F2141600021816001686F
:1022500005220A430260704710E000E010B50C4C04
:102260000C492046FFF70AFB0B492046FFF76CFAA2
:102270000A48016801221143016009480168C0232E
:102280000B433F218B4303600648026010BDC046EC
:1022900000A08640845600008856000028B0864082
:1022A00014E400E008B18640B0B5184C1849204647
:1022B000FFF716FB17492046FFF7EEFA0322D1037A
:1022C000154803688B430360036930490B401A3398
:1022D0000361436913433C229343436143680122F2
:1022E000134044689443E318436093020B4C256801
:1022F0001D432560FF310A4B1C680C409103611897
:102300001960016811430160B0BDC0460000104073
:102310009C5600009E5600000011104028101040EE
:102320000CE400E010B5154C15492046FFF7D8FA2B
:1023300014492046FFF7B0FA0320C103124802688F
:102340008A4302600169114A0A40113202614169FF
:1023500017220A4328218A43426141680122114021
:1023600043689343591841609102094B1C680C4320
:102370001C6001681143016010BDC0460080104020
:10238000A8560000AA560000009110400000FFFF70
:102390002890104080B500F01BF8FFF74DFEFFF7C6
:1023A00031FFFFF7EFFEFFF7AFFEFFF757FFFFF735
:1023B000B9FFFFF779FFFFF743FF742002490022BE
:1023C0000A5402490A5480BD44022020CC01202036
:1023D000F0B581B00D480E4941600E4A51600E4B78
:1023E00059600E4C61600E4D69600E4E71600E4F6B
:1023F00079600E49016011601960216029603160C7
:1024000039601020FFF73AF901B0F0BD00080A402A
:10241000030000B100280A40000887400088864079
:1024200000A88640008810400008104001000026E7
:10243000F0B581B04D4A812111604D4F02253D60BC
:102440003D6401243C61009040B2002801D43D610C
:1024500000E03D60204600F003F93C600526304670
:1024600000F0FEF83C61304600F0FAF800984006B3
:1024700001D43D6100E03D60204600F0F1F83C6091
:102480000526304600F0ECF83C61304600F0E8F8F4
:102490000098800601D43D6100E03D60204600F0D8
:1024A000DFF83C600526304600F0DAF83C61304643
:1024B00000F0D6F80098C00601D43D6100E03D6010
:1024C000204600F0CDF83C600526304600F0C8F804
:1024D0003C61304600F0C4F80098000701D43D612B
:1024E00000E03D60204600F0BBF83C600526304629
:1024F00000F0B6F83C61304600F0B2F800984007B2
:1025000001D43D6100E03D60204600F0A9F83C6048
:102510000526304600F0A4F83C61304600F0A0F8F3
:102520000098800701D43D6100E03D60204600F046
:1025300097F83C600526304600F092F83C61304642
:1025400000F08EF80098C00701D13D6100E03D60C9
:10255000204600F085F83C600525284600F080F80C
:102560003C61284600F07CF801B0F0BD0880424094
:1025700090120A4007480068C0B2012804D10648FA
:1025800000210160054801600120C006044908607F
:102590007047C04620B086405C01202060012020AA
:1025A000A0120A400C48011F0268D2B20A600B490F
:1025B0000968C9B20B290ED1026809490878C628F2
:1025C00003D8084B1A54401C0870064900220A54CC
:1025D000054801210170704724111040201010405F
:1025E0005901202090002020580120207047000031
:1025F00080B50120C003044908600449086004A0B4
:10260000FDF738FF80BDC04680E200E000E100E059
:10261000426F61726420496E6974205B5B202A2AD4
:10262000204C434B4642202A2A205D5D0D000000CD
:10263000B0B57D210902414314480368262206E013
:10264000E41A051F2D686419A2188A4206D21C4696
:1026500003689C42FCD0F3D9E41AF5E7B0BDC0464C
:10266000B0B50A490A684001262306E0A41A0D1FE6
:102670002D686419E318834206D214460A6894420E
:10268000FCD0F3D9A41AF5E7B0BDC04618E000E0CD
:10269000F0B58DB0054607AF0920F870E320B8709B
:1026A000CA207870022001903870682004213A46D0
:1026B00001F0B6FAA32179723972F97140230695B7
:1026C0002B405C20C043002B024601D03D22D24368
:1026D000FA70002B024601D03722D243BA703F2451
:1026E0000493002B024600D0E24300947A703970C4
:1026F000012635022C46803506990D40014601D051
:102700003921C943B971002D014601D03321C94394
:102710007971002D01D03B20C043387173480F30D0
:102720000A213A4601F07CFA032027220699084044
:102730000390029201D0202000E0D04338706B4813
:102740001E3031463A4601F06BFA069FB8060AD4AD
:102750000AAAC720107268480B9068480A90972010
:10276000C000092109E05D200C9061480B90614890
:102770000A909720C00009210AAA01F051FA002D01
:1027800016D02E46274204D19020B4218023B025B4
:1027900003E09B20B6218B23B22507AAD07091704D
:1027A0005370157051480A30042101F039FA35464A
:1027B000F807059506D107AAD82010708B200001D4
:1027C00001214DE007AAF82010708B20000101269E
:1027D000314601F025FA0720FA2100F025FA0AAA6D
:1027E000009810702920C7003846314601F018FAC9
:1027F0000AAA00251570F81D314601F011FA0AAE3B
:1028000014207070357038469630019C214632464F
:1028100001F006FA64207070357038469230214617
:10282000324601F0FDF90AAA9020D070F92090708C
:102830008E205070157038461430042101F0F0F9E4
:10284000082070703570384612302146324601F04B
:10285000E7F97470357010373846069F21463246C6
:1028600001F0DEF9049D0299B80702D52620C04385
:1028700000E0C84307AA10702148012101F0D0F9F7
:10288000780701D4204800E01E480A9004210AAAD3
:10289000164801F0C5F900F05FFFF80601D41C48A6
:1028A00000E01A480A901148801D04210AAA01F08C
:1028B000B7F900F051FF0820384386490880002D01
:1028C00000D006250598002800D0AD1D1420074231
:1028D00001D0102005430398002800D02D1D00F0E2
:1028E0003BFF7B48057000200DB0F0BD980A00004A
:1028F000B4980D35B8AAB38DB088C3C5B8AAAAAA32
:102900003D070000C0C2C4C68B8B8B8B202830389B
:10291000A3A3A3A380B50120820203480349C823CF
:1029200000F038FD80BDC046F60B0000764A00007E
:10293000F0B58DB00393154604910446129F00260E
:102940003E806348007805A9139A00F0B3FEF14376
:10295000002800D0B8E0019402975E480788142050
:102960000742049B4DD000910598000605AA5178B6
:1029700009040C18907800022018D378C018286039
:102980000698000653791B041B189079000218184A
:10299000D6798019686007980006567A360436188A
:1029A000907A00023018D17A4018A8600898000682
:1029B000517B09040818917B09024118D27B8918C0
:1029C000E9601914494322145243511832145243F6
:1029D0008918001440430818F121090640183E499F
:1029E000884206D300F0B8FE0020029908800099C2
:1029F0006AE001200002029A11880143118010262A
:102A0000049B780603D43146039E029C21E00120FA
:102A1000304305A9085C8A5D120210181880032053
:102A20003043085C022232438A5C1202101858803C
:102A300005203043085C04223243895C09020818EF
:102A40009880029C2088082101432180062131437F
:102A5000039E019D012000028030074215D005A889
:102A600042185378405C0002C0182880D0789378D0
:102A70001B02181868805079127912021018A88069
:102A80002088702202432280891DB80718D005A82B
:102A90004518EC786878C1070AD010490A68002AFE
:102AA00006D007202040411CA006400F90476878C0
:102AB000000705D50A480168002901D0A009884708
:102AC000304600F0EDF9002108460DB0F0BDC046DB
:102AD000CA012020C401202001000002B8012020EA
:102AE000BC01202070B586B00446134805901348F9
:102AF0000490134803900026F543C82C18D8E1B27F
:102B0000C82001F0BFF8401E01AA5070000A1070E2
:102B10000C48022101F084F8002809D10A480C2150
:102B200003AA01F07DF8002802D108480480354648
:102B3000284606B070BDC046BBAFDFDFAAF1DFDFBD
:102B4000FEF2ABC416020000C10A0000C80120203A
:102B5000F0B583B00446032108402D4B1D5C02AA4A
:102B600015702C4D285C01AE30702006800F1F5C64
:102B70009770E706BF0FDB5D5370285CB070E85DAF
:102B80007070254E304601F04BF80027FD430028B9
:102B900029D1301D032101AA01F042F8002822D1D9
:102BA0001E4801901E48029060071FD4A00625D43D
:102BB000E00505D501A86721817002A87721817001
:102BC00030461A30032102AA01F02AF800280AD15F
:102BD0000B36032101AA304601F022F8002802D169
:102BE000104804803D46284603B0F0BD01A82721C7
:102BF000017002A837210170A006D9D501A847218C
:102C0000417002A857214170E005D3D4D8E7C046EF
:102C1000734A0000704A0000260400002646660041
:102C200036567600C0012020F0B585B00E46054628
:102C30000021CC4319208001864200D988E007207A
:102C4000284000D184E0019103AF384600F096FAA5
:102C50003046FEF7B3FA4049FEF7AEF939788A1EDE
:102C60000121CA41072A73D88D21CE053B49C046B0
:102C70007A441279520097440E036B076B6B6B0B0F
:102C800023214E06384906E08B21CE05354902E066
:102C900045210E0632490294074601F031FDFEF748
:102CA0003BFA044631462E4604ADE870384601F042
:102CB00027FDFEF731FA6870210AA970000A287012
:102CC000AF1CF00706D1B00711D47007029C24D4C2
:102CD000019C3DE03C46492087003846B030022147
:102CE00004AA00F09DFF00280DD0029C30E049208E
:102CF00084002046B430022104AA00F091FF00288D
:102D00001ED0029C24E0022138462746224600F0CD
:102D100087FF0028D7D0029C1AE04920850028466A
:102D2000B830022104AA00F07BFF002810D108353A
:102D3000022128463A4600F073FF002808D1C7E771
:102D4000201D02213A4600F06BFF0028BDD0029CF6
:102D5000204605B0F0BDC046000048430000404694
:102D60000000C044000040450000C04503490A6817
:102D7000D207FCD1C2B28A617047C04608911040A8
:102D800084B0FFF707FBFFF733FCFEF759FC012780
:102D900038052749086027490A683A430A60264CE3
:102DA0002060FEF7D9FD02202060002003900290F1
:102DB000019022A0FDF75EFB00F0A0F900280AD0E8
:102DC00020A42046FDF756FBC820FFF731FC00F099
:102DD00095F90028F5D11EA0FDF74CFB25A429A5E7
:102DE0002CA602E01420FFF723FC03A802A901AAE5
:102DF00000F0A2F80028F5D1F8061D49086032203D
:102E0000FFF716FC0398FEF787F901462046FDF709
:102E1000D5F90298FEF780F901462846FDF7CEF96C
:102E20000198FEF779F901463046FDF7C7F9D9E771
:102E300080E200E004B8864000E100E07374617253
:102E4000740D0000646D70206572726F720D000069
:102E5000496E697469616C697A6174696F6E204446
:102E60006174612053756363656564200D00000023
:102E700090120A400D0A7069746368203D25640D44
:102E80000A0000000D0A726F6C6C203D25640D0A6B
:102E9000000000000D0A796177203D25640D0A00CD
:102EA00070470000F0B585B005462420BD4E305C6B
:102EB000002803D00024204605B0F0BDB07A0024DD
:102EC000E74300281DD0FE210D402840317C0291AF
:102ED0003074A84200D0E443307D284313D0707C86
:102EE00000281ED103AB01221A7003CEC07B0190D3
:102EF00008780199083EFEF7F3FE002811D10398E7
:102F00000EE03C46D7E704AB0020187005CEC17B2D
:102F100010780122083EFEF7E3FE002801D1049854
:102F20007074002DC7D000F017FC0028C3D00298A1
:102F300030743C46BFE7C046F0B597B014460E4625
:102F4000054610A8019011A8009014A812A90CAA77
:102F500016ABFFF7EDFC002802D0012017B0F0BD42
:102F600011A80088C00502D4022017B0F0BD0C984B
:102F7000FEF71CF961210696CE05314601F0C0FB33
:102F80000B900D98FEF712F9314601F0B9FB074698
:102F900009900E98FEF70AF9314601F0B1FB07944B
:102FA00004460F98FEF702F9314601F0A9FB0646E8
:102FB0000A9003208107384601F0A2FB05903146B4
:102FC00001F09EFB07460B98014601F053FB0646B5
:102FD000214601F095FB394601F04CFBFDF7C2FF9D
:102FE00000F0DCFF434A444BFDF798FEFDF788FAFA
:102FF000286008942046214601F03CFB07460A99C8
:1030000001F07EFB05463046099E314601F078FB13
:10301000294601F02FFBFDF7A5FF049003913046F0
:10302000059901F06DFB0546089C2046394601F0E4
:1030300067FB0146284601F0BBFB7F21C90501F073
:1030400019FBFDF78FFF02460B460498039901F028
:10305000EDF9284A284BFDF761FEFDF751FA069974
:1030600008603046214601F04BFB05460B9C20468C
:103070000A9E314601F044FB0146284601F0FAFA67
:10308000014601F0F7FAFDF76DFF0546069120466F
:10309000214601F035FB07460998014601F030FB57
:1030A0000146384601F0E6FA07460898014601F065
:1030B00027FB0146384601F07BFB0446304631468B
:1030C00001F01EFB0146204601F072FBFDF74AFFAE
:1030D00002460B462846069901F0A8F9054A064B18
:1030E000FDF71CFEFDF70CFA07990860002017B0E9
:1030F000F0BDC0466666666666A64C4080B500F0C8
:1031000057F8000601D0002080BD782000F018FD9F
:10311000000601D0012080BD7820FFF7C3FE000625
:1031200001D0022080BD642000F098FC000601D090
:10313000032080BDFFF7EEFB000601D0042080BD18
:103140008820FFF705FD000601D0052080BDFF2087
:103150007430FFF79DFA000601D0062080BD642080
:10316000FFF7C0FC000601D0072080BD012000F061
:1031700007FC0006C7D0092080BD000010B501463D
:103180000020CD4B5A7A032A0AD8D200064CD440EC
:103190000C70DB7C002B02D0044BD3400B7010BDB5
:1031A000C04310BD000020200204081004081020B5
:1031B000F0B587B002AB80201870614F05CF817CDD
:1031C00010780122083FFEF78BFD0026F44300280B
:1031D00018D16420FFF72CFA02AB1E7005CF817C5A
:1031E000107801252A46083FFEF77AFD002809D10C
:1031F00005CF817D1078062202AB083FFEF740FC28
:10320000002802D0204607B0F0BD02A8417829402E
:103210004279D207520FC078C007800F801841183A
:103220006BD001292A4602D002297FD132462420C0
:103230003E5425203E5426203E5427203E54FF2055
:10324000B87438745248F881FA743D73BC6028042D
:103250007E61BE61FE61386204AB1820187005CF34
:10326000817910782A46083FFEF73AFD0028C9D137
:1032700004A80078C0083872B87A0028C2D005A81F
:1032800000210170787A002810D005CFC17910781C
:10329000012205AB083FFEF723FD0028B2D105A8A7
:1032A0000078C0087872B87A0028ABD006A803214D
:1032B0000170F87A03280BD005CF817810780122AD
:1032C00006AB083FFEF70CFD00289BD10698F8726C
:1032D000322000F0C3FB002894D10020FFF7E2FD6C
:1032E00000288FD10025284600F0DCFA002889D17B
:1032F000284600F025FC2C4684E705CFC1781078DD
:10330000012202AB0192083FFEF7BAFB002800D071
:1033100078E702A801780F20084004280AD0002886
:10332000324684D11948FDF7A5F86BE705A0FCF7F4
:1033300045FF67E70DA0FDF79DF8019A77E7C046C6
:1033400000002020556E737570706F727465642074
:10335000736F6674776172652070726F64756374E1
:10336000207265762025642E0A00000048616C6694
:103370002073656E736974697669747920706172FF
:103380007420666F756E642E0000000012570000F6
:10339000FFFF0000F0B58FB006460024E04308911F
:1033A000002977D02525EB49495D002972D1029289
:1033B000009501930390002E5CD025460496331BA4
:1033C000102BE44A00DB1023907A002864D00EA86A
:1033D00045702E0A0670E8B299B207910F1850682E
:1033E00041898F4258D800781168097E02220993DA
:1033F0000EABFEF775FC099BD64900284CD122463E
:1034000034460898861805C9417D1078DAB20692CC
:1034100005963346FEF764FC00283DD1CD4A907AEC
:10342000002839D0E0B20EA94D700870506841896B
:103430008F4231D800781168097E02220EABFEF768
:103440004FFCC449002827D105C9417D10780AAB3B
:10345000069AFEF715FB00281ED10AA90598079ABF
:10346000FDF71EF8002822D109982D18ACB2049E51
:10347000B442A4D30EAB02985870000A1870B54C31
:1034800005CC817E10780222083CFEF729FC00283A
:10349000039804D00FB0F0BD03980FB0F0BD012029
:1034A000009960540198E08400200FB0F0BD0398AB
:1034B000401E0FB0F0BDC04600002020F0B589B01E
:1034C0000025EF43282800D9F1E0064600280BD05C
:1034D00001972324F24A105D01283BD0907C1346CB
:1034E000002818D0322117E02324ED4D285D002854
:1034F00000D1CDE0A87C411E02468A41510003AABA
:1035000011702221695C002900D1B5E0002800D1AA
:10351000AEE07D20ADE03021009504AA117022219B
:103520001D46595C002907D0002801D04D2000E03D
:103530004F20C04304A9087005CD017D10780127F4
:1035400004AB3A46083DFEF7CBFB2A460028009D17
:1035500000D1175502A820210170012E19D102A80F
:1035600000214170907A00282FD005A80621017013
:10357000D07A062829D010681446526881781078CD
:10358000012205ABFEF7ACFB224600281DD10598B1
:103590001AE0052E33D802A801214170907A002844
:1035A00013D006A806210170D07A06280DD0106825
:1035B0001446526881781078012206ABFEF790FB22
:1035C0002246002801D10698D072019F02AB58789C
:1035D0008001C01D5870106814465268817C1078B4
:1035E0000222FEF77DFB002861D1012020752573A2
:1035F0000820A0722846FFF755FC2F4657E0142EEE
:103600001AD802A802214170907A0028019FDDD0CB
:1036100007A805210170D07A0528D7D01068144674
:10362000526881781078012207ABFEF759FB2246D9
:103630000028CBD1079819E002A803214170907AA5
:103640000028019FC2D008A804210170D07A042864
:10365000BCD010681446526881781078012208ABFB
:10366000FEF73EFB22460028B0D10898D072ADE7A5
:103670007F20C04303A9087005CD017D1078012289
:1036800003AB083DFEF72CFB002801D10020285594
:103690000720000202AB188005CD817C1078022241
:1036A000083DFEF71DFB002801D100272F75384685
:1036B00009B0F0BDF0B585B006462420E64F385C71
:1036C0000024E543002842D0B87A00283FD0029178
:1036D000039205CF817A1078022204AB083FFEF7EF
:1036E000CFF9002833D104A84178007800024218AD
:1036F000B24203D200200399087028E0786841881C
:1037000049088A4201920DD900783968497C012222
:1037100004ABFEF7B5F9002819D104A80078C0065B
:1037200012D4786800783968C97AF2B2029BFEF741
:10373000A7F900280BD10198314600F0A3FA401EEA
:1037400003990870254602E000F006F86D1E284631
:1037500005B0F0BD0000202070B582B00026F44313
:10376000F64DA87A00281ED001AB1E7005CDC17B96
:1037700010780122083DFEF7B3FA002813D105CDD9
:1037800041791078012201AB083DFEF7A9FA002823
:1037900009D105CD01791078012201AB083DFEF772
:1037A0009FFA002802D0204602B070BD2420285C79
:1037B000002813D001AB0C20187005CD01791078CA
:1037C0000122083DFEF78CFA0028ECD13220FEF7EA
:1037D0002FFFA87AC0073AD01F2039E001AB0420A0
:1037E000187005CD017910780122083DFEF778FAAE
:1037F0000028D8D1A97A4020C907014600D060210D
:10380000AA7C002A00D0014601AB197005CD0179D0
:1038100010780122083DFEF763FA0028C3D1322058
:10382000FEF706FF687C411E884101AB187005CD8C
:10383000C17B10780122083DFEF752FA0028B2D170
:1038400005CD41791078083501222B4621E03F2033
:10385000C04301AB187005CD017910780122083DF5
:10386000FEF73EFA00289ED1687C411E8841400048
:1038700001AB187005CDC17B10780122083DFEF721
:103880002FFA00288FD101AB1E7005CD4179107839
:103890000122FEF725FA002885D1344683E7C04689
:1038A00000002020F0B581B00446F54EB07CA04267
:1038B00001D1002560E005CE0179107801226B4628
:1038C000083EFEF7DDF80027FD43002C19D0002844
:1038D00052D16B461878DF210140197005CE01796D
:1038E00010780122083EFEF7FBF9002844D103209E
:1038F000FEF79EFE2220305C002826D07D20C043AB
:1039000024E0002838D16B461878DF210140B07AD6
:10391000C007800E0818187005CE017910780122B2
:10392000083EFEF7DDF9002826D10320FEF780FED1
:103930002220305C411E02468A41D1016A46117044
:10394000002805D07F20C04302E0022069460870AD
:103950002321715C002903D0302108436946087097
:1039600005CE017D107801226B46083EFEF7B8F9BE
:10397000002801D1B4743D46284601B0F0BDC046D0
:10398000F0B585B02427BE4EF15D814201D10024FF
:103990005FE0002809D02520305C0024002825D0D5
:1039A000002925D002AB1C7028E0002902D1B07A92
:1039B00000280DD004AB0020187005CEC17B107814
:1039C0000122083EFEF78CF9002801D1049870749A
:1039D000307C01AB18707068007823210122FEF75B
:1039E0007FF90024F455FFF7B7FE32E0E44330E0FE
:1039F000B07A00280DD002AB0020187005CEC17B34
:103A000010780122083EFEF76BF9002801D10298D8
:103A100070742046FFF746FFF08C00F01FF801ABF2
:103A20001C7070680078232101252A46FEF758F99A
:103A3000F55503AB0220187005CEC17B10782A46DD
:103A4000083EFEF74DF9002801D103987074FFF786
:103A500083FE204605B0F0BD00002020F0B583B005
:103A6000054687490026F443887A002863D024203D
:103A7000085C00285FD1087D00280BD0681E80B24A
:103A8000272804D8E8B2FFF719FD344653E0002098
:103A9000FFF714FD0096E8087D21CE007D2800D3B5
:103AA0003546042D00D804253046294600F0EAF8B2
:103AB000401E01AB1870724D05CD4178107801277A
:103AC0003A46083DFEF70CF9002834D101A80478E5
:103AD000611C304600F0D6F8E881A87A002829D089
:103AE000012C01D802A815E0042C02D802A8022754
:103AF00010E00A2C02D802A803270BE0182C02D8E9
:103B000002A8042706E0312C02D802A8052701E00C
:103B100002A806270770E87AB8420BD005CD817855
:103B20001078012202AB083DFEF7DAF8002801D137
:103B30000298E872009C204603B0F0BD00002020EF
:103B400070B582B004464006400F02D0684601219D
:103B500005E06846002C01D0002100E04021017002
:103B6000474E05CE817C107801256B462A46083EDB
:103B7000FEF7B6F8002803D00020B072C54328E055
:103B8000200904218143A20600D4891C2840401842
:103B90006840210700D438306B4619781870BF2070
:103BA0000840307305CEC17C10782A46083EFEF7E7
:103BB00097F8002803D00020B072C54309E0082020
:103BC0002043082808D100253575B4723220FEF74D
:103BD0002FFD284602B070BD2325705D0028F2D06D
:103BE000B07C411E02468A41510001AA1170222177
:103BF000715C002907D0002801D07D2000E07F20E3
:103C0000C04301A9087005CE017D1078012201ABE7
:103C1000083EFEF765F80028D5D100207055D2E7A0
:103C2000F0B581B00027FC43002A25D00E46144B86
:103C3000997A002920D0154669464870020A0A7010
:103C4000C0B2811958684289914215D80078196824
:103C5000097E02226B46FEF743F800280CD1084982
:103C600005C9417D1078F2B22B46FEF739F80028DD
:103C700001D1044600E0FC43204601B0F0BDC0463F
:103C80000000202043088B421AD3002203098B42F4
:103C900079D3030A8B425ED3030B8B4242D3030CCE
:103CA0008B4227D30902FF2212BA030C8B4202D3A4
:103CB0001212090203D0030B8B4233D31AE0D3E074
:103CC000411A8041401C704703460B4371D443089E
:103CD0008B42F5D3002203098B4254D3030A8B4253
:103CE00039D3030B8B421DD3030C8B4202D3944672
:103CF0006EE0090AC30B8B4201D3CB03C01A5241B9
:103D0000830B8B4201D38B03C01A5241430B8B426E
:103D100001D34B03C01A5241030B8B4201D30B0357
:103D2000C01A5241C30A8B4201D3CB02C01A52417E
:103D3000830A8B4201D38B02C01A5241430A8B4241
:103D400001D34B02C01A5241030A8B4201D30B022A
:103D5000C01A5241CDD2C3098B4201D3CB01C01A44
:103D6000524183098B4201D38B01C01A524143094E
:103D70008B4201D34B01C01A524103098B4201D33C
:103D80000B01C01A5241C3088B4201D3CB00C01AA9
:103D9000524183088B4201D38B00C01A5241430821
:103DA0008B4201D34B00C01A5241411A52411000BC
:103DB0007047CA0F00D04942031000D3404253401D
:103DC00000229C4603098B422DD3030A8B4212D357
:103DD0008901FC2212BA030A8B420CD38901921189
:103DE0008B4208D3890192118B4204D3890137D0C9
:103DF000921100E08909C3098B4201D3CB01C01A9B
:103E0000524183098B4201D38B01C01A52414309AD
:103E10008B4201D34B01C01A524103098B4201D39B
:103E20000B01C01A5241C3088B4201D3CB00C01A08
:103E3000524183088B4201D38B00C01A5241D9D220
:103E400043088B4201D34B00C01A5241411A00D2A1
:103E500001465241104663465B1000D34042704712
:103E600063465B1000D3404201B50021004201D0FF
:103E7000C9430846C046C04602BD00004900CA0208
:103E80000243100000D004204A0D01D0012210434B
:103E9000044A490D914201D102210843012800D171
:103EA00005207047FF070000F8B504464F1EC80004
:103EB0000838211815461E46086849683A46062300
:103EC0009A4310D02A463346FCF728FF3A46D200E0
:103ED000083AA3181A687F1E5B68FCF7CBFC062221
:103EE0003B469343EED1022F23D0042F11D0062F4F
:103EF0002FD12A463346FCF711FFE36AA26AFCF78A
:103F0000B9FC2A463346FCF709FF636A226AFCF7CC
:103F1000B1FC2A463346FCF701FFE369A269FCF7CE
:103F2000A9FC2A463346FCF7F9FE63692269FCF7CF
:103F3000A1FC2A463346FCF7F1FEE368A268FCF7D1
:103F400099FC2A463346FCF7E9FE63682268FCF7D1
:103F500091FCF8BD10B50122FDF7D6F910BD10B5E2
:103F6000FCF788FC10BD002210B513461046114620
:103F7000FCF7B0FC10BD0000034A10B5002011078B
:103F8000FDF7C2F910BD000001FDFFFF30380A281F
:103F900001D201207047002070470000F0B50446B0
:103FA0004F008E488FB07F080D460D91874228DB69
:103FB0004042381820430CD08948874203DC8742AE
:103FC00018D1002C16D020462946FFF7C3FF0FB0AA
:103FD000F0BD844A844B20462946FCF79FFE0746E5
:103FE0000E46824A824B20462946FCF797FE3A4607
:103FF000334649E00120FDF7E9F8FFF7B4FF0FB0C1
:10400000F0BD7C48874243DAF920800587420BDA0D
:1040100020462946FFF732FF042801D1FFF7ACFF05
:10402000204629460FB0F0BD22462B4610462946B1
:10403000FCF774FE064602466F480F460B46062103
:104040007844FFF731FF32463B46FCF767FE0690A7
:104050006A48079132463B4604217844FFF724FF23
:1040600032463B46FCF75AFE00225C4BFCF702FC52
:1040700002460B4607990698FCF72CFC22462B4675
:10408000FCF74CFE22462B46FCF7F4FB0FB0F0BDCC
:104090002046524C6900490800222346FCF702FCE6
:1040A0000022D243FDF730F90546024654480E4639
:1040B0000B4606217844FFF7F7FE2A463346FCF705
:1040C0002DFE06904F4807912A4633460421784436
:1040D000FFF7EAFE2A463346FCF720FE002223467D
:1040E000FCF7C8FB059104902846314600F06CFAB5
:1040F000089045480C46874219DB059B049A0799AE
:104100000698FCF7E7FB02460B4621460898FCF7A9
:1041100005FE2346089AFCF7ADFB0122FDF7F4F8F3
:10412000304A314BFCF7B3FB304A314B4AE00027B1
:104130003A460B460898FCF79DFB3A4623460A91FF
:104140000E9010461946FCF7E9FD2A463346FCF767
:10415000A9FB0A9B0E9AFCF7BDFB05460E46059B84
:10416000049A07990698FCF7B5FB00910490012288
:1041700028463146FDF7C8F81A4A1B4BFCF792FB5C
:104180000E460546012221460898FDF7BDF8009B22
:10419000049AFCF7C3FD2A463346FCF778FB054634
:1041A0000E46012238462146FDF7AEF80F4C174F58
:1041B00022463B46FCF776FB2A463346FCF772FB69
:1041C00022463B46FCF76EFB0D9A002A00DD5DE7B8
:1041D0000122D20751400FB0F0BD00000000F03FB7
:1041E0000000F07F075C143326A6913C182D445440
:1041F000FB21F93F0000E03F3C09000052090000AC
:10420000C8080000DE0800003333EF3FFB21E93F20
:10421000F0B589B004460D46480006917249400841
:10422000884215DB7149884203DC884207D1002CA3
:1042300005D020462946FFF78DFE09B0F0BD6C4839
:10424000002D02DD6B4909B0F0BD6B4909B0F0BD2E
:104250006A49884211DA6A4988420BDA20462946BF
:10426000FFF70CFE042801D1FFF786FE2046294601
:1042700009B0F0BD0026F6435DE06D0061496D08B0
:10428000884232DA6049884219DA00260123324630
:104290009B0720462946FCF7EDFA074601910122CB
:1042A00020462946FDF730F80022584BFCF7EFFA7C
:1042B0003A46019BFCF70EFB04460D463BE0012607
:1042C0000022524B20462946FCF7D4FA07460091BB
:1042D00000224E4B20462946FCF7D9FA3A46009B6D
:1042E000FCF7F8FA04460D4625E04949884219DAF8
:1042F00002260022474B20462946FCF70FFD0022EC
:10430000424BFCF7B7FA074602910022414B204688
:104310002946FCF7BCFA3A46029BFCF7DBFA044656
:104320000D4608E0032622462B4600203A49FCF7BA
:10433000D1FA04460D4622462B4610461946FCF794
:10434000EDFC07460B4602460191FCF7E7FC0246EE
:10435000029032480B46039106217844FFF7A4FDF2
:104360003A46019BFCF7DAFC00902D4801910521AB
:104370007844039B029AFFF797FD039B029AFCF790
:10438000CDFC02460B4601990098002E0BDAFCF793
:1043900071FA22462B46FCF7C1FC22462B46FCF75D
:1043A00081FA09B0F0BDFCF765FA22462B46FCF70E
:1043B000B5FC1C4AF6007A4493191A685B68FCF74E
:1043C00066FA22462B46FCF762FA174A7A4493199A
:1043D0001A685B68FCF766FA069A002AE1DA01229D
:1043E000D207514009B0F0BD000010440000F07F3A
:1043F000182D4454FB21F93FFB21F9BF0000DC3F9D
:104400000000203E0000F33F0000E63F0000F03FC8
:10441000008003400000F83F0000F0BFDA06000013
:104420009C0600003606000000060000F0B51FB430
:10443000039A029D53006E422E439446F40F5B088C
:104440004A00574E52081C438E46B44205D8474294
:104450000743FC0F1443B44205D92A466346FFF7CD
:104460007EFD05B0F0BD4F4E66442E430AD0CC0F02
:104470006646B61702273E40264304464A4F144379
:1044800004D00BE0FFF7C4FE05B0F0BD002EFBD05A
:10449000012EF9D0022E32D0032E34D01C462C43EC
:1044A0000BD03F4CA34216D1A2420AD10121890769
:1044B0008B438A43114603930DE0704600280FDBBF
:1044C00025E03A4D7D44002E0ED0012E10D0022E54
:1044D00015D0032E17D0A2421DD17046002816DA3F
:1044E0003148334905B0F0BD6968286805B0F0BDB2
:1044F00001226968D2072868514005B0F0BD3846EE
:104500002C4905B0F0BD38462B4905B0F0BD264812
:104510002A4905B0F0BDD21A12153C2A02DD224DFF
:10452000264C12E06346002B05DA3C23DA4202DA1D
:1045300000252C4609E0039B029AFCF7CBF94900C1
:104540004908FFF765FE05460C46002E12D0012EE5
:104550000DD01B4A1B4B022E2846214618D0FCF7D3
:1045600096F93A46134BFCF792F905B0F0BD0120DD
:10457000C0074440002213462846214600F048F870
:1045800002D10220FCF722FE2846214605B0F0BDEC
:10459000FCF77DF93A46074BFCF784F905B0F0BD0E
:1045A0000000F07F000010C0182D4454A00500004A
:1045B000FB21F9BFFB210940FB2109C0FB21F93F89
:1045C000075C143326A6A13CF8B506460C46FCF75A
:1045D0003BFF051E0F4600D00120014349000B4858
:1045E0004908411AC90F0DD0002E01D0012100E069
:1045F00000210C4361004908401AC00F02D101207C
:10460000FCF7E4FD28463946F8BD00000000F07FC5
:1046100070B501252D050C001C4310D4EC4206D4C6
:10462000AC420AD4994200D070BD904270BDE942BC
:1046300017D4EB4215D4994270BD894270BDEC424B
:1046400006D5AC42F9D58B4200D070BD824270BD18
:104650006D004C00EC4204D25C00EC4201D28B4273
:1046600070BD034C30B4FCF79FFE30BC70BD00BF82
:104670001900120470B50125ED0704004C4020D448
:10468000441A01D2001B0919C60D4B00F2B2FF2AD1
:1046900029D01B0E2CD000020C0228432C43D31A25
:1046A000DC40051910D2280A02D3401C6D0611D037
:1046B000761EF6058019FF2A00DA70BDC00DC00510
:1046C00070BD694000F07AF801200543C541521CD5
:1046D000761CE8E764089C40C90161408900E7D185
:1046E0000124A043E4E71B0E440200D0034870BD40
:1046F000002AFCD1C00FC00770BD00BF0000C07F02
:1047000070B5420064414B005C41120E39D01B0E63
:1047100038D0FF2A3CD0FF2B3AD0D2187F3A400243
:104720004902400A490A4518ED0106004E43000AB5
:10473000090A48430104731A4019190C4318990FC8
:1047400004D05B08012149075B1A521CD80904D325
:10475000401CF50301D19D0607D0FF2A08D2D505DC
:1047600006D0E4072043401970BD0125A843F4E7B3
:10477000002A01DCE00770BD2402FF202043C005B1
:1047800070BD1B0EFF2A03D0FF2B01D0E00770BDC8
:10479000FF2636064500B54206D84D00B54203D87F
:1047A000D218FF2A00D0E7E7004870BD0000C07FA4
:1047B00070B50125ED0704004C4022D4441A02D202
:1047C0006C40001B0919C60D4B00F2B2FF2A4BD0FA
:1047D0001B0E50D000020C02A8432C43D31ADC401D
:1047E000051B05D5AD0019D36D08761E521E37D0B6
:1047F000F605280A01D2801970BD70416D0603D0FC
:1048000070BD6940FFF73CFF9C40090261404900D0
:1048100001D0401E70BD0124A04370BD6D081DD0A5
:1048200001202B0C01D12D0410302B0E01D12D02B3
:1048300008302B0F01D12D01001DAB0F01D1AD00B0
:10484000801CEB0F01D16D00401C361A121A6D004E
:10485000680AF5054019012A02DB70BD002070BD11
:10486000C036300AC00770BD1B0E440201D1FF2BB9
:1048700000D1024870BD002AF0D070BD0000C07F9A
:104880003031323334353637383941424344454686
:104890004030580030313233343536373839616280
:1048A0006364656640307800040000080000000082
:1048B00000000002000100001080807F7E7D7C7B74
:1048C0007A7978777676757473727171706F6E6EAF
:1048D0006D6C6C6B6A6A6968686766666564646358
:1048E0006362616160605F5F5E5E5D5D5C5C5B5BDF
:1048F0005A5A59595858575756565555555454534E
:104900005352525251515050504F4F4F4E4E4D4DA9
:104910004D4C4C4C4B4B4B4A4A4A494949484848F4
:104920004747474746464645454544444444434334
:10493000434342424242414141818283848586878A
:1049400088898B8C8D8E8F919293959697999A9C4E
:104950009D9FA0A2A3A5A7A8AAACAEB0B2B3B5B7BD
:10496000B9BCBEC0C2C5C7C9CCCED1D4D7D9DCDF93
:10497000E2E6E9ECF0F3F7FAFE00000000000000C8
:10498000555555555555C53F7D6FEB0312D6D4BFD0
:104990005544880E55C1C93F3B8F68B52882A4BFD6
:1049A00088B20175E0EF493F09F7FD0DE13D023F97
:1049B0004B2D8A1C273A03C0C88A599CE52A00401F
:1049C00059018D1B6C06E6BF82922EB1C5B8B33F6C
:1049D0004FBB610567ACDD3F182D4454FB21E93F17
:1049E0009BF681D20B73EF3F182D4454FB21F93F06
:1049F000E2652F227F2B7A3C075C143326A6813C8C
:104A0000BDCBF07A8807703C075C143326A6913C36
:104A1000C4EB98999999C9BF711623FEC671BCBFA2
:104A20006D9A74AFF2B0B3BF9AFDDE522DDEADBF0A
:104A30002F6C6A2C44B4A2BF0D5555555555D53F22
:104A4000FF8300922449C23F6E204CC5CD45B73F3D
:104A5000513DD0A0660DB13FEB0D76244B7BA93FB5
:104A600011DA22E33AAD903F0000000000000000A0
:104A70000CC92C4CCD6C000070000000002400001C
:104A800000020003000000650054FFEF0000FA8000
:104A9000000B12820001030C30C30E8C8CE914D57C
:104AA000400213710F8E3883F8833000F883258E0F
:104AB000F8833000F883FFFFFFFF0FFEA9D6240024
:104AC00004001A8279A10000003CFFFF00000010E2
:104AD000000038836FA2003E03304000000002CA8D
:104AE000E3093E80000020000000000000004000BC
:104AF000000060000000000C0000000C186E0000B8
:104B000006920A16C0DFFFFF0256FD8CD377FFE145
:104B1000C496E0C5BEAA00000000FFFF0B2B0000FA
:104B20001657000003594000000000001DFA000263
:104B30006C1D000000003FFFDFEB003EB3B6000D30
:104B4000227800002F3C00000000001942B5000050
:104B500039A20000B365D90E9FC91DCF4C34300077
:104B60000000500000003BB67AE80064000000C876
:104B7000000000000000100000001000FA92100079
:104B8000225E000D229F0001000000320000FF465F
:104B9000000063D400001000000004D6000004CC24
:104BA000000004CC00000000107200000040000073
:104BB00000000000000000060002000500070000E1
:104BC0000000006400000000000000000005000577
:104BD0000064002000000000000000000000000051
:104BE00040000000030000000032F8980000FF655C
:104BF0000000830F0000FF9BFC000000000000008D
:104C000000000000000000000000000000000000A4
:104C10000000000000000000000000000000000094
:104C2000000000001000400000000000000600002E
:104C3000B26A000200000001FB830068000000D996
:104C4000FC007CF1FF8300000000006500000064B0
:104C500003E800640028000000250000000016A002
:104C600000000000100000001000002F00000000F5
:104C700001F40000100000280000FFFF4581FFFF45
:104C8000FA7200000000000000000044000500056A
:104C9000BAC6004778A20000000100000000000032
:104CA0000600000000140000254D002F706D00006C
:104CB00005AE000C02D00000000000000000000063
:104CC000000000000000001B0000000000000000C9
:104CD0000000000000000064000000080000000068
:104CE00000000000000000000000000000000000C4
:104CF00000000000000000000000000000000000B4
:104D000000000000000000000000000000000000A3
:104D10000000000000000000000000000000000093
:104D20000000000000000000000000000000000083
:104D3000000000000000001B000000000000000058
:104D40000000000E000E00000AC700040000000072
:104D50000032FFFFFF9C00000B2B00000002000050
:104D6000000100000064FFE50000000000000000FA
:104D70000000000000000000000100000000000131
:104D80000000000000000001800000018000000120
:104D90008000002426D30000000000000000000670
:104DA00000100096003C0000000000000000000021
:104DB0000000000000000C0A4E68CDCF77095016A5
:104DC0006759C619CE8200000000000000000000F4
:104DD000000000000000000000000000000017D7E5
:104DE0008400030000000000000000000000C793E2
:104DF0008F9D1E1B1C190000000000000000000019
:104E0000000000000000000000000000000002039D
:104E100018850000400000000003000000030000AF
:104E20000000000000004000000000000000000042
:104E30000000000000000000000000000000000072
:104E40000000000000000000000000000000000062
:104E500000000000000000000000677DDF7E72900F
:104E60002E554CF6E688000000000000000000000F
:104E7000000000000000D8DCB4B8B0D8B9ABF3F83B
:104E8000FAB3B7BB8E9EAEF132F51BF1B4B8B08069
:104E900097F1A9DFDFDFAADFDFDFF2AAC5CDC7A95F
:104EA0000CC92C97F1A989264666B28999A92D5576
:104EB0007DB0B08AA896365676F1BAA3B4B280C057
:104EC000B8A89711B28398BAA3F0240844106418C4
:104ED000B2B9B49883F1A329557DBAB5B1A3839330
:104EE000F0002850F5B2B6AA839328547CF1B9A3F8
:104EF000829361BAA2DADEDFDB819AB9AEF560682F
:104F000070F1DABAA2DFD9BAA2FAB9A38292DB3180
:104F1000BAA2D9BAA2F8DF85A4D0C1BBAD83C2C5FD
:104F2000C7B8A2DFDFDFBAA0DFDFDFD8D8F1B8AAC9
:104F3000B38DB4980D355DB2B6BAAF8C96198F9F0C
:104F4000A70E161EB49AB8AA872C547CBAA4B08AAD
:104F5000B691325676B28494A4C808CDD8B8B4B00D
:104F6000F19982A82D557D98A80E161EA22C547C6E
:104F700092A4F02C5078F184A898C4CDFCD80DDB15
:104F8000A8FC2DF3D9BAA6F8DABAA6DED8BAB2B61A
:104F90008696A6D0F3C841DAA6C8F8D8B0B4B882CD
:104FA000A892F52C548898F135D9F418D8F1A2D0EC
:104FB000F8F9A884D9C7DFF8F883C5DADF69DF8399
:104FC000C1D8F40114F1A8824EA884F311D182F55E
:104FD000D992289788F109F41C1CD884A8F3C0F949
:104FE000D1D99782F129F40DD8F3F9F9D1D982F406
:104FF000C203D8DEDF1AD8F1A2FAF9A88498D9C77B
:10500000DFF8F8F883C7DADF69DFF883C3D8F40183
:1050100014F198A8822EA884F311D182F5D9925068
:105020009788F109F41CD884A8F3C0F8F9D1D9976E
:1050300082F149F40DD8F3F9F9D1D982F4C403D837
:10504000DEDFD8F1AD8898CCA809F9D98292A8F50D
:105050007CF1883ACF944A6E98DB6931DAADF2DEA2
:10506000F9D88795A8F221D1DAA5F9F417D9F1AECC
:105070008ED0C0C3AE82C684C3A88595C8A588F269
:10508000C0F1F4010EF18E9EA8C63E56F554F1888B
:1050900072F40115F19845856EF58E9E0488F142F3
:1050A000985A8E9E068869F4011CF1981E1108D04A
:1050B000F504F11E970202983625DBF9D985A5F390
:1050C000C1DA85A5F3DFD88595A8F309DAA5FAD862
:1050D0008292A8F578F1881A849F26889821DAF4BC
:1050E0001DF3D8879F39D1AFD9DFDFFBF9F40CF37B
:1050F000D8FAD0F8DAF9F9D0DFD9F9D8F40BD8F327
:10510000879F39D1AFD9DFDFF41DF3D8FAFCA86946
:10511000F9F9AFD0DADEFAD9F88F9FA8F1CCF3987D
:10512000DB45D9AFDFD0F8D8F18F9FA8CAF3880943
:10513000DAAF8FCBF8D8F2AD978D0CD9A5DFF9BADD
:10514000A6F3FAF412F2D8950DD1D9BAA6F3FADA89
:10515000A5F2C1BAA6F3DFD8F1BAB2B68696A6D048
:10516000CAF349DAA6CBF8D8B0B4B8D8AD84F2C047
:10517000DFF18FCBC3A8B2B68696C8C1CBC3F3B05C
:10518000B48898A821DB718D9D71859521D9ADF2E8
:10519000FAD88597A828D9F408D8F28D29DAF40529
:1051A000D9F285A4C2F2D8A88D9401D1D9F411F214
:1051B000D88721D8F40AD8F28498A8C801D1D9F4A4
:1051C00011D8F3A4C8BBAFD0F2DEF8F8F8F8F8F8BD
:1051D000F8F8D8F1B8F6B5B9B08A95A3DE3CA3D9F2
:1051E000F8D85CA3D9F8D87CA3D9F8D8F8F9D1A518
:1051F000D9DFDAFAD8B18530F7D9DED8F830ADDAB0
:10520000DED8F2B48C99A32D557DA083DFDFDFB506
:1052100091A0F629D9FBD8A0FC29D9FAD8A0D05161
:10522000D9F8D8FC51D9F9D879D9FBD8A0D0FC79D4
:10523000D9FAD8A1F9F9F9F9F9A0DADFDFDFD8A1B5
:10524000F8F8F8F8F8ACDEF8ADDE8393AC2C547CBB
:10525000F1A8DFDFDFF69D2CDAA0DFD9FADB2DF82D
:10526000D8A850DAA0D0DED9D0F8F8F8DB55F8D8B5
:10527000A878DAA0D0DFD9D0FAF8F8F8F8DB7DF812
:10528000D89CA88CF530DB38D9D0DEDFA0D0DEDFAB
:10529000D8A848DB58D9DFD0DEA0DFD0DED8A86898
:1052A000DB70D9DFDFA0DFDFD8F1A888902C547C39
:1052B00098A8D05C38D1DAF2AE8CDFF9D8B087A8E4
:1052C000C1C1B188A8C6F9F9DA36D8A8F9DA36D852
:1052D000A8F9DA36D8A8F9DA36D8A8F9DA36D8F73C
:1052E0008D9DADF818DAF2AEDFD8F7ADFA30D9A45B
:1052F000DEF9D8F2AEDEFAF983A7D9C3C5C7F188C3
:105300009BA77AADF7DEDFA4F8849408A797F30093
:10531000AEF29819A488C6A39488F632DFF283937C
:10532000DB09D9F2AADFD8D8AEF8F9D1DAF3A4DED6
:10533000A7F1889B7AD8F38494AE19F9DAAAF1DF41
:10534000D8A881C0C3C5C7A39283F628ADDED9F81B
:10535000D8A350ADD9F8D8A378ADD9F8D8F8F9D1F9
:10536000A1DADEC3C5C7D8A18194F818F2B089AC20
:10537000C3C5C7F1D8B8B4B09786A8319B069907C2
:10538000AB9728889BF00C201440B0B4B8F0A88AE2
:105390009A285078B79BA8295179247059446938C4
:1053A000644831F1BBAB88002C547CF0B38BB8A8B7
:1053B00004285078F1B088B49726A85998BBABB3AD
:1053C0008B02264666B0B8F08A9CA82951798B29B1
:1053D00051798A2470598B2058718A4469388B39E5
:1053E00040688A6448318B30496088F1AC002C54A5
:1053F0007CF08CA804285078F1889726A85998AC9E
:105400008C02264666F0899CA8295179247059445B
:105410006938644831A98809205970AB113840694E
:10542000A8193148608CA83C415C207C00F1879829
:105430001986A86E767EA999882D557DD8B1B5B903
:10544000A3DFDFDFAED0DFAAD0DEF2ABF8F9D9B050
:1054500087C4AAF1DFDFBBAFDFDFB9D8B1F1A39713
:105460008E60DFB084F2C8F8F9D9DED89385F14AAE
:10547000B183A308B5839A0810B79F10D8F1B0BACA
:10548000AEB08AC2B2B68E9EF1FBD9F41DD8F9D95E
:105490000CF1D8F8F8AD61D9AEFBD8F40CF1D8F81E
:1054A000F8AD19D9AEFBDFD8F416F1D8F8AD8D619F
:1054B000D9F4F4ACF59C9C8DDF2BBAB6AEFAF8F4B7
:1054C0000BD8F1AED0F8AD51DAAEFAF8F1D8B9B1E7
:1054D000B6A3839C08B9B1839AB5AAC0FD3083B73F
:1054E0009F10B58B93F20202D1ABDADED8F1B08017
:1054F000BAABC0C3B284C1C3D8B1B9F38BA391B660
:1055000009B4D9ABDEB0879CB9A3DDF1B38B8B8B2B
:105510008B8BB087A3A3A3A3B28BB69BF2A3A3A349
:10552000A3A3A3A3A3A3A3F1B087B59AA3F39BA3BB
:10553000A3DCBAACDFB9A3A3A3A3A3A3A3A3A3A390
:10554000A3A3A3A3A3A3D8D8D8BBB3B7F1AAF9DA6E
:10555000FFD9809AAA28B48098A720B79787A86611
:1055600088F07951F1902C870CA781976293F071A4
:10557000716085940129517990A5F1284C6C870CB4
:1055800095188578A38390284C6C886CD8F3A282F8
:1055900000F210A8921980A2F2D926D8F188A84D5D
:1055A000D948D896A83980D93CD89580A839A686FC
:1055B00098D92CDA87A72CD8A8899519A980D93829
:1055C000D8A88939A980DA3CD8A82EA83990D90C56
:1055D000D8A8953198D90CD8A809D9FFD801DAFFF5
:1055E000D89539A9DA26FFD890A80D8999A81080F6
:1055F0009821DA2ED88999A83180DA2ED8A88696F3
:105600003180DA2ED8A8873180DA2ED8A88292F39A
:105610004180F1D92ED8A882F31980F1D92ED882F1
:10562000ACF3C0A28022F1A62EA72EA92298A82909
:10563000DAACDEFFD8A2F22AF1A92E8292A8F231CA
:1056400080A696F1D900AC8C9C0C30ACDED0DEFF8D
:10565000D88C9CACD010ACDE8092A2F24C82A8F127
:10566000CAF235F19688A6D900D8F1FF08070000E4
:10567000A00F00000001000008070000A00F0000BC
:10568000000100000807FF00020000000C030000FA
:105690000100000000000000000000000400000005
:1056A0001800000000300000080000001800000092
:1056B000003000006800000476005401F7FD00018E
:1056C00075191A0C6A231B1C1F207274433B413846
:1056D000393A6B6C376F06246D6E706D70753D25B1
:1056E000640D0A004D505536303530204944203D78
:1056F0002025780D0A00E6A380E6B58BE4B88DE599
:1057000088B0204D50553630353020E6A8A1E59DB3
:10571000970050726F64756374204944207265610C
:1057200064206173203020696E64696361746573FD
:1057300020646576696365206973206569746865AE
:105740007220696E636F6D70617469626C65206F41
:105750007220616E204D5055333035302E000000E0
:10576000830000000008000000010018320005005E
:10577000000020410000D242295C0F3E9A99993ED8
:105780003333733F295C0F3EA857000000002020F0
:105790003000000008010000D85700003000202031
:1057A0009003000028010000C0560000B45600001D
:1057B00000000000000000000000000000000000E9
:1057C00000000000000000000000000000000000D9
:0857D00060570000000000001A
:04000005000000C136
:00000001FF
